{
  "contractName": "BAT",
  "abi": [
    {
      "constant": true,
      "inputs": [
        {
          "name": "interfaceId",
          "type": "bytes4"
        }
      ],
      "name": "supportsInterface",
      "outputs": [
        {
          "name": "",
          "type": "bool"
        }
      ],
      "payable": false,
      "stateMutability": "view",
      "type": "function"
    },
    {
      "constant": true,
      "inputs": [
        {
          "name": "tokenId",
          "type": "uint256"
        }
      ],
      "name": "getApproved",
      "outputs": [
        {
          "name": "",
          "type": "address"
        }
      ],
      "payable": false,
      "stateMutability": "view",
      "type": "function"
    },
    {
      "constant": false,
      "inputs": [
        {
          "name": "to",
          "type": "address"
        },
        {
          "name": "tokenId",
          "type": "uint256"
        }
      ],
      "name": "approve",
      "outputs": [],
      "payable": false,
      "stateMutability": "nonpayable",
      "type": "function"
    },
    {
      "constant": false,
      "inputs": [
        {
          "name": "from",
          "type": "address"
        },
        {
          "name": "to",
          "type": "address"
        },
        {
          "name": "tokenId",
          "type": "uint256"
        }
      ],
      "name": "transferFrom",
      "outputs": [],
      "payable": false,
      "stateMutability": "nonpayable",
      "type": "function"
    },
    {
      "constant": false,
      "inputs": [
        {
          "name": "from",
          "type": "address"
        },
        {
          "name": "to",
          "type": "address"
        },
        {
          "name": "tokenId",
          "type": "uint256"
        }
      ],
      "name": "safeTransferFrom",
      "outputs": [],
      "payable": false,
      "stateMutability": "nonpayable",
      "type": "function"
    },
    {
      "constant": true,
      "inputs": [
        {
          "name": "tokenId",
          "type": "uint256"
        }
      ],
      "name": "ownerOf",
      "outputs": [
        {
          "name": "",
          "type": "address"
        }
      ],
      "payable": false,
      "stateMutability": "view",
      "type": "function"
    },
    {
      "constant": true,
      "inputs": [
        {
          "name": "owner",
          "type": "address"
        }
      ],
      "name": "balanceOf",
      "outputs": [
        {
          "name": "",
          "type": "uint256"
        }
      ],
      "payable": false,
      "stateMutability": "view",
      "type": "function"
    },
    {
      "constant": false,
      "inputs": [
        {
          "name": "to",
          "type": "address"
        },
        {
          "name": "approved",
          "type": "bool"
        }
      ],
      "name": "setApprovalForAll",
      "outputs": [],
      "payable": false,
      "stateMutability": "nonpayable",
      "type": "function"
    },
    {
      "constant": false,
      "inputs": [
        {
          "name": "from",
          "type": "address"
        },
        {
          "name": "to",
          "type": "address"
        },
        {
          "name": "tokenId",
          "type": "uint256"
        },
        {
          "name": "_data",
          "type": "bytes"
        }
      ],
      "name": "safeTransferFrom",
      "outputs": [],
      "payable": false,
      "stateMutability": "nonpayable",
      "type": "function"
    },
    {
      "constant": true,
      "inputs": [
        {
          "name": "owner",
          "type": "address"
        },
        {
          "name": "operator",
          "type": "address"
        }
      ],
      "name": "isApprovedForAll",
      "outputs": [
        {
          "name": "",
          "type": "bool"
        }
      ],
      "payable": false,
      "stateMutability": "view",
      "type": "function"
    },
    {
      "constant": true,
      "inputs": [
        {
          "name": "",
          "type": "uint256"
        }
      ],
      "name": "accounts",
      "outputs": [
        {
          "name": "iban",
          "type": "string"
        },
        {
          "name": "currencyCode",
          "type": "uint8"
        },
        {
          "name": "currentBalance",
          "type": "int256"
        }
      ],
      "payable": false,
      "stateMutability": "view",
      "type": "function"
    },
    {
      "anonymous": false,
      "inputs": [
        {
          "indexed": false,
          "name": "owner",
          "type": "address"
        },
        {
          "indexed": false,
          "name": "tokenID",
          "type": "uint256"
        },
        {
          "indexed": false,
          "name": "iban",
          "type": "string"
        }
      ],
      "name": "bankAccountCreated",
      "type": "event"
    },
    {
      "anonymous": false,
      "inputs": [
        {
          "indexed": false,
          "name": "owner",
          "type": "address"
        },
        {
          "indexed": false,
          "name": "tokenID",
          "type": "uint256"
        },
        {
          "indexed": false,
          "name": "iban",
          "type": "string"
        }
      ],
      "name": "bankAccountAlreadyCreated",
      "type": "event"
    },
    {
      "anonymous": false,
      "inputs": [
        {
          "indexed": false,
          "name": "realOwner",
          "type": "address"
        },
        {
          "indexed": false,
          "name": "userThatSendRequest",
          "type": "address"
        },
        {
          "indexed": false,
          "name": "tokenID",
          "type": "uint256"
        },
        {
          "indexed": false,
          "name": "iban",
          "type": "string"
        }
      ],
      "name": "bankAccountOwnedByOther",
      "type": "event"
    },
    {
      "anonymous": false,
      "inputs": [
        {
          "indexed": false,
          "name": "owner",
          "type": "address"
        },
        {
          "indexed": false,
          "name": "tokenID",
          "type": "uint256"
        },
        {
          "indexed": false,
          "name": "_newBalance",
          "type": "int256"
        }
      ],
      "name": "balanceUpdated",
      "type": "event"
    },
    {
      "anonymous": false,
      "inputs": [
        {
          "indexed": true,
          "name": "from",
          "type": "address"
        },
        {
          "indexed": true,
          "name": "to",
          "type": "address"
        },
        {
          "indexed": true,
          "name": "tokenId",
          "type": "uint256"
        }
      ],
      "name": "Transfer",
      "type": "event"
    },
    {
      "anonymous": false,
      "inputs": [
        {
          "indexed": true,
          "name": "owner",
          "type": "address"
        },
        {
          "indexed": true,
          "name": "approved",
          "type": "address"
        },
        {
          "indexed": true,
          "name": "tokenId",
          "type": "uint256"
        }
      ],
      "name": "Approval",
      "type": "event"
    },
    {
      "anonymous": false,
      "inputs": [
        {
          "indexed": true,
          "name": "owner",
          "type": "address"
        },
        {
          "indexed": true,
          "name": "operator",
          "type": "address"
        },
        {
          "indexed": false,
          "name": "approved",
          "type": "bool"
        }
      ],
      "name": "ApprovalForAll",
      "type": "event"
    },
    {
      "constant": false,
      "inputs": [
        {
          "name": "_iban",
          "type": "string"
        },
        {
          "name": "_owner",
          "type": "address"
        }
      ],
      "name": "checkIbanAlreadyExist",
      "outputs": [
        {
          "name": "",
          "type": "bool"
        }
      ],
      "payable": false,
      "stateMutability": "nonpayable",
      "type": "function"
    },
    {
      "constant": false,
      "inputs": [
        {
          "name": "_iban",
          "type": "string"
        },
        {
          "name": "_currencyCode",
          "type": "uint8"
        }
      ],
      "name": "createBankAccount",
      "outputs": [],
      "payable": false,
      "stateMutability": "nonpayable",
      "type": "function"
    },
    {
      "constant": true,
      "inputs": [
        {
          "name": "_id",
          "type": "uint256"
        }
      ],
      "name": "getBankAccount",
      "outputs": [
        {
          "name": "",
          "type": "string"
        },
        {
          "name": "",
          "type": "uint8"
        },
        {
          "name": "",
          "type": "int256"
        }
      ],
      "payable": false,
      "stateMutability": "view",
      "type": "function"
    },
    {
      "constant": true,
      "inputs": [
        {
          "name": "_id",
          "type": "uint256"
        }
      ],
      "name": "getAccountBalance",
      "outputs": [
        {
          "name": "",
          "type": "int256"
        }
      ],
      "payable": false,
      "stateMutability": "view",
      "type": "function"
    },
    {
      "constant": true,
      "inputs": [
        {
          "name": "_id",
          "type": "uint256"
        }
      ],
      "name": "getAccountIBAN",
      "outputs": [
        {
          "name": "",
          "type": "string"
        }
      ],
      "payable": false,
      "stateMutability": "view",
      "type": "function"
    },
    {
      "constant": false,
      "inputs": [
        {
          "name": "_id",
          "type": "uint256"
        },
        {
          "name": "_newBalance",
          "type": "int256"
        }
      ],
      "name": "SetBankAccountBalance",
      "outputs": [],
      "payable": false,
      "stateMutability": "nonpayable",
      "type": "function"
    }
  ],
  "bytecode": "0x608060405261001a6301ffc9a760e01b61003560201b60201c565b6100306380ac58cd60e01b61003560201b60201c565b610103565b7fffffffff0000000000000000000000000000000000000000000000000000000080821614156100c657604080517f08c379a000000000000000000000000000000000000000000000000000000000815260206004820152601c60248201527f4552433136353a20696e76616c696420696e7465726661636520696400000000604482015290519081900360640190fd5b7fffffffff00000000000000000000000000000000000000000000000000000000166000908152602081905260409020805460ff19166001179055565b611b16806101126000396000f3fe608060405234801561001057600080fd5b506004361061010b5760003560e01c80636352211e116100a2578063a36a9b3f11610071578063a36a9b3f146104ac578063b88d4fde1461055d578063e985e9c514610623578063f2a40db814610651578063ff3766231461066e5761010b565b80636352211e146103a957806370a08231146103c65780637573640e146103ec578063a22cb4651461047e5761010b565b806323b872dd116100de57806323b872dd14610263578063398a1328146102995780633d9546ee1461034457806342842e0e146103735761010b565b806301ffc9a714610110578063081812fc1461014b578063095ea7b3146101845780630d312770146101b2575b600080fd5b6101376004803603602081101561012657600080fd5b50356001600160e01b031916610691565b604080519115158252519081900360200190f35b6101686004803603602081101561016157600080fd5b50356106b0565b604080516001600160a01b039092168252519081900360200190f35b6101b06004803603604081101561019a57600080fd5b506001600160a01b038135169060200135610715565b005b6101cf600480360360208110156101c857600080fd5b503561082c565b60405180806020018460018111156101e357fe5b60ff168152602001838152602001828103825285818151815260200191508051906020019080838360005b8381101561022657818101518382015260200161020e565b50505050905090810190601f1680156102535780820380516001836020036101000a031916815260200191505b5094505050505060405180910390f35b6101b06004803603606081101561027957600080fd5b506001600160a01b0381358116916020810135909116906040013561092b565b6101b0600480360360408110156102af57600080fd5b8101906020810181356401000000008111156102ca57600080fd5b8201836020820111156102dc57600080fd5b803590602001918460018302840111640100000000831117156102fe57600080fd5b91908080601f0160208091040260200160405190810160405280939291908181526020018383808284376000920191909152509295505050903560ff1691506109839050565b6103616004803603602081101561035a57600080fd5b5035610b24565b60408051918252519081900360200190f35b6101b06004803603606081101561038957600080fd5b506001600160a01b03813581169160208101359091169060400135610b39565b610168600480360360208110156103bf57600080fd5b5035610b54565b610361600480360360208110156103dc57600080fd5b50356001600160a01b0316610bb1565b6104096004803603602081101561040257600080fd5b5035610c1c565b6040805160208082528351818301528351919283929083019185019080838360005b8381101561044357818101518382015260200161042b565b50505050905090810190601f1680156104705780820380516001836020036101000a031916815260200191505b509250505060405180910390f35b6101b06004803603604081101561049457600080fd5b506001600160a01b0381351690602001351515610d30565b610137600480360360408110156104c257600080fd5b8101906020810181356401000000008111156104dd57600080fd5b8201836020820111156104ef57600080fd5b8035906020019184600183028401116401000000008311171561051157600080fd5b91908080601f016020809104026020016040519081016040528093929190818152602001838380828437600092019190915250929550505090356001600160a01b03169150610dff9050565b6101b06004803603608081101561057357600080fd5b6001600160a01b038235811692602081013590911691604082013591908101906080810160608201356401000000008111156105ae57600080fd5b8201836020820111156105c057600080fd5b803590602001918460018302840111640100000000831117156105e257600080fd5b91908080601f01602080910402602001604051908101604052809392919081815260200183838082843760009201919091525092955061112e945050505050565b6101376004803603604081101561063957600080fd5b506001600160a01b0381358116916020013516611189565b6101cf6004803603602081101561066757600080fd5b50356111b7565b6101b06004803603604081101561068457600080fd5b5080359060200135611268565b6001600160e01b03191660009081526020819052604090205460ff1690565b60006106bb82611334565b6106f957604051600160e51b62461bcd02815260040180806020018281038252602c815260200180611a44602c913960400191505060405180910390fd5b506000908152600260205260409020546001600160a01b031690565b600061072082610b54565b9050806001600160a01b0316836001600160a01b0316141561077657604051600160e51b62461bcd028152600401808060200182810382526021815260200180611a996021913960400191505060405180910390fd5b336001600160a01b038216148061079257506107928133611189565b6107d057604051600160e51b62461bcd0281526004018080602001828103825260388152602001806119b96038913960400191505060405180910390fd5b60008281526002602052604080822080546001600160a01b0319166001600160a01b0387811691821790925591518593918516917f8c5be1e5ebec7d5bd14f71427d1e84f3dd0314c0f7b2291e5b200ac8c7c3b92591a4505050565b6060600080610839611879565b6000858152600660209081526040918290208251815460026001821615610100026000190190911604601f810184900490930281016080908101909452606081018381529093919284928491908401828280156108d75780601f106108ac576101008083540402835291602001916108d7565b820191906000526020600020905b8154815290600101906020018083116108ba57829003601f168201915b505050918352505060018281015460209092019160ff16908111156108f857fe5b600181111561090357fe5b8152600291909101546020918201528151908201516040909201519097919650945092505050565b6109353382611351565b61097357604051600160e51b62461bcd028152600401808060200182810382526031815260200180611aba6031913960400191505060405180910390fd5b61097e8383836113f8565b505050565b813360006109918383610dff565b905080156109e95760408051600160e51b62461bcd02815260206004820152601f60248201527f54686973204962616e20697320616c7265616479207265676973746572656400604482015290519081900360640190fd5b600580546001019081905560009081526006602090815260409091208651610a139288019061189b565b50600554600090815260066020526040902060019081018054869260ff19909116908381811115610a4057fe5b0217905550610a5133600554611542565b60055460008181526006602090815260409182902082513380825292810185905260609381018481528254600260001961010060018416150201909116049482018590527f2039a4d5c1e27ac7d9d3cc655a56de33da1f7d48737a40672c6984edd718c6f2959394608083019084908015610b0d5780601f10610ae257610100808354040283529160200191610b0d565b820191906000526020600020905b815481529060010190602001808311610af057829003601f168201915b505094505050505060405180910390a15050505050565b60009081526006602052604090206002015490565b61097e8383836040518060200160405280600081525061112e565b6000818152600160205260408120546001600160a01b031680610bab57604051600160e51b62461bcd028152600401808060200182810382526029815260200180611a1b6029913960400191505060405180910390fd5b92915050565b60006001600160a01b038216610bfb57604051600160e51b62461bcd02815260040180806020018281038252602a8152602001806119f1602a913960400191505060405180910390fd5b6001600160a01b0382166000908152600360205260409020610bab90611679565b606081610c2881610b54565b6001600160a01b0316336001600160a01b031614610c905760408051600160e51b62461bcd02815260206004820181905260248201527f4f6e6c792074686520746f6b656e206f776e65722063616e2061636365737321604482015290519081900360640190fd5b60008381526006602090815260409182902080548351601f600260001961010060018616150201909316929092049182018490048402810184019094528084529091830182828015610d235780601f10610cf857610100808354040283529160200191610d23565b820191906000526020600020905b815481529060010190602001808311610d0657829003601f168201915b5050505050915050919050565b6001600160a01b038216331415610d915760408051600160e51b62461bcd02815260206004820152601960248201527f4552433732313a20617070726f766520746f2063616c6c657200000000000000604482015290519081900360640190fd5b3360008181526004602090815260408083206001600160a01b03871680855290835292819020805460ff1916861515908117909155815190815290519293927f17307eab39ab6107e8899845ad3d59bd9653f200f220920489ca2b5937696c31929181900390910190a35050565b60006005546000146111255760015b60055481101561111b57836040516020018082805190602001908083835b60208310610e4b5780518252601f199092019160209182019101610e2c565b6001836020036101000a03801982511681845116808217855250505050505090500191505060405160208183030381529060405280519060200120600660008381526020019081526020016000206000016040516020018082805460018160011615610100020316600290048015610efa5780601f10610ed8576101008083540402835291820191610efa565b820191906000526020600020905b815481529060010190602001808311610ee6575b505091505060405160208183030381529060405280519060200120141561111357826001600160a01b0316610f2e82610b54565b6001600160a01b0316141561101d5760008181526006602090815260409182902082516001600160a01b038716815291820184905260609282018381528154600260001961010060018416150201909116049383018490527fad483775b861dbed26dbd8e253c9ca9c34b023862eac0ba3874b63524d03fd7193879386939290916080830190849080156110035780601f10610fd857610100808354040283529160200191611003565b820191906000526020600020905b815481529060010190602001808311610fe657829003601f168201915b505094505050505060405180910390a16001915050610bab565b7f5cf6086df19562b35294a36ebd9a4a981755d5155fb18a687bfad5dc75bb1d6a61104782610b54565b60008381526006602090815260409182902082516001600160a01b03808616825289169281019290925291810185905260806060820181815283546002600019610100600184161502019091160491830182905288938793909290919060a0830190849080156110f85780601f106110cd576101008083540402835291602001916110f8565b820191906000526020600020905b8154815290600101906020018083116110db57829003601f168201915b50509550505050505060405180910390a16001915050610bab565b600101610e0e565b5060009050610bab565b50600092915050565b61113984848461092b565b6111458484848461167d565b61118357604051600160e51b62461bcd0281526004018080602001828103825260328152602001806119376032913960400191505060405180910390fd5b50505050565b6001600160a01b03918216600090815260046020908152604080832093909416825291909152205460ff1690565b60066020908152600091825260409182902080548351601f6002600019610100600186161502019093169290920491820184900484028101840190945280845290929183919083018282801561124e5780601f106112235761010080835404028352916020019161124e565b820191906000526020600020905b81548152906001019060200180831161123157829003601f168201915b505050506001830154600290930154919260ff1691905083565b8161127281610b54565b6001600160a01b0316336001600160a01b0316146112da5760408051600160e51b62461bcd02815260206004820181905260248201527f4f6e6c792074686520746f6b656e206f776e65722063616e2061636365737321604482015290519081900360640190fd5b600083815260066020908152604091829020600201849055815133815290810185905280820184905290517f59ccf961b5aa1967adac68ef1caa1f18f9a42ddbf404019403ce2df875d793a69181900360600190a1505050565b6000908152600160205260409020546001600160a01b0316151590565b600061135c82611334565b61139a57604051600160e51b62461bcd02815260040180806020018281038252602c81526020018061198d602c913960400191505060405180910390fd5b60006113a583610b54565b9050806001600160a01b0316846001600160a01b031614806113e05750836001600160a01b03166113d5846106b0565b6001600160a01b0316145b806113f057506113f08185611189565b949350505050565b826001600160a01b031661140b82610b54565b6001600160a01b03161461145357604051600160e51b62461bcd028152600401808060200182810382526029815260200180611a706029913960400191505060405180910390fd5b6001600160a01b03821661149b57604051600160e51b62461bcd0281526004018080602001828103825260248152602001806119696024913960400191505060405180910390fd5b6114a4816117b6565b6001600160a01b03831660009081526003602052604090206114c5906117f3565b6001600160a01b03821660009081526003602052604090206114e69061180a565b60008181526001602052604080822080546001600160a01b0319166001600160a01b0386811691821790925591518493918716917fddf252ad1be2c89b69c2b068fc378daa952ba7f163c4a11628f55a4df523b3ef91a4505050565b6001600160a01b0382166115a05760408051600160e51b62461bcd02815260206004820181905260248201527f4552433732313a206d696e7420746f20746865207a65726f2061646472657373604482015290519081900360640190fd5b6115a981611334565b156115fe5760408051600160e51b62461bcd02815260206004820152601c60248201527f4552433732313a20746f6b656e20616c7265616479206d696e74656400000000604482015290519081900360640190fd5b600081815260016020908152604080832080546001600160a01b0319166001600160a01b03871690811790915583526003909152902061163d9061180a565b60405181906001600160a01b038416906000907fddf252ad1be2c89b69c2b068fc378daa952ba7f163c4a11628f55a4df523b3ef908290a45050565b5490565b6000611691846001600160a01b0316611813565b61169d575060016113f0565b604051600160e11b630a85bd0102815233600482018181526001600160a01b03888116602485015260448401879052608060648501908152865160848601528651600095928a169463150b7a029490938c938b938b939260a4019060208501908083838e5b8381101561171a578181015183820152602001611702565b50505050905090810190601f1680156117475780820380516001836020036101000a031916815260200191505b5095505050505050602060405180830381600087803b15801561176957600080fd5b505af115801561177d573d6000803e3d6000fd5b505050506040513d602081101561179357600080fd5b50516001600160e01b031916600160e11b630a85bd010214915050949350505050565b6000818152600260205260409020546001600160a01b0316156117f057600081815260026020526040902080546001600160a01b03191690555b50565b805461180690600163ffffffff61181916565b9055565b80546001019055565b3b151590565b6000828211156118735760408051600160e51b62461bcd02815260206004820152601e60248201527f536166654d6174683a207375627472616374696f6e206f766572666c6f770000604482015290519081900360640190fd5b50900390565b6040805160608082019092529081526020810160008152602001600081525090565b828054600181600116156101000203166002900490600052602060002090601f016020900481019282601f106118dc57805160ff1916838001178555611909565b82800160010185558215611909579182015b828111156119095782518255916020019190600101906118ee565b50611915929150611919565b5090565b61193391905b80821115611915576000815560010161191f565b9056fe4552433732313a207472616e7366657220746f206e6f6e20455243373231526563656976657220696d706c656d656e7465724552433732313a207472616e7366657220746f20746865207a65726f20616464726573734552433732313a206f70657261746f7220717565727920666f72206e6f6e6578697374656e7420746f6b656e4552433732313a20617070726f76652063616c6c6572206973206e6f74206f776e6572206e6f7220617070726f76656420666f7220616c6c4552433732313a2062616c616e636520717565727920666f7220746865207a65726f20616464726573734552433732313a206f776e657220717565727920666f72206e6f6e6578697374656e7420746f6b656e4552433732313a20617070726f76656420717565727920666f72206e6f6e6578697374656e7420746f6b656e4552433732313a207472616e73666572206f6620746f6b656e2074686174206973206e6f74206f776e4552433732313a20617070726f76616c20746f2063757272656e74206f776e65724552433732313a207472616e736665722063616c6c6572206973206e6f74206f776e6572206e6f7220617070726f766564a165627a7a72305820545b33399a2bffa28042124433e99332217d1e5064d0f5aad459e57e8c498d730029",
  "source": "pragma solidity ^0.5.5;\r\n\r\nimport \"node_modules/openzeppelin-solidity/contracts/token/ERC721/ERC721.sol\";\r\n\r\ncontract BAT is ERC721 {\r\n\r\n    enum Currency { EUR, USD }\r\n\r\n    struct BankAccount {\r\n        string iban;\r\n        Currency currencyCode;\r\n        int currentBalance;\r\n    }\r\n\r\n    uint lastTokenId;\r\n\r\n    mapping(uint256 => BankAccount) public accounts;\r\n\r\n    modifier onlyIfIbanDidNotExist(string memory _iban, address _owner) {\r\n        bool check = checkIbanAlreadyExist(_iban,_owner);\r\n        require(\r\n            check == false,\r\n            \"This Iban is already registered\"\r\n        );\r\n        _;\r\n    }\r\n\r\n    modifier onlyOwner(uint _tokenID) {\r\n        require (\r\n            msg.sender == ownerOf(_tokenID),\r\n            \"Only the token owner can access!\");\r\n        _;\r\n    }\r\n\r\n    event bankAccountCreated (\r\n        address owner,\r\n        uint tokenID,\r\n        string iban);\r\n\r\n    event bankAccountAlreadyCreated (\r\n        address owner,\r\n        uint tokenID,\r\n        string iban);\r\n\r\n    event bankAccountOwnedByOther (\r\n        address realOwner,\r\n        address userThatSendRequest,\r\n        uint tokenID,\r\n        string iban);\r\n\r\n    event balanceUpdated (\r\n        address owner,\r\n        uint tokenID,\r\n        int _newBalance);\r\n\r\n    function checkIbanAlreadyExist (string memory _iban, address _owner) public returns (bool){\r\n        if (lastTokenId != 0){\r\n            for (uint i=1; i<lastTokenId; i++){\r\n                if (keccak256(abi.encodePacked((accounts[i].iban))) == keccak256(abi.encodePacked((_iban)))){\r\n                    if (ownerOf(i) == _owner){\r\n                        emit bankAccountAlreadyCreated(_owner,i,accounts[i].iban);\r\n                        return true;\r\n                    }else{\r\n                        emit bankAccountOwnedByOther(ownerOf(i),_owner,i,accounts[i].iban);\r\n                        return true;\r\n                    }\r\n                }\r\n            }\r\n            return false;\r\n        }\r\n        return false;\r\n    }\r\n\r\n    function createBankAccount(string memory _iban, Currency _currencyCode) onlyIfIbanDidNotExist(_iban, msg.sender) public {\r\n        lastTokenId += 1;\r\n\r\n        accounts[lastTokenId].iban = _iban;\r\n        accounts[lastTokenId].currencyCode = _currencyCode;\r\n\r\n        _mint(msg.sender, lastTokenId);\r\n\r\n        emit bankAccountCreated(msg.sender, lastTokenId, accounts[lastTokenId].iban);\r\n    }\r\n\r\n    function getBankAccount(uint _id) view public returns(string memory, Currency, int) {\r\n        BankAccount memory acc = accounts[_id];\r\n        return(acc.iban, acc.currencyCode, acc.currentBalance);\r\n    }\r\n\r\n    function getAccountBalance (uint _id) view public returns (int) {\r\n        return (accounts[_id].currentBalance);\r\n    }\r\n\r\n    function getAccountIBAN (uint _id) view onlyOwner(_id) public returns (string memory) {\r\n        return (accounts[_id].iban);\r\n    }\r\n\r\n    function SetBankAccountBalance(uint _id, int _newBalance) onlyOwner(_id) public {\r\n        accounts[_id].currentBalance = _newBalance;\r\n        emit balanceUpdated (msg.sender, _id, _newBalance);\r\n    }\r\n\r\n}\r\n",
  "sourcePath": "C:/Users/hackro/Desktop/Dtpp_AISP_project/contracts/BAT.sol",
  "compiler": {
    "name": "solc",
    "version": "0.5.8+commit.23d335f2.Emscripten.clang"
  },
  "schemaVersion": "3.0.16",
  "updatedAt": "2019-10-01T23:52:02.249Z",
  "devdoc": {
    "methods": {
      "approve(address,uint256)": {
        "details": "Approves another address to transfer the given token ID The zero address indicates there is no approved address. There can only be one approved address per token at a given time. Can only be called by the token owner or an approved operator.",
        "params": {
          "to": "address to be approved for the given token ID",
          "tokenId": "uint256 ID of the token to be approved"
        }
      },
      "balanceOf(address)": {
        "details": "Gets the balance of the specified address.",
        "params": {
          "owner": "address to query the balance of"
        },
        "return": "uint256 representing the amount owned by the passed address"
      },
      "getApproved(uint256)": {
        "details": "Gets the approved address for a token ID, or zero if no address set Reverts if the token ID does not exist.",
        "params": {
          "tokenId": "uint256 ID of the token to query the approval of"
        },
        "return": "address currently approved for the given token ID"
      },
      "isApprovedForAll(address,address)": {
        "details": "Tells whether an operator is approved by a given owner.",
        "params": {
          "operator": "operator address which you want to query the approval of",
          "owner": "owner address which you want to query the approval of"
        },
        "return": "bool whether the given operator is approved by the given owner"
      },
      "ownerOf(uint256)": {
        "details": "Gets the owner of the specified token ID.",
        "params": {
          "tokenId": "uint256 ID of the token to query the owner of"
        },
        "return": "address currently marked as the owner of the given token ID"
      },
      "safeTransferFrom(address,address,uint256)": {
        "details": "Safely transfers the ownership of a given token ID to another address If the target address is a contract, it must implement `onERC721Received`, which is called upon a safe transfer, and return the magic value `bytes4(keccak256(\"onERC721Received(address,address,uint256,bytes)\"))`; otherwise, the transfer is reverted. Requires the msg.sender to be the owner, approved, or operator",
        "params": {
          "from": "current owner of the token",
          "to": "address to receive the ownership of the given token ID",
          "tokenId": "uint256 ID of the token to be transferred"
        }
      },
      "safeTransferFrom(address,address,uint256,bytes)": {
        "details": "Safely transfers the ownership of a given token ID to another address If the target address is a contract, it must implement `onERC721Received`, which is called upon a safe transfer, and return the magic value `bytes4(keccak256(\"onERC721Received(address,address,uint256,bytes)\"))`; otherwise, the transfer is reverted. Requires the msg.sender to be the owner, approved, or operator",
        "params": {
          "_data": "bytes data to send along with a safe transfer check",
          "from": "current owner of the token",
          "to": "address to receive the ownership of the given token ID",
          "tokenId": "uint256 ID of the token to be transferred"
        }
      },
      "setApprovalForAll(address,bool)": {
        "details": "Sets or unsets the approval of a given operator An operator is allowed to transfer all tokens of the sender on their behalf.",
        "params": {
          "approved": "representing the status of the approval to be set",
          "to": "operator address to set the approval"
        }
      },
      "supportsInterface(bytes4)": {
        "details": "See `IERC165.supportsInterface`.     * Time complexity O(1), guaranteed to always use less than 30 000 gas."
      },
      "transferFrom(address,address,uint256)": {
        "details": "Transfers the ownership of a given token ID to another address. Usage of this method is discouraged, use `safeTransferFrom` whenever possible. Requires the msg.sender to be the owner, approved, or operator.",
        "params": {
          "from": "current owner of the token",
          "to": "address to receive the ownership of the given token ID",
          "tokenId": "uint256 ID of the token to be transferred"
        }
      }
    }
  },
  "userdoc": {
    "methods": {}
  }
}