{
  "contractName": "BAT",
  "abi": [
    {
      "constant": true,
      "inputs": [
        {
          "name": "interfaceId",
          "type": "bytes4"
        }
      ],
      "name": "supportsInterface",
      "outputs": [
        {
          "name": "",
          "type": "bool"
        }
      ],
      "payable": false,
      "stateMutability": "view",
      "type": "function"
    },
    {
      "constant": true,
      "inputs": [
        {
          "name": "tokenId",
          "type": "uint256"
        }
      ],
      "name": "getApproved",
      "outputs": [
        {
          "name": "",
          "type": "address"
        }
      ],
      "payable": false,
      "stateMutability": "view",
      "type": "function"
    },
    {
      "constant": false,
      "inputs": [
        {
          "name": "to",
          "type": "address"
        },
        {
          "name": "tokenId",
          "type": "uint256"
        }
      ],
      "name": "approve",
      "outputs": [],
      "payable": false,
      "stateMutability": "nonpayable",
      "type": "function"
    },
    {
      "constant": false,
      "inputs": [
        {
          "name": "from",
          "type": "address"
        },
        {
          "name": "to",
          "type": "address"
        },
        {
          "name": "tokenId",
          "type": "uint256"
        }
      ],
      "name": "transferFrom",
      "outputs": [],
      "payable": false,
      "stateMutability": "nonpayable",
      "type": "function"
    },
    {
      "constant": false,
      "inputs": [
        {
          "name": "from",
          "type": "address"
        },
        {
          "name": "to",
          "type": "address"
        },
        {
          "name": "tokenId",
          "type": "uint256"
        }
      ],
      "name": "safeTransferFrom",
      "outputs": [],
      "payable": false,
      "stateMutability": "nonpayable",
      "type": "function"
    },
    {
      "constant": true,
      "inputs": [
        {
          "name": "tokenId",
          "type": "uint256"
        }
      ],
      "name": "ownerOf",
      "outputs": [
        {
          "name": "",
          "type": "address"
        }
      ],
      "payable": false,
      "stateMutability": "view",
      "type": "function"
    },
    {
      "constant": true,
      "inputs": [
        {
          "name": "owner",
          "type": "address"
        }
      ],
      "name": "balanceOf",
      "outputs": [
        {
          "name": "",
          "type": "uint256"
        }
      ],
      "payable": false,
      "stateMutability": "view",
      "type": "function"
    },
    {
      "constant": false,
      "inputs": [
        {
          "name": "to",
          "type": "address"
        },
        {
          "name": "approved",
          "type": "bool"
        }
      ],
      "name": "setApprovalForAll",
      "outputs": [],
      "payable": false,
      "stateMutability": "nonpayable",
      "type": "function"
    },
    {
      "constant": false,
      "inputs": [
        {
          "name": "from",
          "type": "address"
        },
        {
          "name": "to",
          "type": "address"
        },
        {
          "name": "tokenId",
          "type": "uint256"
        },
        {
          "name": "_data",
          "type": "bytes"
        }
      ],
      "name": "safeTransferFrom",
      "outputs": [],
      "payable": false,
      "stateMutability": "nonpayable",
      "type": "function"
    },
    {
      "constant": true,
      "inputs": [
        {
          "name": "owner",
          "type": "address"
        },
        {
          "name": "operator",
          "type": "address"
        }
      ],
      "name": "isApprovedForAll",
      "outputs": [
        {
          "name": "",
          "type": "bool"
        }
      ],
      "payable": false,
      "stateMutability": "view",
      "type": "function"
    },
    {
      "constant": true,
      "inputs": [
        {
          "name": "",
          "type": "uint256"
        }
      ],
      "name": "accounts",
      "outputs": [
        {
          "name": "iban",
          "type": "string"
        },
        {
          "name": "currencyCode",
          "type": "uint8"
        },
        {
          "name": "currentBalance",
          "type": "int256"
        }
      ],
      "payable": false,
      "stateMutability": "view",
      "type": "function"
    },
    {
      "anonymous": false,
      "inputs": [
        {
          "indexed": false,
          "name": "owner",
          "type": "address"
        },
        {
          "indexed": false,
          "name": "tokenID",
          "type": "uint256"
        },
        {
          "indexed": false,
          "name": "iban",
          "type": "string"
        }
      ],
      "name": "bankAccountCreated",
      "type": "event"
    },
    {
      "anonymous": false,
      "inputs": [
        {
          "indexed": false,
          "name": "owner",
          "type": "address"
        },
        {
          "indexed": false,
          "name": "tokenID",
          "type": "uint256"
        },
        {
          "indexed": false,
          "name": "iban",
          "type": "string"
        }
      ],
      "name": "bankAccountAlreadyCreated",
      "type": "event"
    },
    {
      "anonymous": false,
      "inputs": [
        {
          "indexed": false,
          "name": "realOwner",
          "type": "address"
        },
        {
          "indexed": false,
          "name": "userThatSendRequest",
          "type": "address"
        },
        {
          "indexed": false,
          "name": "tokenID",
          "type": "uint256"
        },
        {
          "indexed": false,
          "name": "iban",
          "type": "string"
        }
      ],
      "name": "bankAccountOwnedByOther",
      "type": "event"
    },
    {
      "anonymous": false,
      "inputs": [
        {
          "indexed": false,
          "name": "owner",
          "type": "address"
        },
        {
          "indexed": false,
          "name": "tokenID",
          "type": "uint256"
        },
        {
          "indexed": false,
          "name": "_newBalance",
          "type": "int256"
        }
      ],
      "name": "balanceUpdated",
      "type": "event"
    },
    {
      "anonymous": false,
      "inputs": [
        {
          "indexed": true,
          "name": "from",
          "type": "address"
        },
        {
          "indexed": true,
          "name": "to",
          "type": "address"
        },
        {
          "indexed": true,
          "name": "tokenId",
          "type": "uint256"
        }
      ],
      "name": "Transfer",
      "type": "event"
    },
    {
      "anonymous": false,
      "inputs": [
        {
          "indexed": true,
          "name": "owner",
          "type": "address"
        },
        {
          "indexed": true,
          "name": "approved",
          "type": "address"
        },
        {
          "indexed": true,
          "name": "tokenId",
          "type": "uint256"
        }
      ],
      "name": "Approval",
      "type": "event"
    },
    {
      "anonymous": false,
      "inputs": [
        {
          "indexed": true,
          "name": "owner",
          "type": "address"
        },
        {
          "indexed": true,
          "name": "operator",
          "type": "address"
        },
        {
          "indexed": false,
          "name": "approved",
          "type": "bool"
        }
      ],
      "name": "ApprovalForAll",
      "type": "event"
    },
    {
      "constant": false,
      "inputs": [
        {
          "name": "_iban",
          "type": "string"
        },
        {
          "name": "_owner",
          "type": "address"
        }
      ],
      "name": "checkIbanAlreadyExist",
      "outputs": [
        {
          "name": "",
          "type": "bool"
        }
      ],
      "payable": false,
      "stateMutability": "nonpayable",
      "type": "function"
    },
    {
      "constant": false,
      "inputs": [
        {
          "name": "_iban",
          "type": "string"
        },
        {
          "name": "_currencyCode",
          "type": "uint8"
        }
      ],
      "name": "createBankAccount",
      "outputs": [],
      "payable": false,
      "stateMutability": "nonpayable",
      "type": "function"
    },
    {
      "constant": true,
      "inputs": [
        {
          "name": "_id",
          "type": "uint256"
        }
      ],
      "name": "getBankAccount",
      "outputs": [
        {
          "name": "",
          "type": "string"
        },
        {
          "name": "",
          "type": "uint8"
        },
        {
          "name": "",
          "type": "int256"
        }
      ],
      "payable": false,
      "stateMutability": "view",
      "type": "function"
    },
    {
      "constant": true,
      "inputs": [
        {
          "name": "_id",
          "type": "uint256"
        }
      ],
      "name": "getAccountBalance",
      "outputs": [
        {
          "name": "",
          "type": "int256"
        }
      ],
      "payable": false,
      "stateMutability": "view",
      "type": "function"
    },
    {
      "constant": true,
      "inputs": [
        {
          "name": "_id",
          "type": "uint256"
        }
      ],
      "name": "getAccountIBAN",
      "outputs": [
        {
          "name": "",
          "type": "string"
        }
      ],
      "payable": false,
      "stateMutability": "view",
      "type": "function"
    },
    {
      "constant": false,
      "inputs": [
        {
          "name": "_id",
          "type": "uint256"
        },
        {
          "name": "_newBalance",
          "type": "int256"
        }
      ],
      "name": "SetBankAccountBalance",
      "outputs": [],
      "payable": false,
      "stateMutability": "nonpayable",
      "type": "function"
    },
    {
      "constant": true,
      "inputs": [
        {
          "name": "_account",
          "type": "address"
        }
      ],
      "name": "checkIfTokenExistForGivenAddress",
      "outputs": [
        {
          "name": "",
          "type": "bool"
        }
      ],
      "payable": false,
      "stateMutability": "view",
      "type": "function"
    },
    {
      "constant": true,
      "inputs": [
        {
          "name": "_iban",
          "type": "string"
        }
      ],
      "name": "returnIdGivenIBAN",
      "outputs": [
        {
          "name": "",
          "type": "uint256"
        }
      ],
      "payable": false,
      "stateMutability": "view",
      "type": "function"
    }
  ],
  "bytecode": "0x60806040526200001c6301ffc9a760e01b6200003a60201b60201c565b620000346380ac58cd60e01b6200003a60201b60201c565b62000143565b63ffffffff60e01b817bffffffffffffffffffffffffffffffffffffffffffffffffffffffff19161415620000d7576040517f08c379a000000000000000000000000000000000000000000000000000000000815260040180806020018281038252601c8152602001807f4552433136353a20696e76616c696420696e746572666163652069640000000081525060200191505060405180910390fd5b6001600080837bffffffffffffffffffffffffffffffffffffffffffffffffffffffff19167bffffffffffffffffffffffffffffffffffffffffffffffffffffffff1916815260200190815260200160002060006101000a81548160ff02191690831515021790555050565b612b6e80620001536000396000f3fe608060405234801561001057600080fd5b50600436106101215760003560e01c80636352211e116100ad578063a36a9b3f11610071578063a36a9b3f146107d8578063b88d4fde146108cb578063e985e9c5146109d0578063f2a40db814610a4c578063ff37662314610b0f57610121565b80636352211e146105bf57806370a082311461062d5780637573640e14610685578063825a25b11461072c578063a22cb4651461078857610121565b806323b872dd116100f457806323b872dd1461030a578063398a1328146103785780633af4372a146104405780633d9546ee1461050f57806342842e0e1461055157610121565b806301ffc9a714610126578063081812fc1461018b578063095ea7b3146101f95780630d31277014610247575b600080fd5b6101716004803603602081101561013c57600080fd5b8101908080357bffffffffffffffffffffffffffffffffffffffffffffffffffffffff19169060200190929190505050610b47565b604051808215151515815260200191505060405180910390f35b6101b7600480360360208110156101a157600080fd5b8101908080359060200190929190505050610bae565b604051808273ffffffffffffffffffffffffffffffffffffffff1673ffffffffffffffffffffffffffffffffffffffff16815260200191505060405180910390f35b6102456004803603604081101561020f57600080fd5b81019080803573ffffffffffffffffffffffffffffffffffffffff16906020019092919080359060200190929190505050610c49565b005b6102736004803603602081101561025d57600080fd5b8101908080359060200190929190505050610e22565b604051808060200184600181111561028757fe5b60ff168152602001838152602001828103825285818151815260200191508051906020019080838360005b838110156102cd5780820151818401526020810190506102b2565b50505050905090810190601f1680156102fa5780820380516001836020036101000a031916815260200191505b5094505050505060405180910390f35b6103766004803603606081101561032057600080fd5b81019080803573ffffffffffffffffffffffffffffffffffffffff169060200190929190803573ffffffffffffffffffffffffffffffffffffffff16906020019092919080359060200190929190505050610f48565b005b61043e6004803603604081101561038e57600080fd5b81019080803590602001906401000000008111156103ab57600080fd5b8201836020820111156103bd57600080fd5b803590602001918460018302840111640100000000831117156103df57600080fd5b91908080601f016020809104026020016040519081016040528093929190818152602001838380828437600081840152601f19601f820116905080830192505050505050509192919290803560ff169060200190929190505050610fb7565b005b6104f96004803603602081101561045657600080fd5b810190808035906020019064010000000081111561047357600080fd5b82018360208201111561048557600080fd5b803590602001918460018302840111640100000000831117156104a757600080fd5b91908080601f016020809104026020016040519081016040528093929190818152602001838380828437600081840152601f19601f8201169050808301925050505050505091929192905050506111d9565b6040518082815260200191505060405180910390f35b61053b6004803603602081101561052557600080fd5b8101908080359060200190929190505050611312565b6040518082815260200191505060405180910390f35b6105bd6004803603606081101561056757600080fd5b81019080803573ffffffffffffffffffffffffffffffffffffffff169060200190929190803573ffffffffffffffffffffffffffffffffffffffff16906020019092919080359060200190929190505050611332565b005b6105eb600480360360208110156105d557600080fd5b8101908080359060200190929190505050611352565b604051808273ffffffffffffffffffffffffffffffffffffffff1673ffffffffffffffffffffffffffffffffffffffff16815260200191505060405180910390f35b61066f6004803603602081101561064357600080fd5b81019080803573ffffffffffffffffffffffffffffffffffffffff16906020019092919050505061141a565b6040518082815260200191505060405180910390f35b6106b16004803603602081101561069b57600080fd5b81019080803590602001909291905050506114ef565b6040518080602001828103825283818151815260200191508051906020019080838360005b838110156106f15780820151818401526020810190506106d6565b50505050905090810190601f16801561071e5780820380516001836020036101000a031916815260200191505b509250505060405180910390f35b61076e6004803603602081101561074257600080fd5b81019080803573ffffffffffffffffffffffffffffffffffffffff169060200190929190505050611652565b604051808215151515815260200191505060405180910390f35b6107d66004803603604081101561079e57600080fd5b81019080803573ffffffffffffffffffffffffffffffffffffffff1690602001909291908035151590602001909291905050506116c1565b005b6108b1600480360360408110156107ee57600080fd5b810190808035906020019064010000000081111561080b57600080fd5b82018360208201111561081d57600080fd5b8035906020019184600183028401116401000000008311171561083f57600080fd5b91908080601f016020809104026020016040519081016040528093929190818152602001838380828437600081840152601f19601f820116905080830192505050505050509192919290803573ffffffffffffffffffffffffffffffffffffffff169060200190929190505050611864565b604051808215151515815260200191505060405180910390f35b6109ce600480360360808110156108e157600080fd5b81019080803573ffffffffffffffffffffffffffffffffffffffff169060200190929190803573ffffffffffffffffffffffffffffffffffffffff169060200190929190803590602001909291908035906020019064010000000081111561094857600080fd5b82018360208201111561095a57600080fd5b8035906020019184600183028401116401000000008311171561097c57600080fd5b91908080601f016020809104026020016040519081016040528093929190818152602001838380828437600081840152601f19601f820116905080830192505050505050509192919290505050611c48565b005b610a32600480360360408110156109e657600080fd5b81019080803573ffffffffffffffffffffffffffffffffffffffff169060200190929190803573ffffffffffffffffffffffffffffffffffffffff169060200190929190505050611cba565b604051808215151515815260200191505060405180910390f35b610a7860048036036020811015610a6257600080fd5b8101908080359060200190929190505050611d4e565b6040518080602001846001811115610a8c57fe5b60ff168152602001838152602001828103825285818151815260200191508051906020019080838360005b83811015610ad2578082015181840152602081019050610ab7565b50505050905090810190601f168015610aff5780820380516001836020036101000a031916815260200191505b5094505050505060405180910390f35b610b4560048036036040811015610b2557600080fd5b810190808035906020019092919080359060200190929190505050611e1d565b005b6000806000837bffffffffffffffffffffffffffffffffffffffffffffffffffffffff19167bffffffffffffffffffffffffffffffffffffffffffffffffffffffff1916815260200190815260200160002060009054906101000a900460ff169050919050565b6000610bb982611f5a565b610c0e576040517f08c379a000000000000000000000000000000000000000000000000000000000815260040180806020018281038252602c815260200180612a9c602c913960400191505060405180910390fd5b6002600083815260200190815260200160002060009054906101000a900473ffffffffffffffffffffffffffffffffffffffff169050919050565b6000610c5482611352565b90508073ffffffffffffffffffffffffffffffffffffffff168373ffffffffffffffffffffffffffffffffffffffff161415610cdb576040517f08c379a0000000000000000000000000000000000000000000000000000000008152600401808060200182810382526021815260200180612af16021913960400191505060405180910390fd5b8073ffffffffffffffffffffffffffffffffffffffff163373ffffffffffffffffffffffffffffffffffffffff161480610d1b5750610d1a8133611cba565b5b610d70576040517f08c379a0000000000000000000000000000000000000000000000000000000008152600401808060200182810382526038815260200180612a116038913960400191505060405180910390fd5b826002600084815260200190815260200160002060006101000a81548173ffffffffffffffffffffffffffffffffffffffff021916908373ffffffffffffffffffffffffffffffffffffffff160217905550818373ffffffffffffffffffffffffffffffffffffffff168273ffffffffffffffffffffffffffffffffffffffff167f8c5be1e5ebec7d5bd14f71427d1e84f3dd0314c0f7b2291e5b200ac8c7c3b92560405160405180910390a4505050565b6060600080610e2f6128bd565b60066000868152602001908152602001600020604051806060016040529081600082018054600181600116156101000203166002900480601f016020809104026020016040519081016040528092919081815260200182805460018160011615610100020316600290048015610ee65780601f10610ebb57610100808354040283529160200191610ee6565b820191906000526020600020905b815481529060010190602001808311610ec957829003601f168201915b505050505081526020016001820160009054906101000a900460ff166001811115610f0d57fe5b6001811115610f1857fe5b81526020016002820154815250509050806000015181602001518260400151829250935093509350509193909250565b610f523382611fcc565b610fa7576040517f08c379a0000000000000000000000000000000000000000000000000000000008152600401808060200182810382526031815260200180612b126031913960400191505060405180910390fd5b610fb28383836120c0565b505050565b81336000610fc58383611864565b90506000151581151514611041576040517f08c379a000000000000000000000000000000000000000000000000000000000815260040180806020018281038252601f8152602001807f54686973204962616e20697320616c726561647920726567697374657265640081525060200191505060405180910390fd5b600160056000828254019250508190555084600660006005548152602001908152602001600020600001908051906020019061107e9291906128e9565b508360066000600554815260200190815260200160002060010160006101000a81548160ff021916908360018111156110b357fe5b02179055506110c43360055461231b565b7f2039a4d5c1e27ac7d9d3cc655a56de33da1f7d48737a40672c6984edd718c6f233600554600660006005548152602001908152602001600020600001604051808473ffffffffffffffffffffffffffffffffffffffff1673ffffffffffffffffffffffffffffffffffffffff168152602001838152602001806020018281038252838181546001816001161561010002031660029004815260200191508054600181600116156101000203166002900480156111c25780601f10611197576101008083540402835291602001916111c2565b820191906000526020600020905b8154815290600101906020018083116111a557829003601f168201915b505094505050505060405180910390a15050505050565b600080600190505b600554811161130757826040516020018082805190602001908083835b6020831061122157805182526020820191506020810190506020830392506111fe565b6001836020036101000a038019825116818451168082178552505050505050905001915050604051602081830303815290604052805190602001206006600083815260200190815260200160002060000160405160200180828054600181600116156101000203166002900480156112d05780601f106112ae5761010080835404028352918201916112d0565b820191906000526020600020905b8154815290600101906020018083116112bc575b50509150506040516020818303038152906040528051906020012014156112fa578091505061130d565b80806001019150506111e1565b50600090505b919050565b600060066000838152602001908152602001600020600201549050919050565b61134d83838360405180602001604052806000815250611c48565b505050565b6000806001600084815260200190815260200160002060009054906101000a900473ffffffffffffffffffffffffffffffffffffffff169050600073ffffffffffffffffffffffffffffffffffffffff168173ffffffffffffffffffffffffffffffffffffffff161415611411576040517f08c379a0000000000000000000000000000000000000000000000000000000008152600401808060200182810382526029815260200180612a736029913960400191505060405180910390fd5b80915050919050565b60008073ffffffffffffffffffffffffffffffffffffffff168273ffffffffffffffffffffffffffffffffffffffff1614156114a1576040517f08c379a000000000000000000000000000000000000000000000000000000000815260040180806020018281038252602a815260200180612a49602a913960400191505060405180910390fd5b6114e8600360008473ffffffffffffffffffffffffffffffffffffffff1673ffffffffffffffffffffffffffffffffffffffff168152602001908152602001600020612533565b9050919050565b6060816114fb81611352565b73ffffffffffffffffffffffffffffffffffffffff163373ffffffffffffffffffffffffffffffffffffffff161461159b576040517f08c379a00000000000000000000000000000000000000000000000000000000081526004018080602001828103825260208152602001807f4f6e6c792074686520746f6b656e206f776e65722063616e206163636573732181525060200191505060405180910390fd5b600660008481526020019081526020016000206000018054600181600116156101000203166002900480601f0160208091040260200160405190810160405280929190818152602001828054600181600116156101000203166002900480156116455780601f1061161a57610100808354040283529160200191611645565b820191906000526020600020905b81548152906001019060200180831161162857829003601f168201915b5050505050915050919050565b600080600190505b60055481116116b6578273ffffffffffffffffffffffffffffffffffffffff1661168382611352565b73ffffffffffffffffffffffffffffffffffffffff1614156116a95760019150506116bc565b808060010191505061165a565b50600090505b919050565b3373ffffffffffffffffffffffffffffffffffffffff168273ffffffffffffffffffffffffffffffffffffffff161415611763576040517f08c379a00000000000000000000000000000000000000000000000000000000081526004018080602001828103825260198152602001807f4552433732313a20617070726f766520746f2063616c6c65720000000000000081525060200191505060405180910390fd5b80600460003373ffffffffffffffffffffffffffffffffffffffff1673ffffffffffffffffffffffffffffffffffffffff16815260200190815260200160002060008473ffffffffffffffffffffffffffffffffffffffff1673ffffffffffffffffffffffffffffffffffffffff16815260200190815260200160002060006101000a81548160ff0219169083151502179055508173ffffffffffffffffffffffffffffffffffffffff163373ffffffffffffffffffffffffffffffffffffffff167f17307eab39ab6107e8899845ad3d59bd9653f200f220920489ca2b5937696c3183604051808215151515815260200191505060405180910390a35050565b60008060055414611c3d576000600190505b6005548111611c3357836040516020018082805190602001908083835b602083106118b65780518252602082019150602081019050602083039250611893565b6001836020036101000a038019825116818451168082178552505050505050905001915050604051602081830303815290604052805190602001206006600083815260200190815260200160002060000160405160200180828054600181600116156101000203166002900480156119655780601f10611943576101008083540402835291820191611965565b820191906000526020600020905b815481529060010190602001808311611951575b5050915050604051602081830303815290604052805190602001201415611c26578273ffffffffffffffffffffffffffffffffffffffff166119a682611352565b73ffffffffffffffffffffffffffffffffffffffff161415611ad6577fad483775b861dbed26dbd8e253c9ca9c34b023862eac0ba3874b63524d03fd71838260066000858152602001908152602001600020600001604051808473ffffffffffffffffffffffffffffffffffffffff1673ffffffffffffffffffffffffffffffffffffffff16815260200183815260200180602001828103825283818154600181600116156101000203166002900481526020019150805460018160011615610100020316600290048015611abc5780601f10611a9157610100808354040283529160200191611abc565b820191906000526020600020905b815481529060010190602001808311611a9f57829003601f168201915b505094505050505060405180910390a16001915050611c42565b7f5cf6086df19562b35294a36ebd9a4a981755d5155fb18a687bfad5dc75bb1d6a611b0082611352565b848360066000868152602001908152602001600020600001604051808573ffffffffffffffffffffffffffffffffffffffff1673ffffffffffffffffffffffffffffffffffffffff1681526020018473ffffffffffffffffffffffffffffffffffffffff1673ffffffffffffffffffffffffffffffffffffffff16815260200183815260200180602001828103825283818154600181600116156101000203166002900481526020019150805460018160011615610100020316600290048015611c0b5780601f10611be057610100808354040283529160200191611c0b565b820191906000526020600020905b815481529060010190602001808311611bee57829003601f168201915b50509550505050505060405180910390a16001915050611c42565b8080600101915050611876565b5060009050611c42565b600090505b92915050565b611c53848484610f48565b611c5f84848484612541565b611cb4576040517f08c379a000000000000000000000000000000000000000000000000000000000815260040180806020018281038252603281526020018061298f6032913960400191505060405180910390fd5b50505050565b6000600460008473ffffffffffffffffffffffffffffffffffffffff1673ffffffffffffffffffffffffffffffffffffffff16815260200190815260200160002060008373ffffffffffffffffffffffffffffffffffffffff1673ffffffffffffffffffffffffffffffffffffffff16815260200190815260200160002060009054906101000a900460ff16905092915050565b6006602052806000526040600020600091509050806000018054600181600116156101000203166002900480601f016020809104026020016040519081016040528092919081815260200182805460018160011615610100020316600290048015611dfa5780601f10611dcf57610100808354040283529160200191611dfa565b820191906000526020600020905b815481529060010190602001808311611ddd57829003601f168201915b5050505050908060010160009054906101000a900460ff16908060020154905083565b81611e2781611352565b73ffffffffffffffffffffffffffffffffffffffff163373ffffffffffffffffffffffffffffffffffffffff1614611ec7576040517f08c379a00000000000000000000000000000000000000000000000000000000081526004018080602001828103825260208152602001807f4f6e6c792074686520746f6b656e206f776e65722063616e206163636573732181525060200191505060405180910390fd5b8160066000858152602001908152602001600020600201819055507f59ccf961b5aa1967adac68ef1caa1f18f9a42ddbf404019403ce2df875d793a6338484604051808473ffffffffffffffffffffffffffffffffffffffff1673ffffffffffffffffffffffffffffffffffffffff168152602001838152602001828152602001935050505060405180910390a1505050565b6000806001600084815260200190815260200160002060009054906101000a900473ffffffffffffffffffffffffffffffffffffffff169050600073ffffffffffffffffffffffffffffffffffffffff168173ffffffffffffffffffffffffffffffffffffffff161415915050919050565b6000611fd782611f5a565b61202c576040517f08c379a000000000000000000000000000000000000000000000000000000000815260040180806020018281038252602c8152602001806129e5602c913960400191505060405180910390fd5b600061203783611352565b90508073ffffffffffffffffffffffffffffffffffffffff168473ffffffffffffffffffffffffffffffffffffffff1614806120a657508373ffffffffffffffffffffffffffffffffffffffff1661208e84610bae565b73ffffffffffffffffffffffffffffffffffffffff16145b806120b757506120b68185611cba565b5b91505092915050565b8273ffffffffffffffffffffffffffffffffffffffff166120e082611352565b73ffffffffffffffffffffffffffffffffffffffff161461214c576040517f08c379a0000000000000000000000000000000000000000000000000000000008152600401808060200182810382526029815260200180612ac86029913960400191505060405180910390fd5b600073ffffffffffffffffffffffffffffffffffffffff168273ffffffffffffffffffffffffffffffffffffffff1614156121d2576040517f08c379a00000000000000000000000000000000000000000000000000000000081526004018080602001828103825260248152602001806129c16024913960400191505060405180910390fd5b6121db8161272a565b612222600360008573ffffffffffffffffffffffffffffffffffffffff1673ffffffffffffffffffffffffffffffffffffffff1681526020019081526020016000206127e8565b612269600360008473ffffffffffffffffffffffffffffffffffffffff1673ffffffffffffffffffffffffffffffffffffffff16815260200190815260200160002061280b565b816001600083815260200190815260200160002060006101000a81548173ffffffffffffffffffffffffffffffffffffffff021916908373ffffffffffffffffffffffffffffffffffffffff160217905550808273ffffffffffffffffffffffffffffffffffffffff168473ffffffffffffffffffffffffffffffffffffffff167fddf252ad1be2c89b69c2b068fc378daa952ba7f163c4a11628f55a4df523b3ef60405160405180910390a4505050565b600073ffffffffffffffffffffffffffffffffffffffff168273ffffffffffffffffffffffffffffffffffffffff1614156123be576040517f08c379a00000000000000000000000000000000000000000000000000000000081526004018080602001828103825260208152602001807f4552433732313a206d696e7420746f20746865207a65726f206164647265737381525060200191505060405180910390fd5b6123c781611f5a565b1561243a576040517f08c379a000000000000000000000000000000000000000000000000000000000815260040180806020018281038252601c8152602001807f4552433732313a20746f6b656e20616c7265616479206d696e7465640000000081525060200191505060405180910390fd5b816001600083815260200190815260200160002060006101000a81548173ffffffffffffffffffffffffffffffffffffffff021916908373ffffffffffffffffffffffffffffffffffffffff1602179055506124d3600360008473ffffffffffffffffffffffffffffffffffffffff1673ffffffffffffffffffffffffffffffffffffffff16815260200190815260200160002061280b565b808273ffffffffffffffffffffffffffffffffffffffff16600073ffffffffffffffffffffffffffffffffffffffff167fddf252ad1be2c89b69c2b068fc378daa952ba7f163c4a11628f55a4df523b3ef60405160405180910390a45050565b600081600001549050919050565b60006125628473ffffffffffffffffffffffffffffffffffffffff16612821565b61256f5760019050612722565b60008473ffffffffffffffffffffffffffffffffffffffff1663150b7a02338887876040518563ffffffff1660e01b8152600401808573ffffffffffffffffffffffffffffffffffffffff1673ffffffffffffffffffffffffffffffffffffffff1681526020018473ffffffffffffffffffffffffffffffffffffffff1673ffffffffffffffffffffffffffffffffffffffff16815260200183815260200180602001828103825283818151815260200191508051906020019080838360005b8381101561264a57808201518184015260208101905061262f565b50505050905090810190601f1680156126775780820380516001836020036101000a031916815260200191505b5095505050505050602060405180830381600087803b15801561269957600080fd5b505af11580156126ad573d6000803e3d6000fd5b505050506040513d60208110156126c357600080fd5b8101908080519060200190929190505050905063150b7a0260e01b7bffffffffffffffffffffffffffffffffffffffffffffffffffffffff1916817bffffffffffffffffffffffffffffffffffffffffffffffffffffffff1916149150505b949350505050565b600073ffffffffffffffffffffffffffffffffffffffff166002600083815260200190815260200160002060009054906101000a900473ffffffffffffffffffffffffffffffffffffffff1673ffffffffffffffffffffffffffffffffffffffff16146127e55760006002600083815260200190815260200160002060006101000a81548173ffffffffffffffffffffffffffffffffffffffff021916908373ffffffffffffffffffffffffffffffffffffffff1602179055505b50565b6128006001826000015461283490919063ffffffff16565b816000018190555050565b6001816000016000828254019250508190555050565b600080823b905060008111915050919050565b6000828211156128ac576040517f08c379a000000000000000000000000000000000000000000000000000000000815260040180806020018281038252601e8152602001807f536166654d6174683a207375627472616374696f6e206f766572666c6f77000081525060200191505060405180910390fd5b600082840390508091505092915050565b604051806060016040528060608152602001600060018111156128dc57fe5b8152602001600081525090565b828054600181600116156101000203166002900490600052602060002090601f016020900481019282601f1061292a57805160ff1916838001178555612958565b82800160010185558215612958579182015b8281111561295757825182559160200191906001019061293c565b5b5090506129659190612969565b5090565b61298b91905b8082111561298757600081600090555060010161296f565b5090565b9056fe4552433732313a207472616e7366657220746f206e6f6e20455243373231526563656976657220696d706c656d656e7465724552433732313a207472616e7366657220746f20746865207a65726f20616464726573734552433732313a206f70657261746f7220717565727920666f72206e6f6e6578697374656e7420746f6b656e4552433732313a20617070726f76652063616c6c6572206973206e6f74206f776e6572206e6f7220617070726f76656420666f7220616c6c4552433732313a2062616c616e636520717565727920666f7220746865207a65726f20616464726573734552433732313a206f776e657220717565727920666f72206e6f6e6578697374656e7420746f6b656e4552433732313a20617070726f76656420717565727920666f72206e6f6e6578697374656e7420746f6b656e4552433732313a207472616e73666572206f6620746f6b656e2074686174206973206e6f74206f776e4552433732313a20617070726f76616c20746f2063757272656e74206f776e65724552433732313a207472616e736665722063616c6c6572206973206e6f74206f776e6572206e6f7220617070726f766564a165627a7a723058206b12d5354373e1365519db8e2db32da238e5ffae98b0152553c532a74523d02c0029",
  "source": "pragma solidity ^0.5.5;\r\n\r\nimport \"node_modules/openzeppelin-solidity/contracts/token/ERC721/ERC721.sol\";\r\n\r\ncontract BAT is ERC721 {\r\n\r\n    enum Currency { EUR, USD }\r\n\r\n    struct BankAccount {\r\n        string iban;\r\n        Currency currencyCode;\r\n        int currentBalance;\r\n    }\r\n\r\n    uint lastTokenId;\r\n\r\n    mapping(uint256 => BankAccount) public accounts;\r\n\r\n    /*TO DO\r\n    * Add a function to know if an IBAN is from the current sender or it's owned by another\r\n    * account and the send the events*/\r\n\r\n    modifier onlyIfIbanDidNotExist(string memory _iban, address _owner) {\r\n        bool check = checkIbanAlreadyExist(_iban,_owner);\r\n        require(\r\n            check == false,\r\n            \"This Iban is already registered\"\r\n        );\r\n        _;\r\n    }\r\n\r\n    modifier onlyOwner(uint _tokenID) {\r\n        require (\r\n            msg.sender == ownerOf(_tokenID),\r\n            \"Only the token owner can access!\");\r\n        _;\r\n    }\r\n\r\n    event bankAccountCreated (\r\n        address owner,\r\n        uint tokenID,\r\n        string iban);\r\n\r\n    event bankAccountAlreadyCreated (\r\n        address owner,\r\n        uint tokenID,\r\n        string iban);\r\n\r\n    event bankAccountOwnedByOther (\r\n        address realOwner,\r\n        address userThatSendRequest,\r\n        uint tokenID,\r\n        string iban);\r\n\r\n    event balanceUpdated (\r\n        address owner,\r\n        uint tokenID,\r\n        int _newBalance);\r\n\r\n    function checkIbanAlreadyExist (string memory _iban, address _owner) public returns (bool){\r\n        if (lastTokenId != 0){\r\n            for (uint i=1; i<=lastTokenId; i++){\r\n                if (keccak256(abi.encodePacked((accounts[i].iban))) == keccak256(abi.encodePacked((_iban)))){\r\n                    if (ownerOf(i) == _owner){\r\n                        emit bankAccountAlreadyCreated(_owner,i,accounts[i].iban);\r\n                        return true;\r\n                    }else{\r\n                        emit bankAccountOwnedByOther(ownerOf(i),_owner,i,accounts[i].iban);\r\n                        return true;\r\n                    }\r\n                }\r\n            }\r\n            return false;\r\n        }\r\n        return false;\r\n    }\r\n\r\n    function createBankAccount(string memory _iban, Currency _currencyCode) onlyIfIbanDidNotExist(_iban, msg.sender) public {\r\n        lastTokenId += 1;\r\n\r\n        accounts[lastTokenId].iban = _iban;\r\n        accounts[lastTokenId].currencyCode = _currencyCode;\r\n\r\n        _mint(msg.sender, lastTokenId);\r\n\r\n        emit bankAccountCreated(msg.sender, lastTokenId, accounts[lastTokenId].iban);\r\n    }\r\n\r\n    function getBankAccount(uint _id) view public returns(string memory, Currency, int) {\r\n        BankAccount memory acc = accounts[_id];\r\n        return(acc.iban, acc.currencyCode, acc.currentBalance);\r\n    }\r\n\r\n    function getAccountBalance (uint _id) view public returns (int) {\r\n        return (accounts[_id].currentBalance);\r\n    }\r\n\r\n    function getAccountIBAN (uint _id) view onlyOwner(_id) public returns (string memory) {\r\n        return (accounts[_id].iban);\r\n    }\r\n\r\n    function SetBankAccountBalance(uint _id, int _newBalance) onlyOwner(_id) public {\r\n        accounts[_id].currentBalance = _newBalance;\r\n        emit balanceUpdated (msg.sender, _id, _newBalance);\r\n    }\r\n\r\n    function checkIfTokenExistForGivenAddress (address _account) view public returns (bool){\r\n        for (uint i=1; i<=lastTokenId; i++){\r\n            if (ownerOf(i) == _account){\r\n                return true;\r\n            }\r\n        }\r\n        return false;\r\n    }\r\n\r\n    function returnIdGivenIBAN (string memory _iban)view public returns (uint){\r\n        // if (checkIfTokenExistForGivenAddress(msg.sender)){\r\n        for (uint i=1; i<=lastTokenId; i++){\r\n            if (keccak256(abi.encodePacked((accounts[i].iban))) == keccak256(abi.encodePacked((_iban)))){\r\n                return i;\r\n            }\r\n        }\r\n        // }\r\n        return 0;\r\n    }\r\n//    TO DO\r\n//    Function that returns the token list owned by a specified address\r\n//    function getAllTokenByOwnerAddress(address _owner) public returns (uint[]){\r\n//        uint[] listOfTokens;\r\n//        uint currentIndex = 0;\r\n//        for (uint i=1; i<lastTokenId; i++){\r\n//            if (ownerOf(i) == _owner){\r\n//                listOfTokens[currentIndex] == i;\r\n//                currentIndex++;\r\n//            }\r\n//        }\r\n//        return listOfTokens;\r\n//    }\r\n\r\n//  TO DO\r\n//  function getTheOverallBalance (address _owner) public returns (uint){\r\n//      int totalBalance;\r\n//      int[] tokens = getAllTokenByOwnerAddress(_owner);\r\n//      for (uint i=0; i<tokens.length; i++){\r\n//          totalBalance += accounts[tokens[i]].balance;\r\n//      }\r\n//      return totalBalance;\r\n//  }\r\n\r\n}",
  "sourcePath": "C:/Users/hackro/Desktop/Dtpp_AISP_project/contracts/BAT.sol",
  "compiler": {
    "name": "solc",
    "version": "0.5.8+commit.23d335f2.Emscripten.clang"
  },
  "schemaVersion": "3.0.16",
  "updatedAt": "2019-11-15T15:39:48.704Z",
  "devdoc": {
    "methods": {
      "approve(address,uint256)": {
        "details": "Approves another address to transfer the given token ID The zero address indicates there is no approved address. There can only be one approved address per token at a given time. Can only be called by the token owner or an approved operator.",
        "params": {
          "to": "address to be approved for the given token ID",
          "tokenId": "uint256 ID of the token to be approved"
        }
      },
      "balanceOf(address)": {
        "details": "Gets the balance of the specified address.",
        "params": {
          "owner": "address to query the balance of"
        },
        "return": "uint256 representing the amount owned by the passed address"
      },
      "getApproved(uint256)": {
        "details": "Gets the approved address for a token ID, or zero if no address set Reverts if the token ID does not exist.",
        "params": {
          "tokenId": "uint256 ID of the token to query the approval of"
        },
        "return": "address currently approved for the given token ID"
      },
      "isApprovedForAll(address,address)": {
        "details": "Tells whether an operator is approved by a given owner.",
        "params": {
          "operator": "operator address which you want to query the approval of",
          "owner": "owner address which you want to query the approval of"
        },
        "return": "bool whether the given operator is approved by the given owner"
      },
      "ownerOf(uint256)": {
        "details": "Gets the owner of the specified token ID.",
        "params": {
          "tokenId": "uint256 ID of the token to query the owner of"
        },
        "return": "address currently marked as the owner of the given token ID"
      },
      "safeTransferFrom(address,address,uint256)": {
        "details": "Safely transfers the ownership of a given token ID to another address If the target address is a contract, it must implement `onERC721Received`, which is called upon a safe transfer, and return the magic value `bytes4(keccak256(\"onERC721Received(address,address,uint256,bytes)\"))`; otherwise, the transfer is reverted. Requires the msg.sender to be the owner, approved, or operator",
        "params": {
          "from": "current owner of the token",
          "to": "address to receive the ownership of the given token ID",
          "tokenId": "uint256 ID of the token to be transferred"
        }
      },
      "safeTransferFrom(address,address,uint256,bytes)": {
        "details": "Safely transfers the ownership of a given token ID to another address If the target address is a contract, it must implement `onERC721Received`, which is called upon a safe transfer, and return the magic value `bytes4(keccak256(\"onERC721Received(address,address,uint256,bytes)\"))`; otherwise, the transfer is reverted. Requires the msg.sender to be the owner, approved, or operator",
        "params": {
          "_data": "bytes data to send along with a safe transfer check",
          "from": "current owner of the token",
          "to": "address to receive the ownership of the given token ID",
          "tokenId": "uint256 ID of the token to be transferred"
        }
      },
      "setApprovalForAll(address,bool)": {
        "details": "Sets or unsets the approval of a given operator An operator is allowed to transfer all tokens of the sender on their behalf.",
        "params": {
          "approved": "representing the status of the approval to be set",
          "to": "operator address to set the approval"
        }
      },
      "supportsInterface(bytes4)": {
        "details": "See `IERC165.supportsInterface`.     * Time complexity O(1), guaranteed to always use less than 30 000 gas."
      },
      "transferFrom(address,address,uint256)": {
        "details": "Transfers the ownership of a given token ID to another address. Usage of this method is discouraged, use `safeTransferFrom` whenever possible. Requires the msg.sender to be the owner, approved, or operator.",
        "params": {
          "from": "current owner of the token",
          "to": "address to receive the ownership of the given token ID",
          "tokenId": "uint256 ID of the token to be transferred"
        }
      }
    }
  },
  "userdoc": {
    "methods": {}
  }
}