{
  "contractName": "BAT",
  "abi": [
    {
      "constant": true,
      "inputs": [
        {
          "name": "interfaceId",
          "type": "bytes4"
        }
      ],
      "name": "supportsInterface",
      "outputs": [
        {
          "name": "",
          "type": "bool"
        }
      ],
      "payable": false,
      "stateMutability": "view",
      "type": "function"
    },
    {
      "constant": true,
      "inputs": [
        {
          "name": "tokenId",
          "type": "uint256"
        }
      ],
      "name": "getApproved",
      "outputs": [
        {
          "name": "",
          "type": "address"
        }
      ],
      "payable": false,
      "stateMutability": "view",
      "type": "function"
    },
    {
      "constant": false,
      "inputs": [
        {
          "name": "to",
          "type": "address"
        },
        {
          "name": "tokenId",
          "type": "uint256"
        }
      ],
      "name": "approve",
      "outputs": [],
      "payable": false,
      "stateMutability": "nonpayable",
      "type": "function"
    },
    {
      "constant": false,
      "inputs": [
        {
          "name": "from",
          "type": "address"
        },
        {
          "name": "to",
          "type": "address"
        },
        {
          "name": "tokenId",
          "type": "uint256"
        }
      ],
      "name": "transferFrom",
      "outputs": [],
      "payable": false,
      "stateMutability": "nonpayable",
      "type": "function"
    },
    {
      "constant": false,
      "inputs": [
        {
          "name": "from",
          "type": "address"
        },
        {
          "name": "to",
          "type": "address"
        },
        {
          "name": "tokenId",
          "type": "uint256"
        }
      ],
      "name": "safeTransferFrom",
      "outputs": [],
      "payable": false,
      "stateMutability": "nonpayable",
      "type": "function"
    },
    {
      "constant": true,
      "inputs": [
        {
          "name": "tokenId",
          "type": "uint256"
        }
      ],
      "name": "ownerOf",
      "outputs": [
        {
          "name": "",
          "type": "address"
        }
      ],
      "payable": false,
      "stateMutability": "view",
      "type": "function"
    },
    {
      "constant": true,
      "inputs": [
        {
          "name": "owner",
          "type": "address"
        }
      ],
      "name": "balanceOf",
      "outputs": [
        {
          "name": "",
          "type": "uint256"
        }
      ],
      "payable": false,
      "stateMutability": "view",
      "type": "function"
    },
    {
      "constant": false,
      "inputs": [
        {
          "name": "to",
          "type": "address"
        },
        {
          "name": "approved",
          "type": "bool"
        }
      ],
      "name": "setApprovalForAll",
      "outputs": [],
      "payable": false,
      "stateMutability": "nonpayable",
      "type": "function"
    },
    {
      "constant": false,
      "inputs": [
        {
          "name": "from",
          "type": "address"
        },
        {
          "name": "to",
          "type": "address"
        },
        {
          "name": "tokenId",
          "type": "uint256"
        },
        {
          "name": "_data",
          "type": "bytes"
        }
      ],
      "name": "safeTransferFrom",
      "outputs": [],
      "payable": false,
      "stateMutability": "nonpayable",
      "type": "function"
    },
    {
      "constant": true,
      "inputs": [
        {
          "name": "owner",
          "type": "address"
        },
        {
          "name": "operator",
          "type": "address"
        }
      ],
      "name": "isApprovedForAll",
      "outputs": [
        {
          "name": "",
          "type": "bool"
        }
      ],
      "payable": false,
      "stateMutability": "view",
      "type": "function"
    },
    {
      "anonymous": false,
      "inputs": [
        {
          "indexed": false,
          "name": "owner",
          "type": "address"
        },
        {
          "indexed": false,
          "name": "tokenID",
          "type": "uint256"
        },
        {
          "indexed": false,
          "name": "iban",
          "type": "string"
        }
      ],
      "name": "bankAccountCreated",
      "type": "event"
    },
    {
      "anonymous": false,
      "inputs": [
        {
          "indexed": false,
          "name": "owner",
          "type": "address"
        },
        {
          "indexed": false,
          "name": "tokenID",
          "type": "uint256"
        },
        {
          "indexed": false,
          "name": "iban",
          "type": "string"
        }
      ],
      "name": "bankAccountAlreadyCreated",
      "type": "event"
    },
    {
      "anonymous": false,
      "inputs": [
        {
          "indexed": false,
          "name": "realOwner",
          "type": "address"
        },
        {
          "indexed": false,
          "name": "userThatSendRequest",
          "type": "address"
        },
        {
          "indexed": false,
          "name": "tokenID",
          "type": "uint256"
        },
        {
          "indexed": false,
          "name": "iban",
          "type": "string"
        }
      ],
      "name": "bankAccountOwnedByOther",
      "type": "event"
    },
    {
      "anonymous": false,
      "inputs": [
        {
          "indexed": false,
          "name": "owner",
          "type": "address"
        },
        {
          "indexed": false,
          "name": "tokenID",
          "type": "uint256"
        },
        {
          "indexed": false,
          "name": "_newBalance",
          "type": "int256"
        }
      ],
      "name": "balanceUpdated",
      "type": "event"
    },
    {
      "anonymous": false,
      "inputs": [
        {
          "indexed": true,
          "name": "from",
          "type": "address"
        },
        {
          "indexed": true,
          "name": "to",
          "type": "address"
        },
        {
          "indexed": true,
          "name": "tokenId",
          "type": "uint256"
        }
      ],
      "name": "Transfer",
      "type": "event"
    },
    {
      "anonymous": false,
      "inputs": [
        {
          "indexed": true,
          "name": "owner",
          "type": "address"
        },
        {
          "indexed": true,
          "name": "approved",
          "type": "address"
        },
        {
          "indexed": true,
          "name": "tokenId",
          "type": "uint256"
        }
      ],
      "name": "Approval",
      "type": "event"
    },
    {
      "anonymous": false,
      "inputs": [
        {
          "indexed": true,
          "name": "owner",
          "type": "address"
        },
        {
          "indexed": true,
          "name": "operator",
          "type": "address"
        },
        {
          "indexed": false,
          "name": "approved",
          "type": "bool"
        }
      ],
      "name": "ApprovalForAll",
      "type": "event"
    },
    {
      "constant": false,
      "inputs": [
        {
          "name": "_iban",
          "type": "string"
        },
        {
          "name": "_owner",
          "type": "address"
        }
      ],
      "name": "checkIbanAlreadyExist",
      "outputs": [
        {
          "name": "",
          "type": "bool"
        }
      ],
      "payable": false,
      "stateMutability": "nonpayable",
      "type": "function"
    },
    {
      "constant": false,
      "inputs": [
        {
          "name": "_iban",
          "type": "string"
        },
        {
          "name": "_currencyCode",
          "type": "string"
        },
        {
          "name": "_balance",
          "type": "int256"
        }
      ],
      "name": "createBankAccount",
      "outputs": [],
      "payable": false,
      "stateMutability": "nonpayable",
      "type": "function"
    },
    {
      "constant": true,
      "inputs": [
        {
          "name": "_id",
          "type": "uint256"
        }
      ],
      "name": "getBankAccount",
      "outputs": [
        {
          "name": "",
          "type": "string"
        },
        {
          "name": "",
          "type": "string"
        },
        {
          "name": "",
          "type": "int256"
        },
        {
          "name": "",
          "type": "uint256"
        },
        {
          "name": "",
          "type": "address"
        }
      ],
      "payable": false,
      "stateMutability": "view",
      "type": "function"
    },
    {
      "constant": true,
      "inputs": [
        {
          "name": "_id",
          "type": "uint256"
        }
      ],
      "name": "getCurrencyCode",
      "outputs": [
        {
          "name": "",
          "type": "string"
        }
      ],
      "payable": false,
      "stateMutability": "view",
      "type": "function"
    },
    {
      "constant": true,
      "inputs": [
        {
          "name": "_id",
          "type": "uint256"
        }
      ],
      "name": "getAccountBalance",
      "outputs": [
        {
          "name": "",
          "type": "int256"
        }
      ],
      "payable": false,
      "stateMutability": "view",
      "type": "function"
    },
    {
      "constant": true,
      "inputs": [
        {
          "name": "_id",
          "type": "uint256"
        }
      ],
      "name": "getAccountIBAN",
      "outputs": [
        {
          "name": "",
          "type": "string"
        }
      ],
      "payable": false,
      "stateMutability": "view",
      "type": "function"
    },
    {
      "constant": false,
      "inputs": [
        {
          "name": "_id",
          "type": "uint256"
        },
        {
          "name": "_newBalance",
          "type": "int256"
        }
      ],
      "name": "SetBankAccountBalance",
      "outputs": [],
      "payable": false,
      "stateMutability": "nonpayable",
      "type": "function"
    },
    {
      "constant": true,
      "inputs": [
        {
          "name": "_account",
          "type": "address"
        }
      ],
      "name": "checkIfTokenExistForGivenAddress",
      "outputs": [
        {
          "name": "",
          "type": "bool"
        }
      ],
      "payable": false,
      "stateMutability": "view",
      "type": "function"
    },
    {
      "constant": true,
      "inputs": [
        {
          "name": "_iban",
          "type": "string"
        },
        {
          "name": "_account",
          "type": "address"
        }
      ],
      "name": "checkIfTokenExistGivenIbanAndOwner",
      "outputs": [
        {
          "name": "",
          "type": "bool"
        }
      ],
      "payable": false,
      "stateMutability": "view",
      "type": "function"
    },
    {
      "constant": true,
      "inputs": [
        {
          "name": "_iban",
          "type": "string"
        }
      ],
      "name": "returnIdGivenIBAN",
      "outputs": [
        {
          "name": "",
          "type": "uint256"
        }
      ],
      "payable": false,
      "stateMutability": "view",
      "type": "function"
    },
    {
      "constant": true,
      "inputs": [
        {
          "name": "_owner",
          "type": "address"
        }
      ],
      "name": "getAllTokenByOwnerAddress",
      "outputs": [
        {
          "name": "",
          "type": "uint256[]"
        }
      ],
      "payable": false,
      "stateMutability": "view",
      "type": "function"
    },
    {
      "constant": true,
      "inputs": [
        {
          "name": "_owner",
          "type": "address"
        }
      ],
      "name": "getOverallBalance",
      "outputs": [
        {
          "name": "",
          "type": "int256"
        }
      ],
      "payable": false,
      "stateMutability": "view",
      "type": "function"
    }
  ],
  "bytecode": "0x60806040526200001c6301ffc9a760e01b6200003a60201b60201c565b620000346380ac58cd60e01b6200003a60201b60201c565b62000143565b63ffffffff60e01b817bffffffffffffffffffffffffffffffffffffffffffffffffffffffff19161415620000d7576040517f08c379a000000000000000000000000000000000000000000000000000000000815260040180806020018281038252601c8152602001807f4552433136353a20696e76616c696420696e746572666163652069640000000081525060200191505060405180910390fd5b6001600080837bffffffffffffffffffffffffffffffffffffffffffffffffffffffff19167bffffffffffffffffffffffffffffffffffffffffffffffffffffffff1916815260200190815260200160002060006101000a81548160ff02191690831515021790555050565b6131a380620001536000396000f3fe608060405234801561001057600080fd5b50600436106101425760003560e01c806370a08231116100b8578063a22cb4651161007c578063a22cb465146109fd578063a36a9b3f14610a4d578063b88d4fde14610b40578063bdd7600c14610c45578063e985e9c514610da1578063ff37662314610e1d57610142565b806370a08231146107b15780637573640e14610809578063825a25b1146108b0578063889c0f121461090c5780639301f0871461096457610142565b806323b872dd1161010a57806323b872dd146104af5780633af4372a1461051d5780633d9546ee146105ec57806342842e0e1461062e57806362b6711e1461069c5780636352211e1461074357610142565b806301ffc9a714610147578063081812fc146101ac578063095ea7b31461021a5780630d3127701461026857806317fa0a0a146103bc575b600080fd5b6101926004803603602081101561015d57600080fd5b8101908080357bffffffffffffffffffffffffffffffffffffffffffffffffffffffff19169060200190929190505050610e55565b604051808215151515815260200191505060405180910390f35b6101d8600480360360208110156101c257600080fd5b8101908080359060200190929190505050610ebc565b604051808273ffffffffffffffffffffffffffffffffffffffff1673ffffffffffffffffffffffffffffffffffffffff16815260200191505060405180910390f35b6102666004803603604081101561023057600080fd5b81019080803573ffffffffffffffffffffffffffffffffffffffff16906020019092919080359060200190929190505050610f57565b005b6102946004803603602081101561027e57600080fd5b8101908080359060200190929190505050611130565b6040518080602001806020018681526020018581526020018473ffffffffffffffffffffffffffffffffffffffff1673ffffffffffffffffffffffffffffffffffffffff168152602001838103835288818151815260200191508051906020019080838360005b838110156103165780820151818401526020810190506102fb565b50505050905090810190601f1680156103435780820380516001836020036101000a031916815260200191505b50838103825287818151815260200191508051906020019080838360005b8381101561037c578082015181840152602081019050610361565b50505050905090810190601f1680156103a95780820380516001836020036101000a031916815260200191505b5097505050505050505060405180910390f35b610495600480360360408110156103d257600080fd5b81019080803590602001906401000000008111156103ef57600080fd5b82018360208201111561040157600080fd5b8035906020019184600183028401116401000000008311171561042357600080fd5b91908080601f016020809104026020016040519081016040528093929190818152602001838380828437600081840152601f19601f820116905080830192505050505050509192919290803573ffffffffffffffffffffffffffffffffffffffff1690602001909291905050506112e1565b604051808215151515815260200191505060405180910390f35b61051b600480360360608110156104c557600080fd5b81019080803573ffffffffffffffffffffffffffffffffffffffff169060200190929190803573ffffffffffffffffffffffffffffffffffffffff16906020019092919080359060200190929190505050611463565b005b6105d66004803603602081101561053357600080fd5b810190808035906020019064010000000081111561055057600080fd5b82018360208201111561056257600080fd5b8035906020019184600183028401116401000000008311171561058457600080fd5b91908080601f016020809104026020016040519081016040528093929190818152602001838380828437600081840152601f19601f8201169050808301925050505050505091929192905050506114d2565b6040518082815260200191505060405180910390f35b6106186004803603602081101561060257600080fd5b810190808035906020019092919050505061160b565b6040518082815260200191505060405180910390f35b61069a6004803603606081101561064457600080fd5b81019080803573ffffffffffffffffffffffffffffffffffffffff169060200190929190803573ffffffffffffffffffffffffffffffffffffffff1690602001909291908035906020019092919050505061162b565b005b6106c8600480360360208110156106b257600080fd5b810190808035906020019092919050505061164b565b6040518080602001828103825283818151815260200191508051906020019080838360005b838110156107085780820151818401526020810190506106ed565b50505050905090810190601f1680156107355780820380516001836020036101000a031916815260200191505b509250505060405180910390f35b61076f6004803603602081101561075957600080fd5b8101908080359060200190929190505050611703565b604051808273ffffffffffffffffffffffffffffffffffffffff1673ffffffffffffffffffffffffffffffffffffffff16815260200191505060405180910390f35b6107f3600480360360208110156107c757600080fd5b81019080803573ffffffffffffffffffffffffffffffffffffffff1690602001909291905050506117cb565b6040518082815260200191505060405180910390f35b6108356004803603602081101561081f57600080fd5b81019080803590602001909291905050506118a0565b6040518080602001828103825283818151815260200191508051906020019080838360005b8381101561087557808201518184015260208101905061085a565b50505050905090810190601f1680156108a25780820380516001836020036101000a031916815260200191505b509250505060405180910390f35b6108f2600480360360208110156108c657600080fd5b81019080803573ffffffffffffffffffffffffffffffffffffffff169060200190929190505050611a03565b604051808215151515815260200191505060405180910390f35b61094e6004803603602081101561092257600080fd5b81019080803573ffffffffffffffffffffffffffffffffffffffff169060200190929190505050611a72565b6040518082815260200191505060405180910390f35b6109a66004803603602081101561097a57600080fd5b81019080803573ffffffffffffffffffffffffffffffffffffffff169060200190929190505050611adb565b6040518080602001828103825283818151815260200191508051906020019060200280838360005b838110156109e95780820151818401526020810190506109ce565b505050509050019250505060405180910390f35b610a4b60048036036040811015610a1357600080fd5b81019080803573ffffffffffffffffffffffffffffffffffffffff169060200190929190803515159060200190929190505050611b9c565b005b610b2660048036036040811015610a6357600080fd5b8101908080359060200190640100000000811115610a8057600080fd5b820183602082011115610a9257600080fd5b80359060200191846001830284011164010000000083111715610ab457600080fd5b91908080601f016020809104026020016040519081016040528093929190818152602001838380828437600081840152601f19601f820116905080830192505050505050509192919290803573ffffffffffffffffffffffffffffffffffffffff169060200190929190505050611d3f565b604051808215151515815260200191505060405180910390f35b610c4360048036036080811015610b5657600080fd5b81019080803573ffffffffffffffffffffffffffffffffffffffff169060200190929190803573ffffffffffffffffffffffffffffffffffffffff1690602001909291908035906020019092919080359060200190640100000000811115610bbd57600080fd5b820183602082011115610bcf57600080fd5b80359060200191846001830284011164010000000083111715610bf157600080fd5b91908080601f016020809104026020016040519081016040528093929190818152602001838380828437600081840152601f19601f820116905080830192505050505050509192919290505050612123565b005b610d9f60048036036060811015610c5b57600080fd5b8101908080359060200190640100000000811115610c7857600080fd5b820183602082011115610c8a57600080fd5b80359060200191846001830284011164010000000083111715610cac57600080fd5b91908080601f016020809104026020016040519081016040528093929190818152602001838380828437600081840152601f19601f82011690508083019250505050505050919291929080359060200190640100000000811115610d0f57600080fd5b820183602082011115610d2157600080fd5b80359060200191846001830284011164010000000083111715610d4357600080fd5b91908080601f016020809104026020016040519081016040528093929190818152602001838380828437600081840152601f19601f82011690508083019250505050505050919291929080359060200190929190505050612195565b005b610e0360048036036040811015610db757600080fd5b81019080803573ffffffffffffffffffffffffffffffffffffffff169060200190929190803573ffffffffffffffffffffffffffffffffffffffff1690602001909291905050506123c9565b604051808215151515815260200191505060405180910390f35b610e5360048036036040811015610e3357600080fd5b81019080803590602001909291908035906020019092919050505061245d565b005b6000806000837bffffffffffffffffffffffffffffffffffffffffffffffffffffffff19167bffffffffffffffffffffffffffffffffffffffffffffffffffffffff1916815260200190815260200160002060009054906101000a900460ff169050919050565b6000610ec78261259a565b610f1c576040517f08c379a000000000000000000000000000000000000000000000000000000000815260040180806020018281038252602c8152602001806130d1602c913960400191505060405180910390fd5b6002600083815260200190815260200160002060009054906101000a900473ffffffffffffffffffffffffffffffffffffffff169050919050565b6000610f6282611703565b90508073ffffffffffffffffffffffffffffffffffffffff168373ffffffffffffffffffffffffffffffffffffffff161415610fe9576040517f08c379a00000000000000000000000000000000000000000000000000000000081526004018080602001828103825260218152602001806131266021913960400191505060405180910390fd5b8073ffffffffffffffffffffffffffffffffffffffff163373ffffffffffffffffffffffffffffffffffffffff161480611029575061102881336123c9565b5b61107e576040517f08c379a00000000000000000000000000000000000000000000000000000000081526004018080602001828103825260388152602001806130466038913960400191505060405180910390fd5b826002600084815260200190815260200160002060006101000a81548173ffffffffffffffffffffffffffffffffffffffff021916908373ffffffffffffffffffffffffffffffffffffffff160217905550818373ffffffffffffffffffffffffffffffffffffffff168273ffffffffffffffffffffffffffffffffffffffff167f8c5be1e5ebec7d5bd14f71427d1e84f3dd0314c0f7b2291e5b200ac8c7c3b92560405160405180910390a4505050565b6060806000806000611140612efd565b60066000888152602001908152602001600020604051806060016040529081600082018054600181600116156101000203166002900480601f0160208091040260200160405190810160405280929190818152602001828054600181600116156101000203166002900480156111f75780601f106111cc576101008083540402835291602001916111f7565b820191906000526020600020905b8154815290600101906020018083116111da57829003601f168201915b50505050508152602001600182018054600181600116156101000203166002900480601f0160208091040260200160405190810160405280929190818152602001828054600181600116156101000203166002900480156112995780601f1061126e57610100808354040283529160200191611299565b820191906000526020600020905b81548152906001019060200180831161127c57829003601f168201915b505050505081526020016002820154815250509050806000015181602001518260400151896112c78b611703565b849450839350955095509550955095505091939590929450565b600080600190505b600554811161145757836040516020018082805190602001908083835b602083106113295780518252602082019150602081019050602083039250611306565b6001836020036101000a038019825116818451168082178552505050505050905001915050604051602081830303815290604052805190602001206006600083815260200190815260200160002060000160405160200180828054600181600116156101000203166002900480156113d85780601f106113b65761010080835404028352918201916113d8565b820191906000526020600020905b8154815290600101906020018083116113c4575b50509150506040516020818303038152906040528051906020012014801561143b57508273ffffffffffffffffffffffffffffffffffffffff1661142361141e866114d2565b611703565b73ffffffffffffffffffffffffffffffffffffffff16145b1561144a57600191505061145d565b80806001019150506112e9565b50600090505b92915050565b61146d338261260c565b6114c2576040517f08c379a00000000000000000000000000000000000000000000000000000000081526004018080602001828103825260318152602001806131476031913960400191505060405180910390fd5b6114cd838383612700565b505050565b600080600190505b600554811161160057826040516020018082805190602001908083835b6020831061151a57805182526020820191506020810190506020830392506114f7565b6001836020036101000a038019825116818451168082178552505050505050905001915050604051602081830303815290604052805190602001206006600083815260200190815260200160002060000160405160200180828054600181600116156101000203166002900480156115c95780601f106115a75761010080835404028352918201916115c9565b820191906000526020600020905b8154815290600101906020018083116115b5575b50509150506040516020818303038152906040528051906020012014156115f35780915050611606565b80806001019150506114da565b50600090505b919050565b600060066000838152602001908152602001600020600201549050919050565b61164683838360405180602001604052806000815250612123565b505050565b6060600660008381526020019081526020016000206001018054600181600116156101000203166002900480601f0160208091040260200160405190810160405280929190818152602001828054600181600116156101000203166002900480156116f75780601f106116cc576101008083540402835291602001916116f7565b820191906000526020600020905b8154815290600101906020018083116116da57829003601f168201915b50505050509050919050565b6000806001600084815260200190815260200160002060009054906101000a900473ffffffffffffffffffffffffffffffffffffffff169050600073ffffffffffffffffffffffffffffffffffffffff168173ffffffffffffffffffffffffffffffffffffffff1614156117c2576040517f08c379a00000000000000000000000000000000000000000000000000000000081526004018080602001828103825260298152602001806130a86029913960400191505060405180910390fd5b80915050919050565b60008073ffffffffffffffffffffffffffffffffffffffff168273ffffffffffffffffffffffffffffffffffffffff161415611852576040517f08c379a000000000000000000000000000000000000000000000000000000000815260040180806020018281038252602a81526020018061307e602a913960400191505060405180910390fd5b611899600360008473ffffffffffffffffffffffffffffffffffffffff1673ffffffffffffffffffffffffffffffffffffffff16815260200190815260200160002061295b565b9050919050565b6060816118ac81611703565b73ffffffffffffffffffffffffffffffffffffffff163373ffffffffffffffffffffffffffffffffffffffff161461194c576040517f08c379a00000000000000000000000000000000000000000000000000000000081526004018080602001828103825260208152602001807f4f6e6c792074686520746f6b656e206f776e65722063616e206163636573732181525060200191505060405180910390fd5b600660008481526020019081526020016000206000018054600181600116156101000203166002900480601f0160208091040260200160405190810160405280929190818152602001828054600181600116156101000203166002900480156119f65780601f106119cb576101008083540402835291602001916119f6565b820191906000526020600020905b8154815290600101906020018083116119d957829003601f168201915b5050505050915050919050565b600080600190505b6005548111611a67578273ffffffffffffffffffffffffffffffffffffffff16611a3482611703565b73ffffffffffffffffffffffffffffffffffffffff161415611a5a576001915050611a6d565b8080600101915050611a0b565b50600090505b919050565b600080600090506060611a8484611adb565b905060008090505b8151811015611ad05760066000838381518110611aa557fe5b6020026020010151815260200190815260200160002060020154830192508080600101915050611a8c565b508192505050919050565b606080600a604051908082528060200260200182016040528015611b0e5781602001602082028038833980820191505090505b50905060008090506000600190505b6005548111611b91578473ffffffffffffffffffffffffffffffffffffffff16611b4682611703565b73ffffffffffffffffffffffffffffffffffffffff161415611b845780838381518110611b6f57fe5b60200260200101818152505081806001019250505b8080600101915050611b1d565b508192505050919050565b3373ffffffffffffffffffffffffffffffffffffffff168273ffffffffffffffffffffffffffffffffffffffff161415611c3e576040517f08c379a00000000000000000000000000000000000000000000000000000000081526004018080602001828103825260198152602001807f4552433732313a20617070726f766520746f2063616c6c65720000000000000081525060200191505060405180910390fd5b80600460003373ffffffffffffffffffffffffffffffffffffffff1673ffffffffffffffffffffffffffffffffffffffff16815260200190815260200160002060008473ffffffffffffffffffffffffffffffffffffffff1673ffffffffffffffffffffffffffffffffffffffff16815260200190815260200160002060006101000a81548160ff0219169083151502179055508173ffffffffffffffffffffffffffffffffffffffff163373ffffffffffffffffffffffffffffffffffffffff167f17307eab39ab6107e8899845ad3d59bd9653f200f220920489ca2b5937696c3183604051808215151515815260200191505060405180910390a35050565b60008060055414612118576000600190505b600554811161210e57836040516020018082805190602001908083835b60208310611d915780518252602082019150602081019050602083039250611d6e565b6001836020036101000a03801982511681845116808217855250505050505090500191505060405160208183030381529060405280519060200120600660008381526020019081526020016000206000016040516020018082805460018160011615610100020316600290048015611e405780601f10611e1e576101008083540402835291820191611e40565b820191906000526020600020905b815481529060010190602001808311611e2c575b5050915050604051602081830303815290604052805190602001201415612101578273ffffffffffffffffffffffffffffffffffffffff16611e8182611703565b73ffffffffffffffffffffffffffffffffffffffff161415611fb1577fad483775b861dbed26dbd8e253c9ca9c34b023862eac0ba3874b63524d03fd71838260066000858152602001908152602001600020600001604051808473ffffffffffffffffffffffffffffffffffffffff1673ffffffffffffffffffffffffffffffffffffffff16815260200183815260200180602001828103825283818154600181600116156101000203166002900481526020019150805460018160011615610100020316600290048015611f975780601f10611f6c57610100808354040283529160200191611f97565b820191906000526020600020905b815481529060010190602001808311611f7a57829003601f168201915b505094505050505060405180910390a1600191505061211d565b7f5cf6086df19562b35294a36ebd9a4a981755d5155fb18a687bfad5dc75bb1d6a611fdb82611703565b848360066000868152602001908152602001600020600001604051808573ffffffffffffffffffffffffffffffffffffffff1673ffffffffffffffffffffffffffffffffffffffff1681526020018473ffffffffffffffffffffffffffffffffffffffff1673ffffffffffffffffffffffffffffffffffffffff168152602001838152602001806020018281038252838181546001816001161561010002031660029004815260200191508054600181600116156101000203166002900480156120e65780601f106120bb576101008083540402835291602001916120e6565b820191906000526020600020905b8154815290600101906020018083116120c957829003601f168201915b50509550505050505060405180910390a1600191505061211d565b8080600101915050611d51565b506000905061211d565b600090505b92915050565b61212e848484611463565b61213a84848484612969565b61218f576040517f08c379a0000000000000000000000000000000000000000000000000000000008152600401808060200182810382526032815260200180612fc46032913960400191505060405180910390fd5b50505050565b823360006121a38383611d3f565b9050600015158115151461221f576040517f08c379a000000000000000000000000000000000000000000000000000000000815260040180806020018281038252601f8152602001807f54686973204962616e20697320616c726561647920726567697374657265640081525060200191505060405180910390fd5b600160056000828254019250508190555085600660006005548152602001908152602001600020600001908051906020019061225c929190612f1e565b50846006600060055481526020019081526020016000206001019080519060200190612289929190612f1e565b5083600660006005548152602001908152602001600020600201819055506122b333600554612b52565b7f2039a4d5c1e27ac7d9d3cc655a56de33da1f7d48737a40672c6984edd718c6f233600554600660006005548152602001908152602001600020600001604051808473ffffffffffffffffffffffffffffffffffffffff1673ffffffffffffffffffffffffffffffffffffffff168152602001838152602001806020018281038252838181546001816001161561010002031660029004815260200191508054600181600116156101000203166002900480156123b15780601f10612386576101008083540402835291602001916123b1565b820191906000526020600020905b81548152906001019060200180831161239457829003601f168201915b505094505050505060405180910390a1505050505050565b6000600460008473ffffffffffffffffffffffffffffffffffffffff1673ffffffffffffffffffffffffffffffffffffffff16815260200190815260200160002060008373ffffffffffffffffffffffffffffffffffffffff1673ffffffffffffffffffffffffffffffffffffffff16815260200190815260200160002060009054906101000a900460ff16905092915050565b8161246781611703565b73ffffffffffffffffffffffffffffffffffffffff163373ffffffffffffffffffffffffffffffffffffffff1614612507576040517f08c379a00000000000000000000000000000000000000000000000000000000081526004018080602001828103825260208152602001807f4f6e6c792074686520746f6b656e206f776e65722063616e206163636573732181525060200191505060405180910390fd5b8160066000858152602001908152602001600020600201819055507f59ccf961b5aa1967adac68ef1caa1f18f9a42ddbf404019403ce2df875d793a6338484604051808473ffffffffffffffffffffffffffffffffffffffff1673ffffffffffffffffffffffffffffffffffffffff168152602001838152602001828152602001935050505060405180910390a1505050565b6000806001600084815260200190815260200160002060009054906101000a900473ffffffffffffffffffffffffffffffffffffffff169050600073ffffffffffffffffffffffffffffffffffffffff168173ffffffffffffffffffffffffffffffffffffffff161415915050919050565b60006126178261259a565b61266c576040517f08c379a000000000000000000000000000000000000000000000000000000000815260040180806020018281038252602c81526020018061301a602c913960400191505060405180910390fd5b600061267783611703565b90508073ffffffffffffffffffffffffffffffffffffffff168473ffffffffffffffffffffffffffffffffffffffff1614806126e657508373ffffffffffffffffffffffffffffffffffffffff166126ce84610ebc565b73ffffffffffffffffffffffffffffffffffffffff16145b806126f757506126f681856123c9565b5b91505092915050565b8273ffffffffffffffffffffffffffffffffffffffff1661272082611703565b73ffffffffffffffffffffffffffffffffffffffff161461278c576040517f08c379a00000000000000000000000000000000000000000000000000000000081526004018080602001828103825260298152602001806130fd6029913960400191505060405180910390fd5b600073ffffffffffffffffffffffffffffffffffffffff168273ffffffffffffffffffffffffffffffffffffffff161415612812576040517f08c379a0000000000000000000000000000000000000000000000000000000008152600401808060200182810382526024815260200180612ff66024913960400191505060405180910390fd5b61281b81612d6a565b612862600360008573ffffffffffffffffffffffffffffffffffffffff1673ffffffffffffffffffffffffffffffffffffffff168152602001908152602001600020612e28565b6128a9600360008473ffffffffffffffffffffffffffffffffffffffff1673ffffffffffffffffffffffffffffffffffffffff168152602001908152602001600020612e4b565b816001600083815260200190815260200160002060006101000a81548173ffffffffffffffffffffffffffffffffffffffff021916908373ffffffffffffffffffffffffffffffffffffffff160217905550808273ffffffffffffffffffffffffffffffffffffffff168473ffffffffffffffffffffffffffffffffffffffff167fddf252ad1be2c89b69c2b068fc378daa952ba7f163c4a11628f55a4df523b3ef60405160405180910390a4505050565b600081600001549050919050565b600061298a8473ffffffffffffffffffffffffffffffffffffffff16612e61565b6129975760019050612b4a565b60008473ffffffffffffffffffffffffffffffffffffffff1663150b7a02338887876040518563ffffffff1660e01b8152600401808573ffffffffffffffffffffffffffffffffffffffff1673ffffffffffffffffffffffffffffffffffffffff1681526020018473ffffffffffffffffffffffffffffffffffffffff1673ffffffffffffffffffffffffffffffffffffffff16815260200183815260200180602001828103825283818151815260200191508051906020019080838360005b83811015612a72578082015181840152602081019050612a57565b50505050905090810190601f168015612a9f5780820380516001836020036101000a031916815260200191505b5095505050505050602060405180830381600087803b158015612ac157600080fd5b505af1158015612ad5573d6000803e3d6000fd5b505050506040513d6020811015612aeb57600080fd5b8101908080519060200190929190505050905063150b7a0260e01b7bffffffffffffffffffffffffffffffffffffffffffffffffffffffff1916817bffffffffffffffffffffffffffffffffffffffffffffffffffffffff1916149150505b949350505050565b600073ffffffffffffffffffffffffffffffffffffffff168273ffffffffffffffffffffffffffffffffffffffff161415612bf5576040517f08c379a00000000000000000000000000000000000000000000000000000000081526004018080602001828103825260208152602001807f4552433732313a206d696e7420746f20746865207a65726f206164647265737381525060200191505060405180910390fd5b612bfe8161259a565b15612c71576040517f08c379a000000000000000000000000000000000000000000000000000000000815260040180806020018281038252601c8152602001807f4552433732313a20746f6b656e20616c7265616479206d696e7465640000000081525060200191505060405180910390fd5b816001600083815260200190815260200160002060006101000a81548173ffffffffffffffffffffffffffffffffffffffff021916908373ffffffffffffffffffffffffffffffffffffffff160217905550612d0a600360008473ffffffffffffffffffffffffffffffffffffffff1673ffffffffffffffffffffffffffffffffffffffff168152602001908152602001600020612e4b565b808273ffffffffffffffffffffffffffffffffffffffff16600073ffffffffffffffffffffffffffffffffffffffff167fddf252ad1be2c89b69c2b068fc378daa952ba7f163c4a11628f55a4df523b3ef60405160405180910390a45050565b600073ffffffffffffffffffffffffffffffffffffffff166002600083815260200190815260200160002060009054906101000a900473ffffffffffffffffffffffffffffffffffffffff1673ffffffffffffffffffffffffffffffffffffffff1614612e255760006002600083815260200190815260200160002060006101000a81548173ffffffffffffffffffffffffffffffffffffffff021916908373ffffffffffffffffffffffffffffffffffffffff1602179055505b50565b612e4060018260000154612e7490919063ffffffff16565b816000018190555050565b6001816000016000828254019250508190555050565b600080823b905060008111915050919050565b600082821115612eec576040517f08c379a000000000000000000000000000000000000000000000000000000000815260040180806020018281038252601e8152602001807f536166654d6174683a207375627472616374696f6e206f766572666c6f77000081525060200191505060405180910390fd5b600082840390508091505092915050565b60405180606001604052806060815260200160608152602001600081525090565b828054600181600116156101000203166002900490600052602060002090601f016020900481019282601f10612f5f57805160ff1916838001178555612f8d565b82800160010185558215612f8d579182015b82811115612f8c578251825591602001919060010190612f71565b5b509050612f9a9190612f9e565b5090565b612fc091905b80821115612fbc576000816000905550600101612fa4565b5090565b9056fe4552433732313a207472616e7366657220746f206e6f6e20455243373231526563656976657220696d706c656d656e7465724552433732313a207472616e7366657220746f20746865207a65726f20616464726573734552433732313a206f70657261746f7220717565727920666f72206e6f6e6578697374656e7420746f6b656e4552433732313a20617070726f76652063616c6c6572206973206e6f74206f776e6572206e6f7220617070726f76656420666f7220616c6c4552433732313a2062616c616e636520717565727920666f7220746865207a65726f20616464726573734552433732313a206f776e657220717565727920666f72206e6f6e6578697374656e7420746f6b656e4552433732313a20617070726f76656420717565727920666f72206e6f6e6578697374656e7420746f6b656e4552433732313a207472616e73666572206f6620746f6b656e2074686174206973206e6f74206f776e4552433732313a20617070726f76616c20746f2063757272656e74206f776e65724552433732313a207472616e736665722063616c6c6572206973206e6f74206f776e6572206e6f7220617070726f766564a165627a7a7230582021c0e4f94b713255e1f8bb31c87ff01fc5862a6ad6cf2dc22f9c5884cc5cafdd0029",
  "source": "pragma solidity ^0.5.5;\r\n\r\nimport \"node_modules/openzeppelin-solidity/contracts/token/ERC721/ERC721.sol\";\r\n\r\ncontract BAT is ERC721 {\r\n\r\n    struct BankAccount {\r\n        string iban;\r\n        string currencyCode;\r\n        int currentBalance;\r\n    }\r\n\r\n    uint lastTokenId;\r\n\r\n    mapping(uint256 => BankAccount) private accounts;\r\n\r\n    /*TO DO\r\n    * Add a function to know if an IBAN is from the current sender or it's owned by another\r\n    * account and the send the events*/\r\n\r\n    modifier onlyIfIbanDidNotExist(string memory _iban, address _owner) {\r\n        bool check = checkIbanAlreadyExist(_iban,_owner);\r\n        require(\r\n            check == false,\r\n            \"This Iban is already registered\"\r\n        );\r\n        _;\r\n    }\r\n\r\n    modifier onlyOwner(uint _tokenID) {\r\n        require (\r\n            msg.sender == ownerOf(_tokenID),\r\n            \"Only the token owner can access!\");\r\n        _;\r\n    }\r\n\r\n    event bankAccountCreated (\r\n        address owner,\r\n        uint tokenID,\r\n        string iban);\r\n\r\n    event bankAccountAlreadyCreated (\r\n        address owner,\r\n        uint tokenID,\r\n        string iban);\r\n\r\n    event bankAccountOwnedByOther (\r\n        address realOwner,\r\n        address userThatSendRequest,\r\n        uint tokenID,\r\n        string iban);\r\n\r\n    event balanceUpdated (\r\n        address owner,\r\n        uint tokenID,\r\n        int _newBalance);\r\n\r\n    function checkIbanAlreadyExist (string memory _iban, address _owner) public returns (bool){\r\n        if (lastTokenId != 0){\r\n            for (uint i=1; i<=lastTokenId; i++){\r\n                if (keccak256(abi.encodePacked((accounts[i].iban))) == keccak256(abi.encodePacked((_iban)))){\r\n                    if (ownerOf(i) == _owner){\r\n                        emit bankAccountAlreadyCreated(_owner,i,accounts[i].iban);\r\n                        return true;\r\n                    }else{\r\n                        emit bankAccountOwnedByOther(ownerOf(i),_owner,i,accounts[i].iban);\r\n                        return true;\r\n                    }\r\n                }\r\n            }\r\n            return false;\r\n        }\r\n        return false;\r\n    }\r\n\r\n    function createBankAccount(string memory _iban, string memory _currencyCode, int _balance) onlyIfIbanDidNotExist(_iban, msg.sender) public {\r\n        lastTokenId += 1;\r\n\r\n        accounts[lastTokenId].iban = _iban;\r\n        accounts[lastTokenId].currencyCode = _currencyCode;\r\n        accounts[lastTokenId].currentBalance = _balance;\r\n\r\n        _mint(msg.sender, lastTokenId);\r\n\r\n        emit bankAccountCreated(msg.sender, lastTokenId, accounts[lastTokenId].iban);\r\n    }\r\n\r\n    function getBankAccount(uint _id) view public returns(string memory, string memory, int, uint, address) {\r\n        BankAccount memory acc = accounts[_id];\r\n        return(acc.iban, acc.currencyCode, acc.currentBalance, _id, ownerOf(_id));\r\n    }\r\n\r\n    function getCurrencyCode(uint _id) view public returns (string memory){\r\n        return accounts[_id].currencyCode;\r\n    }\r\n\r\n    function getAccountBalance (uint _id) view public returns (int) {\r\n        return (accounts[_id].currentBalance);\r\n    }\r\n\r\n    function getAccountIBAN (uint _id) view onlyOwner(_id) public returns (string memory) {\r\n        return (accounts[_id].iban);\r\n    }\r\n\r\n    function SetBankAccountBalance(uint _id, int _newBalance) onlyOwner(_id) public {\r\n        accounts[_id].currentBalance = _newBalance;\r\n        emit balanceUpdated (msg.sender, _id, _newBalance);\r\n    }\r\n\r\n    function checkIfTokenExistForGivenAddress (address _account) view public returns (bool){\r\n        for (uint i=1; i<=lastTokenId; i++){\r\n            if (ownerOf(i) == _account){\r\n                return true;\r\n            }\r\n        }\r\n        return false;\r\n    }\r\n\r\n    function checkIfTokenExistGivenIbanAndOwner (string memory _iban, address _account) public view returns(bool) {\r\n        for (uint i=1; i<=lastTokenId; i++){\r\n            if (keccak256(abi.encodePacked((accounts[i].iban))) == keccak256(abi.encodePacked((_iban))) &&\r\n            ownerOf(returnIdGivenIBAN(_iban))==_account){\r\n                return true;\r\n            }\r\n        }\r\n        return false;\r\n    }\r\n\r\n    function returnIdGivenIBAN (string memory _iban)view public returns (uint){\r\n        // if (checkIfTokenExistForGivenAddress(msg.sender)){\r\n        for (uint i=1; i<=lastTokenId; i++){\r\n            if (keccak256(abi.encodePacked((accounts[i].iban))) == keccak256(abi.encodePacked((_iban)))){\r\n                return i;\r\n            }\r\n        }\r\n        // }\r\n        return 0;\r\n    }\r\n\r\n    //    Function that returns the token list owned by a specified address\r\n    //    Due to solidity features the function returns max 10 bank accounts\r\n    //    at the moment is not possible return dynamic array\r\n\r\n    function getAllTokenByOwnerAddress(address _owner) public view returns (uint [] memory){\r\n        uint[] memory listOfTokens = new uint[](10);\r\n        uint currentIndex = 0;\r\n\r\n        for (uint i=1; i<=lastTokenId; i++){\r\n            if (ownerOf(i) == _owner){\r\n                listOfTokens[currentIndex] = i;\r\n                currentIndex++;\r\n            }\r\n        }\r\n        return listOfTokens;\r\n    }\r\n\r\n    //Function to return the overall token balance using the owner address\r\n\r\n    function getOverallBalance (address _owner) public view returns (int){\r\n        int totalBalance = 0;\r\n        uint[] memory tokens = getAllTokenByOwnerAddress(_owner);\r\n        for (uint i=0; i<tokens.length; i++){\r\n            totalBalance += accounts[tokens[i]].currentBalance;\r\n        }\r\n        return totalBalance;\r\n    }\r\n}",
  "sourcePath": "C:/Users/hackro/Desktop/Dtpp_AISP_project/contracts/BAT.sol",
  "compiler": {
    "name": "solc",
    "version": "0.5.8+commit.23d335f2.Emscripten.clang"
  },
  "schemaVersion": "3.0.16",
  "updatedAt": "2019-11-22T11:44:40.159Z",
  "devdoc": {
    "methods": {
      "approve(address,uint256)": {
        "details": "Approves another address to transfer the given token ID The zero address indicates there is no approved address. There can only be one approved address per token at a given time. Can only be called by the token owner or an approved operator.",
        "params": {
          "to": "address to be approved for the given token ID",
          "tokenId": "uint256 ID of the token to be approved"
        }
      },
      "balanceOf(address)": {
        "details": "Gets the balance of the specified address.",
        "params": {
          "owner": "address to query the balance of"
        },
        "return": "uint256 representing the amount owned by the passed address"
      },
      "getApproved(uint256)": {
        "details": "Gets the approved address for a token ID, or zero if no address set Reverts if the token ID does not exist.",
        "params": {
          "tokenId": "uint256 ID of the token to query the approval of"
        },
        "return": "address currently approved for the given token ID"
      },
      "isApprovedForAll(address,address)": {
        "details": "Tells whether an operator is approved by a given owner.",
        "params": {
          "operator": "operator address which you want to query the approval of",
          "owner": "owner address which you want to query the approval of"
        },
        "return": "bool whether the given operator is approved by the given owner"
      },
      "ownerOf(uint256)": {
        "details": "Gets the owner of the specified token ID.",
        "params": {
          "tokenId": "uint256 ID of the token to query the owner of"
        },
        "return": "address currently marked as the owner of the given token ID"
      },
      "safeTransferFrom(address,address,uint256)": {
        "details": "Safely transfers the ownership of a given token ID to another address If the target address is a contract, it must implement `onERC721Received`, which is called upon a safe transfer, and return the magic value `bytes4(keccak256(\"onERC721Received(address,address,uint256,bytes)\"))`; otherwise, the transfer is reverted. Requires the msg.sender to be the owner, approved, or operator",
        "params": {
          "from": "current owner of the token",
          "to": "address to receive the ownership of the given token ID",
          "tokenId": "uint256 ID of the token to be transferred"
        }
      },
      "safeTransferFrom(address,address,uint256,bytes)": {
        "details": "Safely transfers the ownership of a given token ID to another address If the target address is a contract, it must implement `onERC721Received`, which is called upon a safe transfer, and return the magic value `bytes4(keccak256(\"onERC721Received(address,address,uint256,bytes)\"))`; otherwise, the transfer is reverted. Requires the msg.sender to be the owner, approved, or operator",
        "params": {
          "_data": "bytes data to send along with a safe transfer check",
          "from": "current owner of the token",
          "to": "address to receive the ownership of the given token ID",
          "tokenId": "uint256 ID of the token to be transferred"
        }
      },
      "setApprovalForAll(address,bool)": {
        "details": "Sets or unsets the approval of a given operator An operator is allowed to transfer all tokens of the sender on their behalf.",
        "params": {
          "approved": "representing the status of the approval to be set",
          "to": "operator address to set the approval"
        }
      },
      "supportsInterface(bytes4)": {
        "details": "See `IERC165.supportsInterface`.     * Time complexity O(1), guaranteed to always use less than 30 000 gas."
      },
      "transferFrom(address,address,uint256)": {
        "details": "Transfers the ownership of a given token ID to another address. Usage of this method is discouraged, use `safeTransferFrom` whenever possible. Requires the msg.sender to be the owner, approved, or operator.",
        "params": {
          "from": "current owner of the token",
          "to": "address to receive the ownership of the given token ID",
          "tokenId": "uint256 ID of the token to be transferred"
        }
      }
    }
  },
  "userdoc": {
    "methods": {}
  }
}