{
  "contractName": "BAT",
  "abi": [
    {
      "constant": true,
      "inputs": [
        {
          "name": "interfaceId",
          "type": "bytes4"
        }
      ],
      "name": "supportsInterface",
      "outputs": [
        {
          "name": "",
          "type": "bool"
        }
      ],
      "payable": false,
      "stateMutability": "view",
      "type": "function"
    },
    {
      "constant": true,
      "inputs": [
        {
          "name": "tokenId",
          "type": "uint256"
        }
      ],
      "name": "getApproved",
      "outputs": [
        {
          "name": "",
          "type": "address"
        }
      ],
      "payable": false,
      "stateMutability": "view",
      "type": "function"
    },
    {
      "constant": false,
      "inputs": [
        {
          "name": "to",
          "type": "address"
        },
        {
          "name": "tokenId",
          "type": "uint256"
        }
      ],
      "name": "approve",
      "outputs": [],
      "payable": false,
      "stateMutability": "nonpayable",
      "type": "function"
    },
    {
      "constant": false,
      "inputs": [
        {
          "name": "from",
          "type": "address"
        },
        {
          "name": "to",
          "type": "address"
        },
        {
          "name": "tokenId",
          "type": "uint256"
        }
      ],
      "name": "transferFrom",
      "outputs": [],
      "payable": false,
      "stateMutability": "nonpayable",
      "type": "function"
    },
    {
      "constant": false,
      "inputs": [
        {
          "name": "from",
          "type": "address"
        },
        {
          "name": "to",
          "type": "address"
        },
        {
          "name": "tokenId",
          "type": "uint256"
        }
      ],
      "name": "safeTransferFrom",
      "outputs": [],
      "payable": false,
      "stateMutability": "nonpayable",
      "type": "function"
    },
    {
      "constant": true,
      "inputs": [
        {
          "name": "tokenId",
          "type": "uint256"
        }
      ],
      "name": "ownerOf",
      "outputs": [
        {
          "name": "",
          "type": "address"
        }
      ],
      "payable": false,
      "stateMutability": "view",
      "type": "function"
    },
    {
      "constant": true,
      "inputs": [
        {
          "name": "owner",
          "type": "address"
        }
      ],
      "name": "balanceOf",
      "outputs": [
        {
          "name": "",
          "type": "uint256"
        }
      ],
      "payable": false,
      "stateMutability": "view",
      "type": "function"
    },
    {
      "constant": false,
      "inputs": [
        {
          "name": "to",
          "type": "address"
        },
        {
          "name": "approved",
          "type": "bool"
        }
      ],
      "name": "setApprovalForAll",
      "outputs": [],
      "payable": false,
      "stateMutability": "nonpayable",
      "type": "function"
    },
    {
      "constant": false,
      "inputs": [
        {
          "name": "from",
          "type": "address"
        },
        {
          "name": "to",
          "type": "address"
        },
        {
          "name": "tokenId",
          "type": "uint256"
        },
        {
          "name": "_data",
          "type": "bytes"
        }
      ],
      "name": "safeTransferFrom",
      "outputs": [],
      "payable": false,
      "stateMutability": "nonpayable",
      "type": "function"
    },
    {
      "constant": true,
      "inputs": [
        {
          "name": "owner",
          "type": "address"
        },
        {
          "name": "operator",
          "type": "address"
        }
      ],
      "name": "isApprovedForAll",
      "outputs": [
        {
          "name": "",
          "type": "bool"
        }
      ],
      "payable": false,
      "stateMutability": "view",
      "type": "function"
    },
    {
      "anonymous": false,
      "inputs": [
        {
          "indexed": false,
          "name": "owner",
          "type": "address"
        },
        {
          "indexed": false,
          "name": "tokenID",
          "type": "uint256"
        },
        {
          "indexed": false,
          "name": "iban",
          "type": "string"
        }
      ],
      "name": "bankAccountCreated",
      "type": "event"
    },
    {
      "anonymous": false,
      "inputs": [
        {
          "indexed": false,
          "name": "owner",
          "type": "address"
        },
        {
          "indexed": false,
          "name": "tokenID",
          "type": "uint256"
        },
        {
          "indexed": false,
          "name": "iban",
          "type": "string"
        }
      ],
      "name": "bankAccountAlreadyCreated",
      "type": "event"
    },
    {
      "anonymous": false,
      "inputs": [
        {
          "indexed": false,
          "name": "realOwner",
          "type": "address"
        },
        {
          "indexed": false,
          "name": "userThatSendRequest",
          "type": "address"
        },
        {
          "indexed": false,
          "name": "tokenID",
          "type": "uint256"
        },
        {
          "indexed": false,
          "name": "iban",
          "type": "string"
        }
      ],
      "name": "bankAccountOwnedByOther",
      "type": "event"
    },
    {
      "anonymous": false,
      "inputs": [
        {
          "indexed": false,
          "name": "owner",
          "type": "address"
        },
        {
          "indexed": false,
          "name": "tokenID",
          "type": "uint256"
        },
        {
          "indexed": false,
          "name": "_newBalance",
          "type": "int256"
        }
      ],
      "name": "balanceUpdated",
      "type": "event"
    },
    {
      "anonymous": false,
      "inputs": [
        {
          "indexed": true,
          "name": "from",
          "type": "address"
        },
        {
          "indexed": true,
          "name": "to",
          "type": "address"
        },
        {
          "indexed": true,
          "name": "tokenId",
          "type": "uint256"
        }
      ],
      "name": "Transfer",
      "type": "event"
    },
    {
      "anonymous": false,
      "inputs": [
        {
          "indexed": true,
          "name": "owner",
          "type": "address"
        },
        {
          "indexed": true,
          "name": "approved",
          "type": "address"
        },
        {
          "indexed": true,
          "name": "tokenId",
          "type": "uint256"
        }
      ],
      "name": "Approval",
      "type": "event"
    },
    {
      "anonymous": false,
      "inputs": [
        {
          "indexed": true,
          "name": "owner",
          "type": "address"
        },
        {
          "indexed": true,
          "name": "operator",
          "type": "address"
        },
        {
          "indexed": false,
          "name": "approved",
          "type": "bool"
        }
      ],
      "name": "ApprovalForAll",
      "type": "event"
    },
    {
      "constant": false,
      "inputs": [
        {
          "name": "_iban",
          "type": "string"
        },
        {
          "name": "_owner",
          "type": "address"
        }
      ],
      "name": "checkIbanAlreadyExist",
      "outputs": [
        {
          "name": "",
          "type": "bool"
        }
      ],
      "payable": false,
      "stateMutability": "nonpayable",
      "type": "function"
    },
    {
      "constant": false,
      "inputs": [
        {
          "name": "_iban",
          "type": "string"
        },
        {
          "name": "_currencyCode",
          "type": "string"
        },
        {
          "name": "_balance",
          "type": "int256"
        },
        {
          "name": "_name",
          "type": "string"
        },
        {
          "name": "_surname",
          "type": "string"
        }
      ],
      "name": "createBankAccount",
      "outputs": [],
      "payable": false,
      "stateMutability": "nonpayable",
      "type": "function"
    },
    {
      "constant": true,
      "inputs": [
        {
          "name": "_id",
          "type": "uint256"
        }
      ],
      "name": "getBankAccount",
      "outputs": [
        {
          "name": "",
          "type": "string"
        },
        {
          "name": "",
          "type": "string"
        },
        {
          "name": "",
          "type": "int256"
        },
        {
          "name": "",
          "type": "uint256"
        },
        {
          "name": "",
          "type": "address"
        },
        {
          "name": "",
          "type": "string"
        },
        {
          "name": "",
          "type": "string"
        }
      ],
      "payable": false,
      "stateMutability": "view",
      "type": "function"
    },
    {
      "constant": true,
      "inputs": [
        {
          "name": "_id",
          "type": "uint256"
        }
      ],
      "name": "getCurrencyCode",
      "outputs": [
        {
          "name": "",
          "type": "string"
        }
      ],
      "payable": false,
      "stateMutability": "view",
      "type": "function"
    },
    {
      "constant": true,
      "inputs": [
        {
          "name": "_id",
          "type": "uint256"
        }
      ],
      "name": "getAccountBalance",
      "outputs": [
        {
          "name": "",
          "type": "int256"
        }
      ],
      "payable": false,
      "stateMutability": "view",
      "type": "function"
    },
    {
      "constant": true,
      "inputs": [
        {
          "name": "_id",
          "type": "uint256"
        }
      ],
      "name": "getAccountIBAN",
      "outputs": [
        {
          "name": "",
          "type": "string"
        }
      ],
      "payable": false,
      "stateMutability": "view",
      "type": "function"
    },
    {
      "constant": false,
      "inputs": [
        {
          "name": "_id",
          "type": "uint256"
        },
        {
          "name": "_newBalance",
          "type": "int256"
        }
      ],
      "name": "SetBankAccountBalance",
      "outputs": [],
      "payable": false,
      "stateMutability": "nonpayable",
      "type": "function"
    },
    {
      "constant": true,
      "inputs": [
        {
          "name": "_account",
          "type": "address"
        }
      ],
      "name": "checkIfTokenExistForGivenAddress",
      "outputs": [
        {
          "name": "",
          "type": "bool"
        }
      ],
      "payable": false,
      "stateMutability": "view",
      "type": "function"
    },
    {
      "constant": true,
      "inputs": [
        {
          "name": "_iban",
          "type": "string"
        },
        {
          "name": "_account",
          "type": "address"
        }
      ],
      "name": "checkIfTokenExistGivenIbanAndOwner",
      "outputs": [
        {
          "name": "",
          "type": "bool"
        }
      ],
      "payable": false,
      "stateMutability": "view",
      "type": "function"
    },
    {
      "constant": true,
      "inputs": [
        {
          "name": "_iban",
          "type": "string"
        }
      ],
      "name": "returnIdGivenIBAN",
      "outputs": [
        {
          "name": "",
          "type": "uint256"
        }
      ],
      "payable": false,
      "stateMutability": "view",
      "type": "function"
    },
    {
      "constant": true,
      "inputs": [
        {
          "name": "_owner",
          "type": "address"
        }
      ],
      "name": "getAllTokenByOwnerAddress",
      "outputs": [
        {
          "name": "",
          "type": "uint256[]"
        }
      ],
      "payable": false,
      "stateMutability": "view",
      "type": "function"
    },
    {
      "constant": true,
      "inputs": [
        {
          "name": "_owner",
          "type": "address"
        }
      ],
      "name": "getOverallBalance",
      "outputs": [
        {
          "name": "",
          "type": "int256"
        }
      ],
      "payable": false,
      "stateMutability": "view",
      "type": "function"
    }
  ],
  "bytecode": "0x60806040526200001c6301ffc9a760e01b6200003a60201b60201c565b620000346380ac58cd60e01b6200003a60201b60201c565b62000143565b63ffffffff60e01b817bffffffffffffffffffffffffffffffffffffffffffffffffffffffff19161415620000d7576040517f08c379a000000000000000000000000000000000000000000000000000000000815260040180806020018281038252601c8152602001807f4552433136353a20696e76616c696420696e746572666163652069640000000081525060200191505060405180910390fd5b6001600080837bffffffffffffffffffffffffffffffffffffffffffffffffffffffff19167bffffffffffffffffffffffffffffffffffffffffffffffffffffffff1916815260200190815260200160002060006101000a81548160ff02191690831515021790555050565b61354080620001536000396000f3fe608060405234801561001057600080fd5b50600436106101425760003560e01c806370a08231116100b8578063a22cb4651161007c578063a22cb46514610ad5578063a36a9b3f14610b25578063b88d4fde14610c18578063c7e8894914610d1d578063e985e9c514610fa7578063ff3766231461102357610142565b806370a08231146108895780637573640e146108e1578063825a25b114610988578063889c0f12146109e45780639301f08714610a3c57610142565b806323b872dd1161010a57806323b872dd146105875780633af4372a146105f55780633d9546ee146106c457806342842e0e1461070657806362b6711e146107745780636352211e1461081b57610142565b806301ffc9a714610147578063081812fc146101ac578063095ea7b31461021a5780630d3127701461026857806317fa0a0a14610494575b600080fd5b6101926004803603602081101561015d57600080fd5b8101908080357bffffffffffffffffffffffffffffffffffffffffffffffffffffffff1916906020019092919050505061105b565b604051808215151515815260200191505060405180910390f35b6101d8600480360360208110156101c257600080fd5b81019080803590602001909291905050506110c2565b604051808273ffffffffffffffffffffffffffffffffffffffff1673ffffffffffffffffffffffffffffffffffffffff16815260200191505060405180910390f35b6102666004803603604081101561023057600080fd5b81019080803573ffffffffffffffffffffffffffffffffffffffff1690602001909291908035906020019092919050505061115d565b005b6102946004803603602081101561027e57600080fd5b8101908080359060200190929190505050611336565b6040518080602001806020018881526020018781526020018673ffffffffffffffffffffffffffffffffffffffff1673ffffffffffffffffffffffffffffffffffffffff168152602001806020018060200185810385528c818151815260200191508051906020019080838360005b8381101561031e578082015181840152602081019050610303565b50505050905090810190601f16801561034b5780820380516001836020036101000a031916815260200191505b5085810384528b818151815260200191508051906020019080838360005b83811015610384578082015181840152602081019050610369565b50505050905090810190601f1680156103b15780820380516001836020036101000a031916815260200191505b50858103835287818151815260200191508051906020019080838360005b838110156103ea5780820151818401526020810190506103cf565b50505050905090810190601f1680156104175780820380516001836020036101000a031916815260200191505b50858103825286818151815260200191508051906020019080838360005b83811015610450578082015181840152602081019050610435565b50505050905090810190601f16801561047d5780820380516001836020036101000a031916815260200191505b509b50505050505050505050505060405180910390f35b61056d600480360360408110156104aa57600080fd5b81019080803590602001906401000000008111156104c757600080fd5b8201836020820111156104d957600080fd5b803590602001918460018302840111640100000000831117156104fb57600080fd5b91908080601f016020809104026020016040519081016040528093929190818152602001838380828437600081840152601f19601f820116905080830192505050505050509192919290803573ffffffffffffffffffffffffffffffffffffffff169060200190929190505050611643565b604051808215151515815260200191505060405180910390f35b6105f36004803603606081101561059d57600080fd5b81019080803573ffffffffffffffffffffffffffffffffffffffff169060200190929190803573ffffffffffffffffffffffffffffffffffffffff169060200190929190803590602001909291905050506117c5565b005b6106ae6004803603602081101561060b57600080fd5b810190808035906020019064010000000081111561062857600080fd5b82018360208201111561063a57600080fd5b8035906020019184600183028401116401000000008311171561065c57600080fd5b91908080601f016020809104026020016040519081016040528093929190818152602001838380828437600081840152601f19601f820116905080830192505050505050509192919290505050611834565b6040518082815260200191505060405180910390f35b6106f0600480360360208110156106da57600080fd5b810190808035906020019092919050505061196d565b6040518082815260200191505060405180910390f35b6107726004803603606081101561071c57600080fd5b81019080803573ffffffffffffffffffffffffffffffffffffffff169060200190929190803573ffffffffffffffffffffffffffffffffffffffff1690602001909291908035906020019092919050505061198d565b005b6107a06004803603602081101561078a57600080fd5b81019080803590602001909291905050506119ad565b6040518080602001828103825283818151815260200191508051906020019080838360005b838110156107e05780820151818401526020810190506107c5565b50505050905090810190601f16801561080d5780820380516001836020036101000a031916815260200191505b509250505060405180910390f35b6108476004803603602081101561083157600080fd5b8101908080359060200190929190505050611a65565b604051808273ffffffffffffffffffffffffffffffffffffffff1673ffffffffffffffffffffffffffffffffffffffff16815260200191505060405180910390f35b6108cb6004803603602081101561089f57600080fd5b81019080803573ffffffffffffffffffffffffffffffffffffffff169060200190929190505050611b2d565b6040518082815260200191505060405180910390f35b61090d600480360360208110156108f757600080fd5b8101908080359060200190929190505050611c02565b6040518080602001828103825283818151815260200191508051906020019080838360005b8381101561094d578082015181840152602081019050610932565b50505050905090810190601f16801561097a5780820380516001836020036101000a031916815260200191505b509250505060405180910390f35b6109ca6004803603602081101561099e57600080fd5b81019080803573ffffffffffffffffffffffffffffffffffffffff169060200190929190505050611d65565b604051808215151515815260200191505060405180910390f35b610a26600480360360208110156109fa57600080fd5b81019080803573ffffffffffffffffffffffffffffffffffffffff169060200190929190505050611dd4565b6040518082815260200191505060405180910390f35b610a7e60048036036020811015610a5257600080fd5b81019080803573ffffffffffffffffffffffffffffffffffffffff169060200190929190505050611e3d565b6040518080602001828103825283818151815260200191508051906020019060200280838360005b83811015610ac1578082015181840152602081019050610aa6565b505050509050019250505060405180910390f35b610b2360048036036040811015610aeb57600080fd5b81019080803573ffffffffffffffffffffffffffffffffffffffff169060200190929190803515159060200190929190505050611efe565b005b610bfe60048036036040811015610b3b57600080fd5b8101908080359060200190640100000000811115610b5857600080fd5b820183602082011115610b6a57600080fd5b80359060200191846001830284011164010000000083111715610b8c57600080fd5b91908080601f016020809104026020016040519081016040528093929190818152602001838380828437600081840152601f19601f820116905080830192505050505050509192919290803573ffffffffffffffffffffffffffffffffffffffff1690602001909291905050506120a1565b604051808215151515815260200191505060405180910390f35b610d1b60048036036080811015610c2e57600080fd5b81019080803573ffffffffffffffffffffffffffffffffffffffff169060200190929190803573ffffffffffffffffffffffffffffffffffffffff1690602001909291908035906020019092919080359060200190640100000000811115610c9557600080fd5b820183602082011115610ca757600080fd5b80359060200191846001830284011164010000000083111715610cc957600080fd5b91908080601f016020809104026020016040519081016040528093929190818152602001838380828437600081840152601f19601f820116905080830192505050505050509192919290505050612485565b005b610fa5600480360360a0811015610d3357600080fd5b8101908080359060200190640100000000811115610d5057600080fd5b820183602082011115610d6257600080fd5b80359060200191846001830284011164010000000083111715610d8457600080fd5b91908080601f016020809104026020016040519081016040528093929190818152602001838380828437600081840152601f19601f82011690508083019250505050505050919291929080359060200190640100000000811115610de757600080fd5b820183602082011115610df957600080fd5b80359060200191846001830284011164010000000083111715610e1b57600080fd5b91908080601f016020809104026020016040519081016040528093929190818152602001838380828437600081840152601f19601f8201169050808301925050505050505091929192908035906020019092919080359060200190640100000000811115610e8857600080fd5b820183602082011115610e9a57600080fd5b80359060200191846001830284011164010000000083111715610ebc57600080fd5b91908080601f016020809104026020016040519081016040528093929190818152602001838380828437600081840152601f19601f82011690508083019250505050505050919291929080359060200190640100000000811115610f1f57600080fd5b820183602082011115610f3157600080fd5b80359060200191846001830284011164010000000083111715610f5357600080fd5b91908080601f016020809104026020016040519081016040528093929190818152602001838380828437600081840152601f19601f8201169050808301925050505050505091929192905050506124f7565b005b61100960048036036040811015610fbd57600080fd5b81019080803573ffffffffffffffffffffffffffffffffffffffff169060200190929190803573ffffffffffffffffffffffffffffffffffffffff169060200190929190505050612787565b604051808215151515815260200191505060405180910390f35b6110596004803603604081101561103957600080fd5b81019080803590602001909291908035906020019092919050505061281b565b005b6000806000837bffffffffffffffffffffffffffffffffffffffffffffffffffffffff19167bffffffffffffffffffffffffffffffffffffffffffffffffffffffff1916815260200190815260200160002060009054906101000a900460ff169050919050565b60006110cd82612958565b611122576040517f08c379a000000000000000000000000000000000000000000000000000000000815260040180806020018281038252602c81526020018061346e602c913960400191505060405180910390fd5b6002600083815260200190815260200160002060009054906101000a900473ffffffffffffffffffffffffffffffffffffffff169050919050565b600061116882611a65565b90508073ffffffffffffffffffffffffffffffffffffffff168373ffffffffffffffffffffffffffffffffffffffff1614156111ef576040517f08c379a00000000000000000000000000000000000000000000000000000000081526004018080602001828103825260218152602001806134c36021913960400191505060405180910390fd5b8073ffffffffffffffffffffffffffffffffffffffff163373ffffffffffffffffffffffffffffffffffffffff16148061122f575061122e8133612787565b5b611284576040517f08c379a00000000000000000000000000000000000000000000000000000000081526004018080602001828103825260388152602001806133e36038913960400191505060405180910390fd5b826002600084815260200190815260200160002060006101000a81548173ffffffffffffffffffffffffffffffffffffffff021916908373ffffffffffffffffffffffffffffffffffffffff160217905550818373ffffffffffffffffffffffffffffffffffffffff168273ffffffffffffffffffffffffffffffffffffffff167f8c5be1e5ebec7d5bd14f71427d1e84f3dd0314c0f7b2291e5b200ac8c7c3b92560405160405180910390a4505050565b606080600080600060608060066000898152602001908152602001600020600001600660008a8152602001908152602001600020600101600660008b8152602001908152602001600020600201548a61138e8c611a65565b600660008e8152602001908152602001600020600301600660008f8152602001908152602001600020600401868054600181600116156101000203166002900480601f01602080910402602001604051908101604052809291908181526020018280546001816001161561010002031660029004801561144f5780601f106114245761010080835404028352916020019161144f565b820191906000526020600020905b81548152906001019060200180831161143257829003601f168201915b50505050509650858054600181600116156101000203166002900480601f0160208091040260200160405190810160405280929190818152602001828054600181600116156101000203166002900480156114eb5780601f106114c0576101008083540402835291602001916114eb565b820191906000526020600020905b8154815290600101906020018083116114ce57829003601f168201915b50505050509550818054600181600116156101000203166002900480601f0160208091040260200160405190810160405280929190818152602001828054600181600116156101000203166002900480156115875780601f1061155c57610100808354040283529160200191611587565b820191906000526020600020905b81548152906001019060200180831161156a57829003601f168201915b50505050509150808054600181600116156101000203166002900480601f0160208091040260200160405190810160405280929190818152602001828054600181600116156101000203166002900480156116235780601f106115f857610100808354040283529160200191611623565b820191906000526020600020905b81548152906001019060200180831161160657829003601f168201915b505050505090509650965096509650965096509650919395979092949650565b600080600190505b60055481116117b957836040516020018082805190602001908083835b6020831061168b5780518252602082019150602081019050602083039250611668565b6001836020036101000a0380198251168184511680821785525050505050509050019150506040516020818303038152906040528051906020012060066000838152602001908152602001600020600001604051602001808280546001816001161561010002031660029004801561173a5780601f1061171857610100808354040283529182019161173a565b820191906000526020600020905b815481529060010190602001808311611726575b50509150506040516020818303038152906040528051906020012014801561179d57508273ffffffffffffffffffffffffffffffffffffffff1661178561178086611834565b611a65565b73ffffffffffffffffffffffffffffffffffffffff16145b156117ac5760019150506117bf565b808060010191505061164b565b50600090505b92915050565b6117cf33826129ca565b611824576040517f08c379a00000000000000000000000000000000000000000000000000000000081526004018080602001828103825260318152602001806134e46031913960400191505060405180910390fd5b61182f838383612abe565b505050565b600080600190505b600554811161196257826040516020018082805190602001908083835b6020831061187c5780518252602082019150602081019050602083039250611859565b6001836020036101000a0380198251168184511680821785525050505050509050019150506040516020818303038152906040528051906020012060066000838152602001908152602001600020600001604051602001808280546001816001161561010002031660029004801561192b5780601f1061190957610100808354040283529182019161192b565b820191906000526020600020905b815481529060010190602001808311611917575b50509150506040516020818303038152906040528051906020012014156119555780915050611968565b808060010191505061183c565b50600090505b919050565b600060066000838152602001908152602001600020600201549050919050565b6119a883838360405180602001604052806000815250612485565b505050565b6060600660008381526020019081526020016000206001018054600181600116156101000203166002900480601f016020809104026020016040519081016040528092919081815260200182805460018160011615610100020316600290048015611a595780601f10611a2e57610100808354040283529160200191611a59565b820191906000526020600020905b815481529060010190602001808311611a3c57829003601f168201915b50505050509050919050565b6000806001600084815260200190815260200160002060009054906101000a900473ffffffffffffffffffffffffffffffffffffffff169050600073ffffffffffffffffffffffffffffffffffffffff168173ffffffffffffffffffffffffffffffffffffffff161415611b24576040517f08c379a00000000000000000000000000000000000000000000000000000000081526004018080602001828103825260298152602001806134456029913960400191505060405180910390fd5b80915050919050565b60008073ffffffffffffffffffffffffffffffffffffffff168273ffffffffffffffffffffffffffffffffffffffff161415611bb4576040517f08c379a000000000000000000000000000000000000000000000000000000000815260040180806020018281038252602a81526020018061341b602a913960400191505060405180910390fd5b611bfb600360008473ffffffffffffffffffffffffffffffffffffffff1673ffffffffffffffffffffffffffffffffffffffff168152602001908152602001600020612d19565b9050919050565b606081611c0e81611a65565b73ffffffffffffffffffffffffffffffffffffffff163373ffffffffffffffffffffffffffffffffffffffff1614611cae576040517f08c379a00000000000000000000000000000000000000000000000000000000081526004018080602001828103825260208152602001807f4f6e6c792074686520746f6b656e206f776e65722063616e206163636573732181525060200191505060405180910390fd5b600660008481526020019081526020016000206000018054600181600116156101000203166002900480601f016020809104026020016040519081016040528092919081815260200182805460018160011615610100020316600290048015611d585780601f10611d2d57610100808354040283529160200191611d58565b820191906000526020600020905b815481529060010190602001808311611d3b57829003601f168201915b5050505050915050919050565b600080600190505b6005548111611dc9578273ffffffffffffffffffffffffffffffffffffffff16611d9682611a65565b73ffffffffffffffffffffffffffffffffffffffff161415611dbc576001915050611dcf565b8080600101915050611d6d565b50600090505b919050565b600080600090506060611de684611e3d565b905060008090505b8151811015611e325760066000838381518110611e0757fe5b6020026020010151815260200190815260200160002060020154830192508080600101915050611dee565b508192505050919050565b606080600a604051908082528060200260200182016040528015611e705781602001602082028038833980820191505090505b50905060008090506000600190505b6005548111611ef3578473ffffffffffffffffffffffffffffffffffffffff16611ea882611a65565b73ffffffffffffffffffffffffffffffffffffffff161415611ee65780838381518110611ed157fe5b60200260200101818152505081806001019250505b8080600101915050611e7f565b508192505050919050565b3373ffffffffffffffffffffffffffffffffffffffff168273ffffffffffffffffffffffffffffffffffffffff161415611fa0576040517f08c379a00000000000000000000000000000000000000000000000000000000081526004018080602001828103825260198152602001807f4552433732313a20617070726f766520746f2063616c6c65720000000000000081525060200191505060405180910390fd5b80600460003373ffffffffffffffffffffffffffffffffffffffff1673ffffffffffffffffffffffffffffffffffffffff16815260200190815260200160002060008473ffffffffffffffffffffffffffffffffffffffff1673ffffffffffffffffffffffffffffffffffffffff16815260200190815260200160002060006101000a81548160ff0219169083151502179055508173ffffffffffffffffffffffffffffffffffffffff163373ffffffffffffffffffffffffffffffffffffffff167f17307eab39ab6107e8899845ad3d59bd9653f200f220920489ca2b5937696c3183604051808215151515815260200191505060405180910390a35050565b6000806005541461247a576000600190505b600554811161247057836040516020018082805190602001908083835b602083106120f357805182526020820191506020810190506020830392506120d0565b6001836020036101000a038019825116818451168082178552505050505050905001915050604051602081830303815290604052805190602001206006600083815260200190815260200160002060000160405160200180828054600181600116156101000203166002900480156121a25780601f106121805761010080835404028352918201916121a2565b820191906000526020600020905b81548152906001019060200180831161218e575b5050915050604051602081830303815290604052805190602001201415612463578273ffffffffffffffffffffffffffffffffffffffff166121e382611a65565b73ffffffffffffffffffffffffffffffffffffffff161415612313577fad483775b861dbed26dbd8e253c9ca9c34b023862eac0ba3874b63524d03fd71838260066000858152602001908152602001600020600001604051808473ffffffffffffffffffffffffffffffffffffffff1673ffffffffffffffffffffffffffffffffffffffff168152602001838152602001806020018281038252838181546001816001161561010002031660029004815260200191508054600181600116156101000203166002900480156122f95780601f106122ce576101008083540402835291602001916122f9565b820191906000526020600020905b8154815290600101906020018083116122dc57829003601f168201915b505094505050505060405180910390a1600191505061247f565b7f5cf6086df19562b35294a36ebd9a4a981755d5155fb18a687bfad5dc75bb1d6a61233d82611a65565b848360066000868152602001908152602001600020600001604051808573ffffffffffffffffffffffffffffffffffffffff1673ffffffffffffffffffffffffffffffffffffffff1681526020018473ffffffffffffffffffffffffffffffffffffffff1673ffffffffffffffffffffffffffffffffffffffff168152602001838152602001806020018281038252838181546001816001161561010002031660029004815260200191508054600181600116156101000203166002900480156124485780601f1061241d57610100808354040283529160200191612448565b820191906000526020600020905b81548152906001019060200180831161242b57829003601f168201915b50509550505050505060405180910390a1600191505061247f565b80806001019150506120b3565b506000905061247f565b600090505b92915050565b6124908484846117c5565b61249c84848484612d27565b6124f1576040517f08c379a00000000000000000000000000000000000000000000000000000000081526004018080602001828103825260328152602001806133616032913960400191505060405180910390fd5b50505050565b8433600061250583836120a1565b90506000151581151514612581576040517f08c379a000000000000000000000000000000000000000000000000000000000815260040180806020018281038252601f8152602001807f54686973204962616e20697320616c726561647920726567697374657265640081525060200191505060405180910390fd5b60016005600082825401925050819055508760066000600554815260200190815260200160002060000190805190602001906125be9291906132bb565b508660066000600554815260200190815260200160002060010190805190602001906125eb9291906132bb565b5085600660006005548152602001908152602001600020600201819055508460066000600554815260200190815260200160002060030190805190602001906126359291906132bb565b508360066000600554815260200190815260200160002060040190805190602001906126629291906132bb565b5061266f33600554612f10565b7f2039a4d5c1e27ac7d9d3cc655a56de33da1f7d48737a40672c6984edd718c6f233600554600660006005548152602001908152602001600020600001604051808473ffffffffffffffffffffffffffffffffffffffff1673ffffffffffffffffffffffffffffffffffffffff1681526020018381526020018060200182810382528381815460018160011615610100020316600290048152602001915080546001816001161561010002031660029004801561276d5780601f106127425761010080835404028352916020019161276d565b820191906000526020600020905b81548152906001019060200180831161275057829003601f168201915b505094505050505060405180910390a15050505050505050565b6000600460008473ffffffffffffffffffffffffffffffffffffffff1673ffffffffffffffffffffffffffffffffffffffff16815260200190815260200160002060008373ffffffffffffffffffffffffffffffffffffffff1673ffffffffffffffffffffffffffffffffffffffff16815260200190815260200160002060009054906101000a900460ff16905092915050565b8161282581611a65565b73ffffffffffffffffffffffffffffffffffffffff163373ffffffffffffffffffffffffffffffffffffffff16146128c5576040517f08c379a00000000000000000000000000000000000000000000000000000000081526004018080602001828103825260208152602001807f4f6e6c792074686520746f6b656e206f776e65722063616e206163636573732181525060200191505060405180910390fd5b8160066000858152602001908152602001600020600201819055507f59ccf961b5aa1967adac68ef1caa1f18f9a42ddbf404019403ce2df875d793a6338484604051808473ffffffffffffffffffffffffffffffffffffffff1673ffffffffffffffffffffffffffffffffffffffff168152602001838152602001828152602001935050505060405180910390a1505050565b6000806001600084815260200190815260200160002060009054906101000a900473ffffffffffffffffffffffffffffffffffffffff169050600073ffffffffffffffffffffffffffffffffffffffff168173ffffffffffffffffffffffffffffffffffffffff161415915050919050565b60006129d582612958565b612a2a576040517f08c379a000000000000000000000000000000000000000000000000000000000815260040180806020018281038252602c8152602001806133b7602c913960400191505060405180910390fd5b6000612a3583611a65565b90508073ffffffffffffffffffffffffffffffffffffffff168473ffffffffffffffffffffffffffffffffffffffff161480612aa457508373ffffffffffffffffffffffffffffffffffffffff16612a8c846110c2565b73ffffffffffffffffffffffffffffffffffffffff16145b80612ab55750612ab48185612787565b5b91505092915050565b8273ffffffffffffffffffffffffffffffffffffffff16612ade82611a65565b73ffffffffffffffffffffffffffffffffffffffff1614612b4a576040517f08c379a000000000000000000000000000000000000000000000000000000000815260040180806020018281038252602981526020018061349a6029913960400191505060405180910390fd5b600073ffffffffffffffffffffffffffffffffffffffff168273ffffffffffffffffffffffffffffffffffffffff161415612bd0576040517f08c379a00000000000000000000000000000000000000000000000000000000081526004018080602001828103825260248152602001806133936024913960400191505060405180910390fd5b612bd981613128565b612c20600360008573ffffffffffffffffffffffffffffffffffffffff1673ffffffffffffffffffffffffffffffffffffffff1681526020019081526020016000206131e6565b612c67600360008473ffffffffffffffffffffffffffffffffffffffff1673ffffffffffffffffffffffffffffffffffffffff168152602001908152602001600020613209565b816001600083815260200190815260200160002060006101000a81548173ffffffffffffffffffffffffffffffffffffffff021916908373ffffffffffffffffffffffffffffffffffffffff160217905550808273ffffffffffffffffffffffffffffffffffffffff168473ffffffffffffffffffffffffffffffffffffffff167fddf252ad1be2c89b69c2b068fc378daa952ba7f163c4a11628f55a4df523b3ef60405160405180910390a4505050565b600081600001549050919050565b6000612d488473ffffffffffffffffffffffffffffffffffffffff1661321f565b612d555760019050612f08565b60008473ffffffffffffffffffffffffffffffffffffffff1663150b7a02338887876040518563ffffffff1660e01b8152600401808573ffffffffffffffffffffffffffffffffffffffff1673ffffffffffffffffffffffffffffffffffffffff1681526020018473ffffffffffffffffffffffffffffffffffffffff1673ffffffffffffffffffffffffffffffffffffffff16815260200183815260200180602001828103825283818151815260200191508051906020019080838360005b83811015612e30578082015181840152602081019050612e15565b50505050905090810190601f168015612e5d5780820380516001836020036101000a031916815260200191505b5095505050505050602060405180830381600087803b158015612e7f57600080fd5b505af1158015612e93573d6000803e3d6000fd5b505050506040513d6020811015612ea957600080fd5b8101908080519060200190929190505050905063150b7a0260e01b7bffffffffffffffffffffffffffffffffffffffffffffffffffffffff1916817bffffffffffffffffffffffffffffffffffffffffffffffffffffffff1916149150505b949350505050565b600073ffffffffffffffffffffffffffffffffffffffff168273ffffffffffffffffffffffffffffffffffffffff161415612fb3576040517f08c379a00000000000000000000000000000000000000000000000000000000081526004018080602001828103825260208152602001807f4552433732313a206d696e7420746f20746865207a65726f206164647265737381525060200191505060405180910390fd5b612fbc81612958565b1561302f576040517f08c379a000000000000000000000000000000000000000000000000000000000815260040180806020018281038252601c8152602001807f4552433732313a20746f6b656e20616c7265616479206d696e7465640000000081525060200191505060405180910390fd5b816001600083815260200190815260200160002060006101000a81548173ffffffffffffffffffffffffffffffffffffffff021916908373ffffffffffffffffffffffffffffffffffffffff1602179055506130c8600360008473ffffffffffffffffffffffffffffffffffffffff1673ffffffffffffffffffffffffffffffffffffffff168152602001908152602001600020613209565b808273ffffffffffffffffffffffffffffffffffffffff16600073ffffffffffffffffffffffffffffffffffffffff167fddf252ad1be2c89b69c2b068fc378daa952ba7f163c4a11628f55a4df523b3ef60405160405180910390a45050565b600073ffffffffffffffffffffffffffffffffffffffff166002600083815260200190815260200160002060009054906101000a900473ffffffffffffffffffffffffffffffffffffffff1673ffffffffffffffffffffffffffffffffffffffff16146131e35760006002600083815260200190815260200160002060006101000a81548173ffffffffffffffffffffffffffffffffffffffff021916908373ffffffffffffffffffffffffffffffffffffffff1602179055505b50565b6131fe6001826000015461323290919063ffffffff16565b816000018190555050565b6001816000016000828254019250508190555050565b600080823b905060008111915050919050565b6000828211156132aa576040517f08c379a000000000000000000000000000000000000000000000000000000000815260040180806020018281038252601e8152602001807f536166654d6174683a207375627472616374696f6e206f766572666c6f77000081525060200191505060405180910390fd5b600082840390508091505092915050565b828054600181600116156101000203166002900490600052602060002090601f016020900481019282601f106132fc57805160ff191683800117855561332a565b8280016001018555821561332a579182015b8281111561332957825182559160200191906001019061330e565b5b509050613337919061333b565b5090565b61335d91905b80821115613359576000816000905550600101613341565b5090565b9056fe4552433732313a207472616e7366657220746f206e6f6e20455243373231526563656976657220696d706c656d656e7465724552433732313a207472616e7366657220746f20746865207a65726f20616464726573734552433732313a206f70657261746f7220717565727920666f72206e6f6e6578697374656e7420746f6b656e4552433732313a20617070726f76652063616c6c6572206973206e6f74206f776e6572206e6f7220617070726f76656420666f7220616c6c4552433732313a2062616c616e636520717565727920666f7220746865207a65726f20616464726573734552433732313a206f776e657220717565727920666f72206e6f6e6578697374656e7420746f6b656e4552433732313a20617070726f76656420717565727920666f72206e6f6e6578697374656e7420746f6b656e4552433732313a207472616e73666572206f6620746f6b656e2074686174206973206e6f74206f776e4552433732313a20617070726f76616c20746f2063757272656e74206f776e65724552433732313a207472616e736665722063616c6c6572206973206e6f74206f776e6572206e6f7220617070726f766564a165627a7a723058209b76d6c360662bebaa59c566a608a9bd914d00b6776e893bf3505faa12a141ee0029",
  "source": "pragma solidity ^0.5.5;\r\n\r\nimport \"node_modules/openzeppelin-solidity/contracts/token/ERC721/ERC721.sol\";\r\n\r\ncontract BAT is ERC721 {\r\n\r\n    struct BankAccount {\r\n        string iban;\r\n        string currencyCode;\r\n        int currentBalance;\r\n        string name;\r\n        string surname;\r\n    }\r\n\r\n    uint lastTokenId;\r\n\r\n    mapping(uint256 => BankAccount) private accounts;\r\n\r\n    /*TO DO\r\n    * Add a function to know if an IBAN is from the current sender or it's owned by another\r\n    * account and the send the events*/\r\n\r\n    modifier onlyIfIbanDoNotExist(string memory _iban, address _owner) {\r\n        bool check = checkIbanAlreadyExist(_iban,_owner);\r\n        require(\r\n            check == false,\r\n            \"This Iban is already registered\"\r\n        );\r\n        _;\r\n    }\r\n\r\n    modifier onlyOwner(uint _tokenID) {\r\n        require (\r\n            msg.sender == ownerOf(_tokenID),\r\n            \"Only the token owner can access!\");\r\n        _;\r\n    }\r\n\r\n    event bankAccountCreated (\r\n        address owner,\r\n        uint tokenID,\r\n        string iban);\r\n\r\n    event bankAccountAlreadyCreated (\r\n        address owner,\r\n        uint tokenID,\r\n        string iban);\r\n\r\n    event bankAccountOwnedByOther (\r\n        address realOwner,\r\n        address userThatSendRequest,\r\n        uint tokenID,\r\n        string iban);\r\n\r\n    event balanceUpdated (\r\n        address owner,\r\n        uint tokenID,\r\n        int _newBalance);\r\n\r\n    function checkIbanAlreadyExist (string memory _iban, address _owner) public returns (bool){\r\n        if (lastTokenId != 0){\r\n            for (uint i=1; i<=lastTokenId; i++){\r\n                if (keccak256(abi.encodePacked((accounts[i].iban))) == keccak256(abi.encodePacked((_iban)))){\r\n                    if (ownerOf(i) == _owner){\r\n                        emit bankAccountAlreadyCreated(_owner,i,accounts[i].iban);\r\n                        return true;\r\n                    }else{\r\n                        emit bankAccountOwnedByOther(ownerOf(i),_owner,i,accounts[i].iban);\r\n                        return true;\r\n                    }\r\n                }\r\n            }\r\n            return false;\r\n        }\r\n        return false;\r\n    }\r\n\r\n    function createBankAccount(\r\n        string memory _iban,\r\n        string memory _currencyCode,\r\n        int _balance,\r\n        string memory _name,\r\n        string memory _surname) onlyIfIbanDoNotExist(_iban, msg.sender) public {\r\n        lastTokenId += 1;\r\n\r\n        accounts[lastTokenId].iban = _iban;\r\n        accounts[lastTokenId].currencyCode = _currencyCode;\r\n        accounts[lastTokenId].currentBalance = _balance;\r\n        accounts[lastTokenId].name = _name;\r\n        accounts[lastTokenId].surname = _surname;\r\n\r\n        _mint(msg.sender, lastTokenId);\r\n\r\n        emit bankAccountCreated(msg.sender, lastTokenId, accounts[lastTokenId].iban);\r\n    }\r\n\r\n    function getBankAccount(uint _id) view public returns(string memory,\r\n        string memory,\r\n        int,\r\n        uint,\r\n        address,\r\n        string memory,\r\n        string memory) {\r\n        return(\r\n        accounts[_id].iban,\r\n        accounts[_id].currencyCode,\r\n        accounts[_id].currentBalance,\r\n        _id,\r\n        ownerOf(_id),\r\n        accounts[_id].name,\r\n        accounts[_id].surname);\r\n    }\r\n\r\n    function getCurrencyCode(uint _id) view public returns (string memory){\r\n        return accounts[_id].currencyCode;\r\n    }\r\n\r\n    function getAccountBalance (uint _id) view public returns (int) {\r\n        return (accounts[_id].currentBalance);\r\n    }\r\n\r\n    function getAccountIBAN (uint _id) view onlyOwner(_id) public returns (string memory) {\r\n        return (accounts[_id].iban);\r\n    }\r\n\r\n    function SetBankAccountBalance(uint _id, int _newBalance) onlyOwner(_id) public {\r\n        accounts[_id].currentBalance = _newBalance;\r\n        emit balanceUpdated (msg.sender, _id, _newBalance);\r\n    }\r\n\r\n    function checkIfTokenExistForGivenAddress (address _account) view public returns (bool){\r\n        for (uint i=1; i<=lastTokenId; i++){\r\n            if (ownerOf(i) == _account){\r\n                return true;\r\n            }\r\n        }\r\n        return false;\r\n    }\r\n\r\n    function checkIfTokenExistGivenIbanAndOwner (string memory _iban, address _account) public view returns(bool) {\r\n        for (uint i=1; i<=lastTokenId; i++){\r\n            if (keccak256(abi.encodePacked((accounts[i].iban))) == keccak256(abi.encodePacked((_iban))) &&\r\n            ownerOf(returnIdGivenIBAN(_iban))==_account){\r\n                return true;\r\n            }\r\n        }\r\n        return false;\r\n    }\r\n\r\n    function returnIdGivenIBAN (string memory _iban)view public returns (uint){\r\n        for (uint i=1; i<=lastTokenId; i++){\r\n            if (keccak256(abi.encodePacked((accounts[i].iban))) == keccak256(abi.encodePacked((_iban)))){\r\n                return i;\r\n            }\r\n        }\r\n        return 0;\r\n    }\r\n\r\n    //    Function that returns the token list owned by a specified address\r\n    //    Due to solidity features the function returns max 10 bank accounts\r\n    //    at the moment is not possible return dynamic array\r\n\r\n    function getAllTokenByOwnerAddress(address _owner) public view returns (uint [] memory){\r\n        uint[] memory listOfTokens = new uint[](10);\r\n        uint currentIndex = 0;\r\n\r\n        for (uint i=1; i<=lastTokenId; i++){\r\n            if (ownerOf(i) == _owner){\r\n                listOfTokens[currentIndex] = i;\r\n                currentIndex++;\r\n            }\r\n        }\r\n        return listOfTokens;\r\n    }\r\n\r\n    //Function to return the overall token balance using the owner address\r\n\r\n    function getOverallBalance (address _owner) public view returns (int){\r\n        int totalBalance = 0;\r\n        uint[] memory tokens = getAllTokenByOwnerAddress(_owner);\r\n        for (uint i=0; i<tokens.length; i++){\r\n            totalBalance += accounts[tokens[i]].currentBalance;\r\n        }\r\n        return totalBalance;\r\n    }\r\n}",
  "sourcePath": "C:/Users/hackro/Desktop/Dtpp_AISP_project/contracts/BAT.sol",
  "compiler": {
    "name": "solc",
    "version": "0.5.8+commit.23d335f2.Emscripten.clang"
  },
  "schemaVersion": "3.0.16",
  "updatedAt": "2019-12-18T19:24:24.007Z",
  "devdoc": {
    "methods": {
      "approve(address,uint256)": {
        "details": "Approves another address to transfer the given token ID The zero address indicates there is no approved address. There can only be one approved address per token at a given time. Can only be called by the token owner or an approved operator.",
        "params": {
          "to": "address to be approved for the given token ID",
          "tokenId": "uint256 ID of the token to be approved"
        }
      },
      "balanceOf(address)": {
        "details": "Gets the balance of the specified address.",
        "params": {
          "owner": "address to query the balance of"
        },
        "return": "uint256 representing the amount owned by the passed address"
      },
      "getApproved(uint256)": {
        "details": "Gets the approved address for a token ID, or zero if no address set Reverts if the token ID does not exist.",
        "params": {
          "tokenId": "uint256 ID of the token to query the approval of"
        },
        "return": "address currently approved for the given token ID"
      },
      "isApprovedForAll(address,address)": {
        "details": "Tells whether an operator is approved by a given owner.",
        "params": {
          "operator": "operator address which you want to query the approval of",
          "owner": "owner address which you want to query the approval of"
        },
        "return": "bool whether the given operator is approved by the given owner"
      },
      "ownerOf(uint256)": {
        "details": "Gets the owner of the specified token ID.",
        "params": {
          "tokenId": "uint256 ID of the token to query the owner of"
        },
        "return": "address currently marked as the owner of the given token ID"
      },
      "safeTransferFrom(address,address,uint256)": {
        "details": "Safely transfers the ownership of a given token ID to another address If the target address is a contract, it must implement `onERC721Received`, which is called upon a safe transfer, and return the magic value `bytes4(keccak256(\"onERC721Received(address,address,uint256,bytes)\"))`; otherwise, the transfer is reverted. Requires the msg.sender to be the owner, approved, or operator",
        "params": {
          "from": "current owner of the token",
          "to": "address to receive the ownership of the given token ID",
          "tokenId": "uint256 ID of the token to be transferred"
        }
      },
      "safeTransferFrom(address,address,uint256,bytes)": {
        "details": "Safely transfers the ownership of a given token ID to another address If the target address is a contract, it must implement `onERC721Received`, which is called upon a safe transfer, and return the magic value `bytes4(keccak256(\"onERC721Received(address,address,uint256,bytes)\"))`; otherwise, the transfer is reverted. Requires the msg.sender to be the owner, approved, or operator",
        "params": {
          "_data": "bytes data to send along with a safe transfer check",
          "from": "current owner of the token",
          "to": "address to receive the ownership of the given token ID",
          "tokenId": "uint256 ID of the token to be transferred"
        }
      },
      "setApprovalForAll(address,bool)": {
        "details": "Sets or unsets the approval of a given operator An operator is allowed to transfer all tokens of the sender on their behalf.",
        "params": {
          "approved": "representing the status of the approval to be set",
          "to": "operator address to set the approval"
        }
      },
      "supportsInterface(bytes4)": {
        "details": "See `IERC165.supportsInterface`.     * Time complexity O(1), guaranteed to always use less than 30 000 gas."
      },
      "transferFrom(address,address,uint256)": {
        "details": "Transfers the ownership of a given token ID to another address. Usage of this method is discouraged, use `safeTransferFrom` whenever possible. Requires the msg.sender to be the owner, approved, or operator.",
        "params": {
          "from": "current owner of the token",
          "to": "address to receive the ownership of the given token ID",
          "tokenId": "uint256 ID of the token to be transferred"
        }
      }
    }
  },
  "userdoc": {
    "methods": {}
  }
}