{
  "contractName": "BAT",
  "abi": [
    {
      "constant": true,
      "inputs": [
        {
          "name": "interfaceId",
          "type": "bytes4"
        }
      ],
      "name": "supportsInterface",
      "outputs": [
        {
          "name": "",
          "type": "bool"
        }
      ],
      "payable": false,
      "stateMutability": "view",
      "type": "function"
    },
    {
      "constant": true,
      "inputs": [
        {
          "name": "tokenId",
          "type": "uint256"
        }
      ],
      "name": "getApproved",
      "outputs": [
        {
          "name": "",
          "type": "address"
        }
      ],
      "payable": false,
      "stateMutability": "view",
      "type": "function"
    },
    {
      "constant": false,
      "inputs": [
        {
          "name": "to",
          "type": "address"
        },
        {
          "name": "tokenId",
          "type": "uint256"
        }
      ],
      "name": "approve",
      "outputs": [],
      "payable": false,
      "stateMutability": "nonpayable",
      "type": "function"
    },
    {
      "constant": false,
      "inputs": [
        {
          "name": "from",
          "type": "address"
        },
        {
          "name": "to",
          "type": "address"
        },
        {
          "name": "tokenId",
          "type": "uint256"
        }
      ],
      "name": "transferFrom",
      "outputs": [],
      "payable": false,
      "stateMutability": "nonpayable",
      "type": "function"
    },
    {
      "constant": false,
      "inputs": [
        {
          "name": "from",
          "type": "address"
        },
        {
          "name": "to",
          "type": "address"
        },
        {
          "name": "tokenId",
          "type": "uint256"
        }
      ],
      "name": "safeTransferFrom",
      "outputs": [],
      "payable": false,
      "stateMutability": "nonpayable",
      "type": "function"
    },
    {
      "constant": true,
      "inputs": [
        {
          "name": "tokenId",
          "type": "uint256"
        }
      ],
      "name": "ownerOf",
      "outputs": [
        {
          "name": "",
          "type": "address"
        }
      ],
      "payable": false,
      "stateMutability": "view",
      "type": "function"
    },
    {
      "constant": true,
      "inputs": [
        {
          "name": "owner",
          "type": "address"
        }
      ],
      "name": "balanceOf",
      "outputs": [
        {
          "name": "",
          "type": "uint256"
        }
      ],
      "payable": false,
      "stateMutability": "view",
      "type": "function"
    },
    {
      "constant": false,
      "inputs": [
        {
          "name": "to",
          "type": "address"
        },
        {
          "name": "approved",
          "type": "bool"
        }
      ],
      "name": "setApprovalForAll",
      "outputs": [],
      "payable": false,
      "stateMutability": "nonpayable",
      "type": "function"
    },
    {
      "constant": false,
      "inputs": [
        {
          "name": "from",
          "type": "address"
        },
        {
          "name": "to",
          "type": "address"
        },
        {
          "name": "tokenId",
          "type": "uint256"
        },
        {
          "name": "_data",
          "type": "bytes"
        }
      ],
      "name": "safeTransferFrom",
      "outputs": [],
      "payable": false,
      "stateMutability": "nonpayable",
      "type": "function"
    },
    {
      "constant": true,
      "inputs": [
        {
          "name": "owner",
          "type": "address"
        },
        {
          "name": "operator",
          "type": "address"
        }
      ],
      "name": "isApprovedForAll",
      "outputs": [
        {
          "name": "",
          "type": "bool"
        }
      ],
      "payable": false,
      "stateMutability": "view",
      "type": "function"
    },
    {
      "anonymous": false,
      "inputs": [
        {
          "indexed": false,
          "name": "owner",
          "type": "address"
        },
        {
          "indexed": false,
          "name": "tokenID",
          "type": "uint256"
        },
        {
          "indexed": false,
          "name": "iban",
          "type": "string"
        }
      ],
      "name": "bankAccountCreated",
      "type": "event"
    },
    {
      "anonymous": false,
      "inputs": [
        {
          "indexed": false,
          "name": "owner",
          "type": "address"
        },
        {
          "indexed": false,
          "name": "tokenID",
          "type": "uint256"
        },
        {
          "indexed": false,
          "name": "iban",
          "type": "string"
        }
      ],
      "name": "bankAccountAlreadyCreated",
      "type": "event"
    },
    {
      "anonymous": false,
      "inputs": [
        {
          "indexed": false,
          "name": "realOwner",
          "type": "address"
        },
        {
          "indexed": false,
          "name": "userThatSendRequest",
          "type": "address"
        },
        {
          "indexed": false,
          "name": "tokenID",
          "type": "uint256"
        },
        {
          "indexed": false,
          "name": "iban",
          "type": "string"
        }
      ],
      "name": "bankAccountOwnedByOther",
      "type": "event"
    },
    {
      "anonymous": false,
      "inputs": [
        {
          "indexed": false,
          "name": "owner",
          "type": "address"
        },
        {
          "indexed": false,
          "name": "tokenID",
          "type": "uint256"
        },
        {
          "indexed": false,
          "name": "_newBalance",
          "type": "int256"
        }
      ],
      "name": "balanceUpdated",
      "type": "event"
    },
    {
      "anonymous": false,
      "inputs": [
        {
          "indexed": true,
          "name": "from",
          "type": "address"
        },
        {
          "indexed": true,
          "name": "to",
          "type": "address"
        },
        {
          "indexed": true,
          "name": "tokenId",
          "type": "uint256"
        }
      ],
      "name": "Transfer",
      "type": "event"
    },
    {
      "anonymous": false,
      "inputs": [
        {
          "indexed": true,
          "name": "owner",
          "type": "address"
        },
        {
          "indexed": true,
          "name": "approved",
          "type": "address"
        },
        {
          "indexed": true,
          "name": "tokenId",
          "type": "uint256"
        }
      ],
      "name": "Approval",
      "type": "event"
    },
    {
      "anonymous": false,
      "inputs": [
        {
          "indexed": true,
          "name": "owner",
          "type": "address"
        },
        {
          "indexed": true,
          "name": "operator",
          "type": "address"
        },
        {
          "indexed": false,
          "name": "approved",
          "type": "bool"
        }
      ],
      "name": "ApprovalForAll",
      "type": "event"
    },
    {
      "constant": false,
      "inputs": [
        {
          "name": "_iban",
          "type": "string"
        },
        {
          "name": "_owner",
          "type": "address"
        }
      ],
      "name": "checkIbanAlreadyExist",
      "outputs": [
        {
          "name": "",
          "type": "bool"
        }
      ],
      "payable": false,
      "stateMutability": "nonpayable",
      "type": "function"
    },
    {
      "constant": false,
      "inputs": [
        {
          "name": "_iban",
          "type": "string"
        },
        {
          "name": "_currencyCode",
          "type": "string"
        },
        {
          "name": "_balance",
          "type": "int256"
        }
      ],
      "name": "createBankAccount",
      "outputs": [],
      "payable": false,
      "stateMutability": "nonpayable",
      "type": "function"
    },
    {
      "constant": true,
      "inputs": [
        {
          "name": "_id",
          "type": "uint256"
        }
      ],
      "name": "getBankAccount",
      "outputs": [
        {
          "name": "",
          "type": "string"
        },
        {
          "name": "",
          "type": "string"
        },
        {
          "name": "",
          "type": "int256"
        },
        {
          "name": "",
          "type": "uint256"
        },
        {
          "name": "",
          "type": "address"
        }
      ],
      "payable": false,
      "stateMutability": "view",
      "type": "function"
    },
    {
      "constant": true,
      "inputs": [
        {
          "name": "_id",
          "type": "uint256"
        }
      ],
      "name": "getCurrencyCode",
      "outputs": [
        {
          "name": "",
          "type": "string"
        }
      ],
      "payable": false,
      "stateMutability": "view",
      "type": "function"
    },
    {
      "constant": true,
      "inputs": [
        {
          "name": "_id",
          "type": "uint256"
        }
      ],
      "name": "getAccountBalance",
      "outputs": [
        {
          "name": "",
          "type": "int256"
        }
      ],
      "payable": false,
      "stateMutability": "view",
      "type": "function"
    },
    {
      "constant": true,
      "inputs": [
        {
          "name": "_id",
          "type": "uint256"
        }
      ],
      "name": "getAccountIBAN",
      "outputs": [
        {
          "name": "",
          "type": "string"
        }
      ],
      "payable": false,
      "stateMutability": "view",
      "type": "function"
    },
    {
      "constant": false,
      "inputs": [
        {
          "name": "_id",
          "type": "uint256"
        },
        {
          "name": "_newBalance",
          "type": "int256"
        }
      ],
      "name": "SetBankAccountBalance",
      "outputs": [],
      "payable": false,
      "stateMutability": "nonpayable",
      "type": "function"
    },
    {
      "constant": true,
      "inputs": [
        {
          "name": "_account",
          "type": "address"
        }
      ],
      "name": "checkIfTokenExistForGivenAddress",
      "outputs": [
        {
          "name": "",
          "type": "bool"
        }
      ],
      "payable": false,
      "stateMutability": "view",
      "type": "function"
    },
    {
      "constant": true,
      "inputs": [
        {
          "name": "_iban",
          "type": "string"
        }
      ],
      "name": "returnIdGivenIBAN",
      "outputs": [
        {
          "name": "",
          "type": "uint256"
        }
      ],
      "payable": false,
      "stateMutability": "view",
      "type": "function"
    },
    {
      "constant": true,
      "inputs": [
        {
          "name": "_owner",
          "type": "address"
        }
      ],
      "name": "getAllTokenByOwnerAddress",
      "outputs": [
        {
          "name": "",
          "type": "uint256[]"
        }
      ],
      "payable": false,
      "stateMutability": "view",
      "type": "function"
    },
    {
      "constant": true,
      "inputs": [
        {
          "name": "_owner",
          "type": "address"
        }
      ],
      "name": "getOverallBalance",
      "outputs": [
        {
          "name": "",
          "type": "int256"
        }
      ],
      "payable": false,
      "stateMutability": "view",
      "type": "function"
    }
  ],
  "bytecode": "0x60806040526200001c6301ffc9a760e01b6200003a60201b60201c565b620000346380ac58cd60e01b6200003a60201b60201c565b62000143565b63ffffffff60e01b817bffffffffffffffffffffffffffffffffffffffffffffffffffffffff19161415620000d7576040517f08c379a000000000000000000000000000000000000000000000000000000000815260040180806020018281038252601c8152602001807f4552433136353a20696e76616c696420696e746572666163652069640000000081525060200191505060405180910390fd5b6001600080837bffffffffffffffffffffffffffffffffffffffffffffffffffffffff19167bffffffffffffffffffffffffffffffffffffffffffffffffffffffff1916815260200190815260200160002060006101000a81548160ff02191690831515021790555050565b612f2380620001536000396000f3fe608060405234801561001057600080fd5b50600436106101375760003560e01c806370a08231116100b8578063a22cb4651161007c578063a22cb465146108ff578063a36a9b3f1461094f578063b88d4fde14610a42578063bdd7600c14610b47578063e985e9c514610ca3578063ff37662314610d1f57610137565b806370a08231146106b35780637573640e1461070b578063825a25b1146107b2578063889c0f121461080e5780639301f0871461086657610137565b80633af4372a116100ff5780633af4372a1461041f5780633d9546ee146104ee57806342842e0e1461053057806362b6711e1461059e5780636352211e1461064557610137565b806301ffc9a71461013c578063081812fc146101a1578063095ea7b31461020f5780630d3127701461025d57806323b872dd146103b1575b600080fd5b6101876004803603602081101561015257600080fd5b8101908080357bffffffffffffffffffffffffffffffffffffffffffffffffffffffff19169060200190929190505050610d57565b604051808215151515815260200191505060405180910390f35b6101cd600480360360208110156101b757600080fd5b8101908080359060200190929190505050610dbe565b604051808273ffffffffffffffffffffffffffffffffffffffff1673ffffffffffffffffffffffffffffffffffffffff16815260200191505060405180910390f35b61025b6004803603604081101561022557600080fd5b81019080803573ffffffffffffffffffffffffffffffffffffffff16906020019092919080359060200190929190505050610e59565b005b6102896004803603602081101561027357600080fd5b8101908080359060200190929190505050611032565b6040518080602001806020018681526020018581526020018473ffffffffffffffffffffffffffffffffffffffff1673ffffffffffffffffffffffffffffffffffffffff168152602001838103835288818151815260200191508051906020019080838360005b8381101561030b5780820151818401526020810190506102f0565b50505050905090810190601f1680156103385780820380516001836020036101000a031916815260200191505b50838103825287818151815260200191508051906020019080838360005b83811015610371578082015181840152602081019050610356565b50505050905090810190601f16801561039e5780820380516001836020036101000a031916815260200191505b5097505050505050505060405180910390f35b61041d600480360360608110156103c757600080fd5b81019080803573ffffffffffffffffffffffffffffffffffffffff169060200190929190803573ffffffffffffffffffffffffffffffffffffffff169060200190929190803590602001909291905050506111e3565b005b6104d86004803603602081101561043557600080fd5b810190808035906020019064010000000081111561045257600080fd5b82018360208201111561046457600080fd5b8035906020019184600183028401116401000000008311171561048657600080fd5b91908080601f016020809104026020016040519081016040528093929190818152602001838380828437600081840152601f19601f820116905080830192505050505050509192919290505050611252565b6040518082815260200191505060405180910390f35b61051a6004803603602081101561050457600080fd5b810190808035906020019092919050505061138b565b6040518082815260200191505060405180910390f35b61059c6004803603606081101561054657600080fd5b81019080803573ffffffffffffffffffffffffffffffffffffffff169060200190929190803573ffffffffffffffffffffffffffffffffffffffff169060200190929190803590602001909291905050506113ab565b005b6105ca600480360360208110156105b457600080fd5b81019080803590602001909291905050506113cb565b6040518080602001828103825283818151815260200191508051906020019080838360005b8381101561060a5780820151818401526020810190506105ef565b50505050905090810190601f1680156106375780820380516001836020036101000a031916815260200191505b509250505060405180910390f35b6106716004803603602081101561065b57600080fd5b8101908080359060200190929190505050611483565b604051808273ffffffffffffffffffffffffffffffffffffffff1673ffffffffffffffffffffffffffffffffffffffff16815260200191505060405180910390f35b6106f5600480360360208110156106c957600080fd5b81019080803573ffffffffffffffffffffffffffffffffffffffff16906020019092919050505061154b565b6040518082815260200191505060405180910390f35b6107376004803603602081101561072157600080fd5b8101908080359060200190929190505050611620565b6040518080602001828103825283818151815260200191508051906020019080838360005b8381101561077757808201518184015260208101905061075c565b50505050905090810190601f1680156107a45780820380516001836020036101000a031916815260200191505b509250505060405180910390f35b6107f4600480360360208110156107c857600080fd5b81019080803573ffffffffffffffffffffffffffffffffffffffff169060200190929190505050611783565b604051808215151515815260200191505060405180910390f35b6108506004803603602081101561082457600080fd5b81019080803573ffffffffffffffffffffffffffffffffffffffff1690602001909291905050506117f2565b6040518082815260200191505060405180910390f35b6108a86004803603602081101561087c57600080fd5b81019080803573ffffffffffffffffffffffffffffffffffffffff16906020019092919050505061185b565b6040518080602001828103825283818151815260200191508051906020019060200280838360005b838110156108eb5780820151818401526020810190506108d0565b505050509050019250505060405180910390f35b61094d6004803603604081101561091557600080fd5b81019080803573ffffffffffffffffffffffffffffffffffffffff16906020019092919080351515906020019092919050505061191c565b005b610a286004803603604081101561096557600080fd5b810190808035906020019064010000000081111561098257600080fd5b82018360208201111561099457600080fd5b803590602001918460018302840111640100000000831117156109b657600080fd5b91908080601f016020809104026020016040519081016040528093929190818152602001838380828437600081840152601f19601f820116905080830192505050505050509192919290803573ffffffffffffffffffffffffffffffffffffffff169060200190929190505050611abf565b604051808215151515815260200191505060405180910390f35b610b4560048036036080811015610a5857600080fd5b81019080803573ffffffffffffffffffffffffffffffffffffffff169060200190929190803573ffffffffffffffffffffffffffffffffffffffff1690602001909291908035906020019092919080359060200190640100000000811115610abf57600080fd5b820183602082011115610ad157600080fd5b80359060200191846001830284011164010000000083111715610af357600080fd5b91908080601f016020809104026020016040519081016040528093929190818152602001838380828437600081840152601f19601f820116905080830192505050505050509192919290505050611ea3565b005b610ca160048036036060811015610b5d57600080fd5b8101908080359060200190640100000000811115610b7a57600080fd5b820183602082011115610b8c57600080fd5b80359060200191846001830284011164010000000083111715610bae57600080fd5b91908080601f016020809104026020016040519081016040528093929190818152602001838380828437600081840152601f19601f82011690508083019250505050505050919291929080359060200190640100000000811115610c1157600080fd5b820183602082011115610c2357600080fd5b80359060200191846001830284011164010000000083111715610c4557600080fd5b91908080601f016020809104026020016040519081016040528093929190818152602001838380828437600081840152601f19601f82011690508083019250505050505050919291929080359060200190929190505050611f15565b005b610d0560048036036040811015610cb957600080fd5b81019080803573ffffffffffffffffffffffffffffffffffffffff169060200190929190803573ffffffffffffffffffffffffffffffffffffffff169060200190929190505050612149565b604051808215151515815260200191505060405180910390f35b610d5560048036036040811015610d3557600080fd5b8101908080359060200190929190803590602001909291905050506121dd565b005b6000806000837bffffffffffffffffffffffffffffffffffffffffffffffffffffffff19167bffffffffffffffffffffffffffffffffffffffffffffffffffffffff1916815260200190815260200160002060009054906101000a900460ff169050919050565b6000610dc98261231a565b610e1e576040517f08c379a000000000000000000000000000000000000000000000000000000000815260040180806020018281038252602c815260200180612e51602c913960400191505060405180910390fd5b6002600083815260200190815260200160002060009054906101000a900473ffffffffffffffffffffffffffffffffffffffff169050919050565b6000610e6482611483565b90508073ffffffffffffffffffffffffffffffffffffffff168373ffffffffffffffffffffffffffffffffffffffff161415610eeb576040517f08c379a0000000000000000000000000000000000000000000000000000000008152600401808060200182810382526021815260200180612ea66021913960400191505060405180910390fd5b8073ffffffffffffffffffffffffffffffffffffffff163373ffffffffffffffffffffffffffffffffffffffff161480610f2b5750610f2a8133612149565b5b610f80576040517f08c379a0000000000000000000000000000000000000000000000000000000008152600401808060200182810382526038815260200180612dc66038913960400191505060405180910390fd5b826002600084815260200190815260200160002060006101000a81548173ffffffffffffffffffffffffffffffffffffffff021916908373ffffffffffffffffffffffffffffffffffffffff160217905550818373ffffffffffffffffffffffffffffffffffffffff168273ffffffffffffffffffffffffffffffffffffffff167f8c5be1e5ebec7d5bd14f71427d1e84f3dd0314c0f7b2291e5b200ac8c7c3b92560405160405180910390a4505050565b6060806000806000611042612c7d565b60066000888152602001908152602001600020604051806060016040529081600082018054600181600116156101000203166002900480601f0160208091040260200160405190810160405280929190818152602001828054600181600116156101000203166002900480156110f95780601f106110ce576101008083540402835291602001916110f9565b820191906000526020600020905b8154815290600101906020018083116110dc57829003601f168201915b50505050508152602001600182018054600181600116156101000203166002900480601f01602080910402602001604051908101604052809291908181526020018280546001816001161561010002031660029004801561119b5780601f106111705761010080835404028352916020019161119b565b820191906000526020600020905b81548152906001019060200180831161117e57829003601f168201915b505050505081526020016002820154815250509050806000015181602001518260400151896111c98b611483565b849450839350955095509550955095505091939590929450565b6111ed338261238c565b611242576040517f08c379a0000000000000000000000000000000000000000000000000000000008152600401808060200182810382526031815260200180612ec76031913960400191505060405180910390fd5b61124d838383612480565b505050565b600080600190505b600554811161138057826040516020018082805190602001908083835b6020831061129a5780518252602082019150602081019050602083039250611277565b6001836020036101000a038019825116818451168082178552505050505050905001915050604051602081830303815290604052805190602001206006600083815260200190815260200160002060000160405160200180828054600181600116156101000203166002900480156113495780601f10611327576101008083540402835291820191611349565b820191906000526020600020905b815481529060010190602001808311611335575b50509150506040516020818303038152906040528051906020012014156113735780915050611386565b808060010191505061125a565b50600090505b919050565b600060066000838152602001908152602001600020600201549050919050565b6113c683838360405180602001604052806000815250611ea3565b505050565b6060600660008381526020019081526020016000206001018054600181600116156101000203166002900480601f0160208091040260200160405190810160405280929190818152602001828054600181600116156101000203166002900480156114775780601f1061144c57610100808354040283529160200191611477565b820191906000526020600020905b81548152906001019060200180831161145a57829003601f168201915b50505050509050919050565b6000806001600084815260200190815260200160002060009054906101000a900473ffffffffffffffffffffffffffffffffffffffff169050600073ffffffffffffffffffffffffffffffffffffffff168173ffffffffffffffffffffffffffffffffffffffff161415611542576040517f08c379a0000000000000000000000000000000000000000000000000000000008152600401808060200182810382526029815260200180612e286029913960400191505060405180910390fd5b80915050919050565b60008073ffffffffffffffffffffffffffffffffffffffff168273ffffffffffffffffffffffffffffffffffffffff1614156115d2576040517f08c379a000000000000000000000000000000000000000000000000000000000815260040180806020018281038252602a815260200180612dfe602a913960400191505060405180910390fd5b611619600360008473ffffffffffffffffffffffffffffffffffffffff1673ffffffffffffffffffffffffffffffffffffffff1681526020019081526020016000206126db565b9050919050565b60608161162c81611483565b73ffffffffffffffffffffffffffffffffffffffff163373ffffffffffffffffffffffffffffffffffffffff16146116cc576040517f08c379a00000000000000000000000000000000000000000000000000000000081526004018080602001828103825260208152602001807f4f6e6c792074686520746f6b656e206f776e65722063616e206163636573732181525060200191505060405180910390fd5b600660008481526020019081526020016000206000018054600181600116156101000203166002900480601f0160208091040260200160405190810160405280929190818152602001828054600181600116156101000203166002900480156117765780601f1061174b57610100808354040283529160200191611776565b820191906000526020600020905b81548152906001019060200180831161175957829003601f168201915b5050505050915050919050565b600080600190505b60055481116117e7578273ffffffffffffffffffffffffffffffffffffffff166117b482611483565b73ffffffffffffffffffffffffffffffffffffffff1614156117da5760019150506117ed565b808060010191505061178b565b50600090505b919050565b6000806000905060606118048461185b565b905060008090505b8151811015611850576006600083838151811061182557fe5b602002602001015181526020019081526020016000206002015483019250808060010191505061180c565b508192505050919050565b606080600a60405190808252806020026020018201604052801561188e5781602001602082028038833980820191505090505b50905060008090506000600190505b6005548111611911578473ffffffffffffffffffffffffffffffffffffffff166118c682611483565b73ffffffffffffffffffffffffffffffffffffffff16141561190457808383815181106118ef57fe5b60200260200101818152505081806001019250505b808060010191505061189d565b508192505050919050565b3373ffffffffffffffffffffffffffffffffffffffff168273ffffffffffffffffffffffffffffffffffffffff1614156119be576040517f08c379a00000000000000000000000000000000000000000000000000000000081526004018080602001828103825260198152602001807f4552433732313a20617070726f766520746f2063616c6c65720000000000000081525060200191505060405180910390fd5b80600460003373ffffffffffffffffffffffffffffffffffffffff1673ffffffffffffffffffffffffffffffffffffffff16815260200190815260200160002060008473ffffffffffffffffffffffffffffffffffffffff1673ffffffffffffffffffffffffffffffffffffffff16815260200190815260200160002060006101000a81548160ff0219169083151502179055508173ffffffffffffffffffffffffffffffffffffffff163373ffffffffffffffffffffffffffffffffffffffff167f17307eab39ab6107e8899845ad3d59bd9653f200f220920489ca2b5937696c3183604051808215151515815260200191505060405180910390a35050565b60008060055414611e98576000600190505b6005548111611e8e57836040516020018082805190602001908083835b60208310611b115780518252602082019150602081019050602083039250611aee565b6001836020036101000a03801982511681845116808217855250505050505090500191505060405160208183030381529060405280519060200120600660008381526020019081526020016000206000016040516020018082805460018160011615610100020316600290048015611bc05780601f10611b9e576101008083540402835291820191611bc0565b820191906000526020600020905b815481529060010190602001808311611bac575b5050915050604051602081830303815290604052805190602001201415611e81578273ffffffffffffffffffffffffffffffffffffffff16611c0182611483565b73ffffffffffffffffffffffffffffffffffffffff161415611d31577fad483775b861dbed26dbd8e253c9ca9c34b023862eac0ba3874b63524d03fd71838260066000858152602001908152602001600020600001604051808473ffffffffffffffffffffffffffffffffffffffff1673ffffffffffffffffffffffffffffffffffffffff16815260200183815260200180602001828103825283818154600181600116156101000203166002900481526020019150805460018160011615610100020316600290048015611d175780601f10611cec57610100808354040283529160200191611d17565b820191906000526020600020905b815481529060010190602001808311611cfa57829003601f168201915b505094505050505060405180910390a16001915050611e9d565b7f5cf6086df19562b35294a36ebd9a4a981755d5155fb18a687bfad5dc75bb1d6a611d5b82611483565b848360066000868152602001908152602001600020600001604051808573ffffffffffffffffffffffffffffffffffffffff1673ffffffffffffffffffffffffffffffffffffffff1681526020018473ffffffffffffffffffffffffffffffffffffffff1673ffffffffffffffffffffffffffffffffffffffff16815260200183815260200180602001828103825283818154600181600116156101000203166002900481526020019150805460018160011615610100020316600290048015611e665780601f10611e3b57610100808354040283529160200191611e66565b820191906000526020600020905b815481529060010190602001808311611e4957829003601f168201915b50509550505050505060405180910390a16001915050611e9d565b8080600101915050611ad1565b5060009050611e9d565b600090505b92915050565b611eae8484846111e3565b611eba848484846126e9565b611f0f576040517f08c379a0000000000000000000000000000000000000000000000000000000008152600401808060200182810382526032815260200180612d446032913960400191505060405180910390fd5b50505050565b82336000611f238383611abf565b90506000151581151514611f9f576040517f08c379a000000000000000000000000000000000000000000000000000000000815260040180806020018281038252601f8152602001807f54686973204962616e20697320616c726561647920726567697374657265640081525060200191505060405180910390fd5b6001600560008282540192505081905550856006600060055481526020019081526020016000206000019080519060200190611fdc929190612c9e565b50846006600060055481526020019081526020016000206001019080519060200190612009929190612c9e565b508360066000600554815260200190815260200160002060020181905550612033336005546128d2565b7f2039a4d5c1e27ac7d9d3cc655a56de33da1f7d48737a40672c6984edd718c6f233600554600660006005548152602001908152602001600020600001604051808473ffffffffffffffffffffffffffffffffffffffff1673ffffffffffffffffffffffffffffffffffffffff168152602001838152602001806020018281038252838181546001816001161561010002031660029004815260200191508054600181600116156101000203166002900480156121315780601f1061210657610100808354040283529160200191612131565b820191906000526020600020905b81548152906001019060200180831161211457829003601f168201915b505094505050505060405180910390a1505050505050565b6000600460008473ffffffffffffffffffffffffffffffffffffffff1673ffffffffffffffffffffffffffffffffffffffff16815260200190815260200160002060008373ffffffffffffffffffffffffffffffffffffffff1673ffffffffffffffffffffffffffffffffffffffff16815260200190815260200160002060009054906101000a900460ff16905092915050565b816121e781611483565b73ffffffffffffffffffffffffffffffffffffffff163373ffffffffffffffffffffffffffffffffffffffff1614612287576040517f08c379a00000000000000000000000000000000000000000000000000000000081526004018080602001828103825260208152602001807f4f6e6c792074686520746f6b656e206f776e65722063616e206163636573732181525060200191505060405180910390fd5b8160066000858152602001908152602001600020600201819055507f59ccf961b5aa1967adac68ef1caa1f18f9a42ddbf404019403ce2df875d793a6338484604051808473ffffffffffffffffffffffffffffffffffffffff1673ffffffffffffffffffffffffffffffffffffffff168152602001838152602001828152602001935050505060405180910390a1505050565b6000806001600084815260200190815260200160002060009054906101000a900473ffffffffffffffffffffffffffffffffffffffff169050600073ffffffffffffffffffffffffffffffffffffffff168173ffffffffffffffffffffffffffffffffffffffff161415915050919050565b60006123978261231a565b6123ec576040517f08c379a000000000000000000000000000000000000000000000000000000000815260040180806020018281038252602c815260200180612d9a602c913960400191505060405180910390fd5b60006123f783611483565b90508073ffffffffffffffffffffffffffffffffffffffff168473ffffffffffffffffffffffffffffffffffffffff16148061246657508373ffffffffffffffffffffffffffffffffffffffff1661244e84610dbe565b73ffffffffffffffffffffffffffffffffffffffff16145b8061247757506124768185612149565b5b91505092915050565b8273ffffffffffffffffffffffffffffffffffffffff166124a082611483565b73ffffffffffffffffffffffffffffffffffffffff161461250c576040517f08c379a0000000000000000000000000000000000000000000000000000000008152600401808060200182810382526029815260200180612e7d6029913960400191505060405180910390fd5b600073ffffffffffffffffffffffffffffffffffffffff168273ffffffffffffffffffffffffffffffffffffffff161415612592576040517f08c379a0000000000000000000000000000000000000000000000000000000008152600401808060200182810382526024815260200180612d766024913960400191505060405180910390fd5b61259b81612aea565b6125e2600360008573ffffffffffffffffffffffffffffffffffffffff1673ffffffffffffffffffffffffffffffffffffffff168152602001908152602001600020612ba8565b612629600360008473ffffffffffffffffffffffffffffffffffffffff1673ffffffffffffffffffffffffffffffffffffffff168152602001908152602001600020612bcb565b816001600083815260200190815260200160002060006101000a81548173ffffffffffffffffffffffffffffffffffffffff021916908373ffffffffffffffffffffffffffffffffffffffff160217905550808273ffffffffffffffffffffffffffffffffffffffff168473ffffffffffffffffffffffffffffffffffffffff167fddf252ad1be2c89b69c2b068fc378daa952ba7f163c4a11628f55a4df523b3ef60405160405180910390a4505050565b600081600001549050919050565b600061270a8473ffffffffffffffffffffffffffffffffffffffff16612be1565b61271757600190506128ca565b60008473ffffffffffffffffffffffffffffffffffffffff1663150b7a02338887876040518563ffffffff1660e01b8152600401808573ffffffffffffffffffffffffffffffffffffffff1673ffffffffffffffffffffffffffffffffffffffff1681526020018473ffffffffffffffffffffffffffffffffffffffff1673ffffffffffffffffffffffffffffffffffffffff16815260200183815260200180602001828103825283818151815260200191508051906020019080838360005b838110156127f25780820151818401526020810190506127d7565b50505050905090810190601f16801561281f5780820380516001836020036101000a031916815260200191505b5095505050505050602060405180830381600087803b15801561284157600080fd5b505af1158015612855573d6000803e3d6000fd5b505050506040513d602081101561286b57600080fd5b8101908080519060200190929190505050905063150b7a0260e01b7bffffffffffffffffffffffffffffffffffffffffffffffffffffffff1916817bffffffffffffffffffffffffffffffffffffffffffffffffffffffff1916149150505b949350505050565b600073ffffffffffffffffffffffffffffffffffffffff168273ffffffffffffffffffffffffffffffffffffffff161415612975576040517f08c379a00000000000000000000000000000000000000000000000000000000081526004018080602001828103825260208152602001807f4552433732313a206d696e7420746f20746865207a65726f206164647265737381525060200191505060405180910390fd5b61297e8161231a565b156129f1576040517f08c379a000000000000000000000000000000000000000000000000000000000815260040180806020018281038252601c8152602001807f4552433732313a20746f6b656e20616c7265616479206d696e7465640000000081525060200191505060405180910390fd5b816001600083815260200190815260200160002060006101000a81548173ffffffffffffffffffffffffffffffffffffffff021916908373ffffffffffffffffffffffffffffffffffffffff160217905550612a8a600360008473ffffffffffffffffffffffffffffffffffffffff1673ffffffffffffffffffffffffffffffffffffffff168152602001908152602001600020612bcb565b808273ffffffffffffffffffffffffffffffffffffffff16600073ffffffffffffffffffffffffffffffffffffffff167fddf252ad1be2c89b69c2b068fc378daa952ba7f163c4a11628f55a4df523b3ef60405160405180910390a45050565b600073ffffffffffffffffffffffffffffffffffffffff166002600083815260200190815260200160002060009054906101000a900473ffffffffffffffffffffffffffffffffffffffff1673ffffffffffffffffffffffffffffffffffffffff1614612ba55760006002600083815260200190815260200160002060006101000a81548173ffffffffffffffffffffffffffffffffffffffff021916908373ffffffffffffffffffffffffffffffffffffffff1602179055505b50565b612bc060018260000154612bf490919063ffffffff16565b816000018190555050565b6001816000016000828254019250508190555050565b600080823b905060008111915050919050565b600082821115612c6c576040517f08c379a000000000000000000000000000000000000000000000000000000000815260040180806020018281038252601e8152602001807f536166654d6174683a207375627472616374696f6e206f766572666c6f77000081525060200191505060405180910390fd5b600082840390508091505092915050565b60405180606001604052806060815260200160608152602001600081525090565b828054600181600116156101000203166002900490600052602060002090601f016020900481019282601f10612cdf57805160ff1916838001178555612d0d565b82800160010185558215612d0d579182015b82811115612d0c578251825591602001919060010190612cf1565b5b509050612d1a9190612d1e565b5090565b612d4091905b80821115612d3c576000816000905550600101612d24565b5090565b9056fe4552433732313a207472616e7366657220746f206e6f6e20455243373231526563656976657220696d706c656d656e7465724552433732313a207472616e7366657220746f20746865207a65726f20616464726573734552433732313a206f70657261746f7220717565727920666f72206e6f6e6578697374656e7420746f6b656e4552433732313a20617070726f76652063616c6c6572206973206e6f74206f776e6572206e6f7220617070726f76656420666f7220616c6c4552433732313a2062616c616e636520717565727920666f7220746865207a65726f20616464726573734552433732313a206f776e657220717565727920666f72206e6f6e6578697374656e7420746f6b656e4552433732313a20617070726f76656420717565727920666f72206e6f6e6578697374656e7420746f6b656e4552433732313a207472616e73666572206f6620746f6b656e2074686174206973206e6f74206f776e4552433732313a20617070726f76616c20746f2063757272656e74206f776e65724552433732313a207472616e736665722063616c6c6572206973206e6f74206f776e6572206e6f7220617070726f766564a165627a7a72305820d0d62b383327620961c4a98c1af654520f56d07ee41386b9b86038384b8ce18a0029",
  "source": "pragma solidity ^0.5.5;\r\n\r\nimport \"node_modules/openzeppelin-solidity/contracts/token/ERC721/ERC721.sol\";\r\n\r\ncontract BAT is ERC721 {\r\n\r\n    struct BankAccount {\r\n        string iban;\r\n        string currencyCode;\r\n        int currentBalance;\r\n    }\r\n\r\n    uint lastTokenId;\r\n\r\n    mapping(uint256 => BankAccount) private accounts;\r\n\r\n    /*TO DO\r\n    * Add a function to know if an IBAN is from the current sender or it's owned by another\r\n    * account and the send the events*/\r\n\r\n    modifier onlyIfIbanDidNotExist(string memory _iban, address _owner) {\r\n        bool check = checkIbanAlreadyExist(_iban,_owner);\r\n        require(\r\n            check == false,\r\n            \"This Iban is already registered\"\r\n        );\r\n        _;\r\n    }\r\n\r\n    modifier onlyOwner(uint _tokenID) {\r\n        require (\r\n            msg.sender == ownerOf(_tokenID),\r\n            \"Only the token owner can access!\");\r\n        _;\r\n    }\r\n\r\n    event bankAccountCreated (\r\n        address owner,\r\n        uint tokenID,\r\n        string iban);\r\n\r\n    event bankAccountAlreadyCreated (\r\n        address owner,\r\n        uint tokenID,\r\n        string iban);\r\n\r\n    event bankAccountOwnedByOther (\r\n        address realOwner,\r\n        address userThatSendRequest,\r\n        uint tokenID,\r\n        string iban);\r\n\r\n    event balanceUpdated (\r\n        address owner,\r\n        uint tokenID,\r\n        int _newBalance);\r\n\r\n    function checkIbanAlreadyExist (string memory _iban, address _owner) public returns (bool){\r\n        if (lastTokenId != 0){\r\n            for (uint i=1; i<=lastTokenId; i++){\r\n                if (keccak256(abi.encodePacked((accounts[i].iban))) == keccak256(abi.encodePacked((_iban)))){\r\n                    if (ownerOf(i) == _owner){\r\n                        emit bankAccountAlreadyCreated(_owner,i,accounts[i].iban);\r\n                        return true;\r\n                    }else{\r\n                        emit bankAccountOwnedByOther(ownerOf(i),_owner,i,accounts[i].iban);\r\n                        return true;\r\n                    }\r\n                }\r\n            }\r\n            return false;\r\n        }\r\n        return false;\r\n    }\r\n\r\n    function createBankAccount(string memory _iban, string memory _currencyCode, int _balance) onlyIfIbanDidNotExist(_iban, msg.sender) public {\r\n        lastTokenId += 1;\r\n\r\n        accounts[lastTokenId].iban = _iban;\r\n        accounts[lastTokenId].currencyCode = _currencyCode;\r\n        accounts[lastTokenId].currentBalance = _balance;\r\n\r\n        _mint(msg.sender, lastTokenId);\r\n\r\n        emit bankAccountCreated(msg.sender, lastTokenId, accounts[lastTokenId].iban);\r\n    }\r\n\r\n    function getBankAccount(uint _id) view public returns(string memory, string memory, int, uint, address) {\r\n        BankAccount memory acc = accounts[_id];\r\n        return(acc.iban, acc.currencyCode, acc.currentBalance, _id, ownerOf(_id));\r\n    }\r\n\r\n    function getCurrencyCode(uint _id) view public returns (string memory){\r\n        return accounts[_id].currencyCode;\r\n    }\r\n\r\n    function getAccountBalance (uint _id) view public returns (int) {\r\n        return (accounts[_id].currentBalance);\r\n    }\r\n\r\n    function getAccountIBAN (uint _id) view onlyOwner(_id) public returns (string memory) {\r\n        return (accounts[_id].iban);\r\n    }\r\n\r\n    function SetBankAccountBalance(uint _id, int _newBalance) onlyOwner(_id) public {\r\n        accounts[_id].currentBalance = _newBalance;\r\n        emit balanceUpdated (msg.sender, _id, _newBalance);\r\n    }\r\n\r\n    function checkIfTokenExistForGivenAddress (address _account) view public returns (bool){\r\n        for (uint i=1; i<=lastTokenId; i++){\r\n            if (ownerOf(i) == _account){\r\n                return true;\r\n            }\r\n        }\r\n        return false;\r\n    }\r\n\r\n    function returnIdGivenIBAN (string memory _iban)view public returns (uint){\r\n        // if (checkIfTokenExistForGivenAddress(msg.sender)){\r\n        for (uint i=1; i<=lastTokenId; i++){\r\n            if (keccak256(abi.encodePacked((accounts[i].iban))) == keccak256(abi.encodePacked((_iban)))){\r\n                return i;\r\n            }\r\n        }\r\n        // }\r\n        return 0;\r\n    }\r\n\r\n    //    Function that returns the token list owned by a specified address\r\n    //    Due to solidity features the function returns max 10 bank accounts\r\n    //    at the moment is not possible return dynamic array\r\n\r\n    function getAllTokenByOwnerAddress(address _owner) public view returns (uint [] memory){\r\n        uint[] memory listOfTokens = new uint[](10);\r\n        uint currentIndex = 0;\r\n\r\n        for (uint i=1; i<=lastTokenId; i++){\r\n            if (ownerOf(i) == _owner){\r\n                listOfTokens[currentIndex] = i;\r\n                currentIndex++;\r\n            }\r\n        }\r\n        return listOfTokens;\r\n    }\r\n\r\n    //Function to return the overall token balance using the owner address\r\n\r\n    function getOverallBalance (address _owner) public view returns (int){\r\n        int totalBalance = 0;\r\n        uint[] memory tokens = getAllTokenByOwnerAddress(_owner);\r\n        for (uint i=0; i<tokens.length; i++){\r\n            totalBalance += accounts[tokens[i]].currentBalance;\r\n        }\r\n        return totalBalance;\r\n    }\r\n}",
  "sourcePath": "C:/Users/hackro/Desktop/Dtpp_AISP_project/contracts/BAT.sol",
  "compiler": {
    "name": "solc",
    "version": "0.5.8+commit.23d335f2.Emscripten.clang"
  },
  "schemaVersion": "3.0.16",
  "updatedAt": "2019-11-20T18:02:36.158Z",
  "devdoc": {
    "methods": {
      "approve(address,uint256)": {
        "details": "Approves another address to transfer the given token ID The zero address indicates there is no approved address. There can only be one approved address per token at a given time. Can only be called by the token owner or an approved operator.",
        "params": {
          "to": "address to be approved for the given token ID",
          "tokenId": "uint256 ID of the token to be approved"
        }
      },
      "balanceOf(address)": {
        "details": "Gets the balance of the specified address.",
        "params": {
          "owner": "address to query the balance of"
        },
        "return": "uint256 representing the amount owned by the passed address"
      },
      "getApproved(uint256)": {
        "details": "Gets the approved address for a token ID, or zero if no address set Reverts if the token ID does not exist.",
        "params": {
          "tokenId": "uint256 ID of the token to query the approval of"
        },
        "return": "address currently approved for the given token ID"
      },
      "isApprovedForAll(address,address)": {
        "details": "Tells whether an operator is approved by a given owner.",
        "params": {
          "operator": "operator address which you want to query the approval of",
          "owner": "owner address which you want to query the approval of"
        },
        "return": "bool whether the given operator is approved by the given owner"
      },
      "ownerOf(uint256)": {
        "details": "Gets the owner of the specified token ID.",
        "params": {
          "tokenId": "uint256 ID of the token to query the owner of"
        },
        "return": "address currently marked as the owner of the given token ID"
      },
      "safeTransferFrom(address,address,uint256)": {
        "details": "Safely transfers the ownership of a given token ID to another address If the target address is a contract, it must implement `onERC721Received`, which is called upon a safe transfer, and return the magic value `bytes4(keccak256(\"onERC721Received(address,address,uint256,bytes)\"))`; otherwise, the transfer is reverted. Requires the msg.sender to be the owner, approved, or operator",
        "params": {
          "from": "current owner of the token",
          "to": "address to receive the ownership of the given token ID",
          "tokenId": "uint256 ID of the token to be transferred"
        }
      },
      "safeTransferFrom(address,address,uint256,bytes)": {
        "details": "Safely transfers the ownership of a given token ID to another address If the target address is a contract, it must implement `onERC721Received`, which is called upon a safe transfer, and return the magic value `bytes4(keccak256(\"onERC721Received(address,address,uint256,bytes)\"))`; otherwise, the transfer is reverted. Requires the msg.sender to be the owner, approved, or operator",
        "params": {
          "_data": "bytes data to send along with a safe transfer check",
          "from": "current owner of the token",
          "to": "address to receive the ownership of the given token ID",
          "tokenId": "uint256 ID of the token to be transferred"
        }
      },
      "setApprovalForAll(address,bool)": {
        "details": "Sets or unsets the approval of a given operator An operator is allowed to transfer all tokens of the sender on their behalf.",
        "params": {
          "approved": "representing the status of the approval to be set",
          "to": "operator address to set the approval"
        }
      },
      "supportsInterface(bytes4)": {
        "details": "See `IERC165.supportsInterface`.     * Time complexity O(1), guaranteed to always use less than 30 000 gas."
      },
      "transferFrom(address,address,uint256)": {
        "details": "Transfers the ownership of a given token ID to another address. Usage of this method is discouraged, use `safeTransferFrom` whenever possible. Requires the msg.sender to be the owner, approved, or operator.",
        "params": {
          "from": "current owner of the token",
          "to": "address to receive the ownership of the given token ID",
          "tokenId": "uint256 ID of the token to be transferred"
        }
      }
    }
  },
  "userdoc": {
    "methods": {}
  }
}